{
  "contractName": "Accountant",
  "abi": [
    {
      "inputs": [
        {
          "internalType": "address",
          "name": "_multisigManager",
          "type": "address"
        },
        {
          "internalType": "address",
          "name": "_masterWallet",
          "type": "address"
        }
      ],
      "stateMutability": "nonpayable",
      "type": "constructor"
    },
    {
      "anonymous": false,
      "inputs": [
        {
          "indexed": false,
          "internalType": "address",
          "name": "newMasterWallet",
          "type": "address"
        }
      ],
      "name": "MasterWalletSet",
      "type": "event"
    },
    {
      "anonymous": false,
      "inputs": [],
      "name": "Withdrawn",
      "type": "event"
    },
    {
      "stateMutability": "payable",
      "type": "fallback",
      "payable": true
    },
    {
      "stateMutability": "payable",
      "type": "receive",
      "payable": true
    },
    {
      "inputs": [],
      "name": "withdraw",
      "outputs": [],
      "stateMutability": "nonpayable",
      "type": "function"
    },
    {
      "inputs": [
        {
          "internalType": "address",
          "name": "_masterWallet",
          "type": "address"
        }
      ],
      "name": "setMasterWallet",
      "outputs": [],
      "stateMutability": "nonpayable",
      "type": "function"
    },
    {
      "inputs": [],
      "name": "getContractBalance",
      "outputs": [
        {
          "internalType": "uint256",
          "name": "balance",
          "type": "uint256"
        }
      ],
      "stateMutability": "view",
      "type": "function",
      "constant": true
    },
    {
      "inputs": [],
      "name": "getMasterWallet",
      "outputs": [
        {
          "internalType": "address",
          "name": "masterWalletAddress",
          "type": "address"
        }
      ],
      "stateMutability": "view",
      "type": "function",
      "constant": true
    }
  ],
  "bytecode": "0x608060405234801561001057600080fd5b5060405161082c38038061082c83398101604081905261002f9161007c565b600080546001600160a01b039384166001600160a01b031991821617909155600180549290931691161790556100af565b80516001600160a01b038116811461007757600080fd5b919050565b6000806040838503121561008f57600080fd5b61009883610060565b91506100a660208401610060565b90509250929050565b61076e806100be6000396000f3fe6080604052600436106100405760003560e01c80633ccfd60b146100495780636f9fb98a1461005e578063a6c7bf8a14610086578063f21ccca7146100a657005b3661004757005b005b34801561005557600080fd5b506100476100d3565b34801561006a57600080fd5b50610073610367565b6040519081526020015b60405180910390f35b34801561009257600080fd5b506100476100a1366004610686565b6103f1565b3480156100b257600080fd5b506100bb6105d9565b6040516001600160a01b03909116815260200161007d565b6000546040516366bd542360e11b81523360048201526001600160a01b039091169063cd7aa8469060240160206040518083038186803b15801561011657600080fd5b505afa15801561012a573d6000803e3d6000fd5b505050506040513d601f19601f8201168201806040525081019061014e91906106aa565b61015757600080fd5b60006101646014476106cc565b9050600061017382600e6106ee565b905060006101828360036106ee565b905060008054906101000a90046001600160a01b03166001600160a01b0316635f032b176040518163ffffffff1660e01b815260040160206040518083038186803b1580156101d057600080fd5b505afa1580156101e4573d6000803e3d6000fd5b505050506040513d601f19601f82011682018060405250810190610208919061071b565b6001600160a01b03166108fc829081150290604051600060405180830381858888f19350505050158015610240573d6000803e3d6000fd5b5060008054906101000a90046001600160a01b03166001600160a01b03166356cd73c76040518163ffffffff1660e01b815260040160206040518083038186803b15801561028d57600080fd5b505afa1580156102a1573d6000803e3d6000fd5b505050506040513d601f19601f820116820180604052508101906102c5919061071b565b6001600160a01b03166108fc829081150290604051600060405180830381858888f193505050501580156102fd573d6000803e3d6000fd5b506001546040516001600160a01b039091169083156108fc029084906000818181858888f19350505050158015610338573d6000803e3d6000fd5b506040517fd8b7f4bb2039c9b48d880e35ed6f97af88652cdd5070f403bb6eacd26eb6e9dd90600090a1505050565b600080546040516366bd542360e11b81523360048201526001600160a01b039091169063cd7aa8469060240160206040518083038186803b1580156103ab57600080fd5b505afa1580156103bf573d6000803e3d6000fd5b505050506040513d601f19601f820116820180604052508101906103e391906106aa565b6103ec57600080fd5b504790565b600054604051638d84233160e01b81523360048201526001600160a01b0390911690638d8423319060240160206040518083038186803b15801561043457600080fd5b505afa158015610448573d6000803e3d6000fd5b505050506040513d601f19601f8201168201806040525081019061046c91906106aa565b61047557600080fd5b600054604051634a36d88560e01b81526020600482015260056024820152647365744d5760d81b60448201526001600160a01b0390911690634a36d8859060640160206040518083038186803b1580156104ce57600080fd5b505afa1580156104e2573d6000803e3d6000fd5b505050506040513d601f19601f8201168201806040525081019061050691906106aa565b61050f57600080fd5b600180546001600160a01b0319166001600160a01b038381169190911790915560005460405163538f20d960e01b81526020600482015260056024820152647365744d5760d81b604482015291169063538f20d990606401600060405180830381600087803b15801561058157600080fd5b505af1158015610595573d6000803e3d6000fd5b50506040516001600160a01b03841681527fc30285cdce1a43e99f04db6c6fbb7733ba46cca65a1176add8500803cb9be13d9250602001905060405180910390a150565b600080546040516366bd542360e11b81523360048201526001600160a01b039091169063cd7aa8469060240160206040518083038186803b15801561061d57600080fd5b505afa158015610631573d6000803e3d6000fd5b505050506040513d601f19601f8201168201806040525081019061065591906106aa565b61065e57600080fd5b506001546001600160a01b031690565b6001600160a01b038116811461068357600080fd5b50565b60006020828403121561069857600080fd5b81356106a38161066e565b9392505050565b6000602082840312156106bc57600080fd5b815180151581146106a357600080fd5b6000826106e957634e487b7160e01b600052601260045260246000fd5b500490565b600081600019048311821515161561071657634e487b7160e01b600052601160045260246000fd5b500290565b60006020828403121561072d57600080fd5b81516106a38161066e56fea26469706673582212202fbc72e93f5681a4277e439253663074769aa9153007100a9f713e9c07a4b81464736f6c63430008090033",
  "immutableReferences": {},
  "source": "// SPDX-License-Identifier: MIT\npragma solidity ^0.8.0;\n\nimport \"./MultisigManager.sol\";\n\ncontract Accountant {\n    MultisigManager private multisigManager;\n    address private masterWallet;\n\n    event Withdrawn();\n    event MasterWalletSet(address newMasterWallet);\n    \n    constructor(address _multisigManager, address _masterWallet) {\n        multisigManager = MultisigManager(_multisigManager);\n        masterWallet = _masterWallet;\n    }\n    \n    fallback () external payable {}\n    \n    receive() external payable {}\n    \n    function withdraw() external {\n        require(multisigManager.senderIsMasterOrMember(msg.sender));\n        uint256 twentieth = address(this).balance / 20;\n        uint256 masterAmount = twentieth * 14; // 70%\n        uint256 memberAmount = twentieth * 3; // 15%\n        payable(multisigManager.getMemberA()).transfer(memberAmount);\n        payable(multisigManager.getMemberB()).transfer(memberAmount);\n        payable(masterWallet).transfer(masterAmount);\n        emit Withdrawn();\n    }\n\n    function setMasterWallet(address _masterWallet) external {\n        //Set address of master wallet contract\n        require(multisigManager.senderIsMaster(msg.sender));\n        require(multisigManager.checkAllPermission(\"setMW\"));\n        masterWallet = _masterWallet;\n        multisigManager.resetFunctionPermission(\"setMW\");\n        emit MasterWalletSet(_masterWallet);\n    }\n    \n    function getContractBalance() external view returns(uint256 balance) {\n        require(multisigManager.senderIsMasterOrMember(msg.sender));\n        return address(this).balance;\n    }\n\n    function getMasterWallet() external view returns(address masterWalletAddress) {\n        require(multisigManager.senderIsMasterOrMember(msg.sender));\n        return masterWallet;\n    }\n}",
  "sourcePath": "/home/zion/Projekte/nft-arena/contracts/Accountant.sol",
  "compiler": {
    "name": "solc",
    "version": "0.8.9+commit.e5eed63a.Emscripten.clang"
  },
  "schemaVersion": "3.4.3",
  "updatedAt": "2022-04-07T15:46:41.828Z",
  "networkType": "ethereum",
  "devdoc": {
    "kind": "dev",
    "methods": {},
    "version": 1
  },
  "userdoc": {
    "kind": "user",
    "methods": {},
    "version": 1
  }
}