{
  "contractName": "EcosystemFund",
  "abi": [
    {
      "inputs": [
        {
          "internalType": "address",
          "name": "_multisigManager",
          "type": "address"
        },
        {
          "internalType": "address",
          "name": "_nftaToken",
          "type": "address"
        }
      ],
      "stateMutability": "nonpayable",
      "type": "constructor"
    },
    {
      "anonymous": false,
      "inputs": [
        {
          "indexed": true,
          "internalType": "address",
          "name": "target",
          "type": "address"
        }
      ],
      "name": "PermissionResetted",
      "type": "event"
    },
    {
      "anonymous": false,
      "inputs": [
        {
          "indexed": true,
          "internalType": "address",
          "name": "eventAddress",
          "type": "address"
        },
        {
          "indexed": false,
          "internalType": "bool",
          "name": "approved",
          "type": "bool"
        }
      ],
      "name": "SwitchedEventApprovement",
      "type": "event"
    },
    {
      "anonymous": false,
      "inputs": [
        {
          "indexed": true,
          "internalType": "address",
          "name": "target",
          "type": "address"
        },
        {
          "indexed": false,
          "internalType": "bool",
          "name": "permitted",
          "type": "bool"
        }
      ],
      "name": "SwitchedMasterPermission",
      "type": "event"
    },
    {
      "anonymous": false,
      "inputs": [
        {
          "indexed": true,
          "internalType": "address",
          "name": "target",
          "type": "address"
        },
        {
          "indexed": false,
          "internalType": "bool",
          "name": "permitted",
          "type": "bool"
        }
      ],
      "name": "SwitchedMemberAPermission",
      "type": "event"
    },
    {
      "anonymous": false,
      "inputs": [
        {
          "indexed": true,
          "internalType": "address",
          "name": "target",
          "type": "address"
        },
        {
          "indexed": false,
          "internalType": "bool",
          "name": "permitted",
          "type": "bool"
        }
      ],
      "name": "SwitchedMemberBPermission",
      "type": "event"
    },
    {
      "anonymous": false,
      "inputs": [
        {
          "indexed": false,
          "internalType": "uint256",
          "name": "amount",
          "type": "uint256"
        }
      ],
      "name": "Withdrawn",
      "type": "event"
    },
    {
      "inputs": [
        {
          "internalType": "uint256",
          "name": "amount",
          "type": "uint256"
        }
      ],
      "name": "withdrawToken",
      "outputs": [],
      "stateMutability": "nonpayable",
      "type": "function"
    },
    {
      "inputs": [
        {
          "internalType": "address",
          "name": "eventAddress",
          "type": "address"
        }
      ],
      "name": "switchEventApprovement",
      "outputs": [],
      "stateMutability": "nonpayable",
      "type": "function"
    },
    {
      "inputs": [
        {
          "internalType": "address",
          "name": "target",
          "type": "address"
        }
      ],
      "name": "switchMasterPermission",
      "outputs": [],
      "stateMutability": "nonpayable",
      "type": "function"
    },
    {
      "inputs": [
        {
          "internalType": "address",
          "name": "target",
          "type": "address"
        }
      ],
      "name": "switchMemberAPermission",
      "outputs": [],
      "stateMutability": "nonpayable",
      "type": "function"
    },
    {
      "inputs": [
        {
          "internalType": "address",
          "name": "target",
          "type": "address"
        }
      ],
      "name": "switchMemberBPermission",
      "outputs": [],
      "stateMutability": "nonpayable",
      "type": "function"
    },
    {
      "inputs": [
        {
          "internalType": "address",
          "name": "target",
          "type": "address"
        }
      ],
      "name": "isEventApproved",
      "outputs": [
        {
          "internalType": "bool",
          "name": "approved",
          "type": "bool"
        }
      ],
      "stateMutability": "view",
      "type": "function",
      "constant": true
    },
    {
      "inputs": [
        {
          "internalType": "address",
          "name": "target",
          "type": "address"
        }
      ],
      "name": "checkAddressPermission",
      "outputs": [
        {
          "internalType": "bool",
          "name": "permission",
          "type": "bool"
        }
      ],
      "stateMutability": "view",
      "type": "function",
      "constant": true
    }
  ],
  "bytecode": "0x608060405234801561001057600080fd5b5060405161090038038061090083398101604081905261002f9161007c565b600080546001600160a01b039384166001600160a01b031991821617909155600180549290931691161790556100af565b80516001600160a01b038116811461007757600080fd5b919050565b6000806040838503121561008f57600080fd5b61009883610060565b91506100a660208401610060565b90509250929050565b610842806100be6000396000f3fe608060405234801561001057600080fd5b506004361061007d5760003560e01c806350baa6221161005b57806350baa622146100ea5780635cbed6b6146100fd5780636b8b60481461011057806393566b981461012357600080fd5b80632001cab2146100825780632c0c427a146100c25780634b11ac4e146100d7575b600080fd5b6100ae610090366004610777565b6001600160a01b031660009081526002602052604090205460ff1690565b604051901515815260200160405180910390f35b6100d56100d0366004610777565b610136565b005b6100d56100e5366004610777565b610225565b6100d56100f836600461079b565b61033c565b6100ae61010b366004610777565b6104ac565b6100d561011e366004610777565b610516565b6100d5610131366004610777565b610605565b600054604051638d84233160e01b81523360048201526001600160a01b0390911690638d8423319060240160206040518083038186803b15801561017957600080fd5b505afa15801561018d573d6000803e3d6000fd5b505050506040513d601f19601f820116820180604052508101906101b191906107b4565b6101ba57600080fd5b6001600160a01b03811660008181526005602052604090819020805460ff19811660ff9182161590811790925591517f36edb5983c66d201aaf2a6cbf040d5228bb077601043b2f6416db4c4b870f9bd9261021a92161515815260200190565b60405180910390a250565b6000546040516366bd542360e11b81523360048201526001600160a01b039091169063cd7aa8469060240160206040518083038186803b15801561026857600080fd5b505afa15801561027c573d6000803e3d6000fd5b505050506040513d601f19601f820116820180604052508101906102a091906107b4565b6102a957600080fd5b6102b2816104ac565b6102bb57600080fd5b6001600160a01b0381166000908152600260205260409020805460ff19811660ff909116151790556102ec816106f4565b6001600160a01b03811660008181526002602090815260409182902054915160ff909216151582527f168fd51fcfa501ebf41ff9e8e286a50532443af1bdf057b7934946af37b34595910161021a565b3360009081526002602052604090205460ff1661035857600080fd5b3332141561036557600080fd5b6001546040516370a0823160e01b81523060048201526000916001600160a01b0316906370a082319060240160206040518083038186803b1580156103a957600080fd5b505afa1580156103bd573d6000803e3d6000fd5b505050506040513d601f19601f820116820180604052508101906103e191906107d6565b9050808211156103f057600080fd5b60015460405163a9059cbb60e01b8152336004820152602481018490526001600160a01b039091169063a9059cbb90604401602060405180830381600087803b15801561043c57600080fd5b505af1158015610450573d6000803e3d6000fd5b505050506040513d601f19601f8201168201806040525081019061047491906107b4565b506040518281527f430648de173157e069201c943adb2d4e340e7cf5b27b1b09c9cb852f03d63b569060200160405180910390a15050565b6001600160a01b03811660009081526005602052604081205460ff1680156104ec57506001600160a01b03821660009081526003602052604090205460ff165b801561051057506001600160a01b03821660009081526004602052604090205460ff165b92915050565b60005460408051635f032b1760e01b8152905133926001600160a01b031691635f032b17916004808301926020929190829003018186803b15801561055a57600080fd5b505afa15801561056e573d6000803e3d6000fd5b505050506040513d601f19601f8201168201806040525081019061059291906107ef565b6001600160a01b0316146105a557600080fd5b6001600160a01b03811660008181526003602052604090819020805460ff19811660ff9182161590811790925591517fac3897e75590c3587fb4ae74110dd1e081730db630a65a7b629ec3ee48be8a159261021a92161515815260200190565b600054604080516356cd73c760e01b8152905133926001600160a01b0316916356cd73c7916004808301926020929190829003018186803b15801561064957600080fd5b505afa15801561065d573d6000803e3d6000fd5b505050506040513d601f19601f8201168201806040525081019061068191906107ef565b6001600160a01b03161461069457600080fd5b6001600160a01b03811660008181526004602052604090819020805460ff19811660ff9182161590811790925591517fa0281367199fedf5bf1e3b969b4d96b14eb5b783c02bf07e272cb93d37e11cc79261021a92161515815260200190565b6001600160a01b0381166000818152600560209081526040808320805460ff199081169091556003835281842080548216905560049092528083208054909216909155517f411c74aae5e1f4d0a320ec6d5c9840c2b42af9c8e7defa3bf8fc1d93302f6c319190a250565b6001600160a01b038116811461077457600080fd5b50565b60006020828403121561078957600080fd5b81356107948161075f565b9392505050565b6000602082840312156107ad57600080fd5b5035919050565b6000602082840312156107c657600080fd5b8151801515811461079457600080fd5b6000602082840312156107e857600080fd5b5051919050565b60006020828403121561080157600080fd5b81516107948161075f56fea2646970667358221220aa3e6ffa0a7c02578f871560521a78375230e85fe8ca9973ac7a3361b14daa3364736f6c63430008090033",
  "immutableReferences": {},
  "source": "// SPDX-License-Identifier: MIT\npragma solidity ^0.8.0;\n\nimport \"./MultisigManager.sol\";\nimport \"./NFTAToken.sol\";\n\ncontract EcosystemFund {\n    MultisigManager private multisigManager;\n    NFTAToken private nftaToken;\n    mapping(address => bool) private approvedEvents;\n    mapping(address => bool) private memberAPermission;\n    mapping(address => bool) private memberBPermission;\n    mapping(address => bool) private masterPermission;\n\n    event Withdrawn(uint256 amount);\n    event SwitchedEventApprovement(address indexed eventAddress, bool approved);\n    event SwitchedMasterPermission(address indexed target, bool permitted);\n    event SwitchedMemberAPermission(address indexed target, bool permitted);\n    event SwitchedMemberBPermission(address indexed target, bool permitted);\n    event PermissionResetted(address indexed target);\n    \n    constructor(address _multisigManager, address _nftaToken) {\n        multisigManager = MultisigManager(_multisigManager);\n        nftaToken = NFTAToken(_nftaToken);\n    }\n\n    function withdrawToken(uint256 amount) external {\n        //Check if event is approved and sender is contract\n        require(isEventApproved(msg.sender));\n        require(msg.sender != tx.origin);\n\n        //Check contract balance\n        uint256 contractBalance = nftaToken.balanceOf(address(this));\n        require(amount <= contractBalance);\n\n        //Transfer tokens to event\n        nftaToken.transfer(msg.sender, amount);\n        emit Withdrawn(amount);\n    }\n\n    function switchEventApprovement(address eventAddress) external {\n        require(multisigManager.senderIsMasterOrMember(msg.sender));\n        require(checkAddressPermission(eventAddress));\n        approvedEvents[eventAddress] = !approvedEvents[eventAddress];\n        resetAddressPermission(eventAddress);\n        emit SwitchedEventApprovement(eventAddress, approvedEvents[eventAddress]);\n    }\n\n    //Permission switches for master and members\n    function switchMasterPermission(address target) external {\n        require(multisigManager.senderIsMaster(msg.sender));\n        masterPermission[target] = !masterPermission[target];\n        emit SwitchedMasterPermission(target, masterPermission[target]);\n    }\n    \n    function switchMemberAPermission(address target) external {\n        require(multisigManager.getMemberA() == msg.sender);\n        memberAPermission[target] = !memberAPermission[target];\n        emit SwitchedMemberAPermission(target, memberAPermission[target]);\n    }\n\n    function switchMemberBPermission(address target) external {\n        require(multisigManager.getMemberB() == msg.sender);\n        memberBPermission[target] = !memberBPermission[target];\n        emit SwitchedMemberBPermission(target, memberBPermission[target]);\n    }\n\n    //Reset permissions for contracts address permission\n    function resetAddressPermission(address target) private {\n        masterPermission[target] = false;\n        memberAPermission[target] = false;\n        memberBPermission[target] = false;\n        emit PermissionResetted(target);\n    }\n\n    //Check address permission function\n    function isEventApproved(address target) public view returns(bool approved) {\n        return approvedEvents[target];\n    }\n    \n    function checkAddressPermission(address target) public view returns (bool permission) {\n        return (masterPermission[target] && memberAPermission[target] && memberBPermission[target]);\n    }\n}",
  "sourcePath": "/home/zion/Projekte/nft-arena/contracts/EcosystemFund.sol",
  "compiler": {
    "name": "solc",
    "version": "0.8.9+commit.e5eed63a.Emscripten.clang"
  },
  "schemaVersion": "3.4.3",
  "updatedAt": "2022-04-07T15:46:41.833Z",
  "networkType": "ethereum",
  "devdoc": {
    "kind": "dev",
    "methods": {},
    "version": 1
  },
  "userdoc": {
    "kind": "user",
    "methods": {},
    "version": 1
  }
}