{
  "contractName": "MarketingFund",
  "abi": [
    {
      "inputs": [
        {
          "internalType": "address",
          "name": "_multisigManager",
          "type": "address"
        },
        {
          "internalType": "address",
          "name": "_nftaToken",
          "type": "address"
        }
      ],
      "stateMutability": "nonpayable",
      "type": "constructor"
    },
    {
      "anonymous": false,
      "inputs": [
        {
          "indexed": true,
          "internalType": "address",
          "name": "target",
          "type": "address"
        },
        {
          "indexed": false,
          "internalType": "uint256",
          "name": "amount",
          "type": "uint256"
        }
      ],
      "name": "TokensTransferred",
      "type": "event"
    },
    {
      "anonymous": false,
      "inputs": [
        {
          "indexed": false,
          "internalType": "uint256",
          "name": "limit",
          "type": "uint256"
        }
      ],
      "name": "TransferLimitChanged",
      "type": "event"
    },
    {
      "inputs": [
        {
          "internalType": "address",
          "name": "target",
          "type": "address"
        },
        {
          "internalType": "uint256",
          "name": "amount",
          "type": "uint256"
        }
      ],
      "name": "transferTokens",
      "outputs": [],
      "stateMutability": "nonpayable",
      "type": "function"
    },
    {
      "inputs": [
        {
          "internalType": "uint256",
          "name": "newLimit",
          "type": "uint256"
        }
      ],
      "name": "setTransferLimit",
      "outputs": [],
      "stateMutability": "nonpayable",
      "type": "function"
    },
    {
      "inputs": [],
      "name": "getTransferLimit",
      "outputs": [
        {
          "internalType": "uint256",
          "name": "limit",
          "type": "uint256"
        }
      ],
      "stateMutability": "view",
      "type": "function",
      "constant": true
    }
  ],
  "bytecode": "0x608060405234801561001057600080fd5b5060405161099c38038061099c83398101604081905261002f9161008a565b600080546001600160a01b039384166001600160a01b0319918216179091556001805492909316911617905569152d02c7e14af68000006002556100bd565b80516001600160a01b038116811461008557600080fd5b919050565b6000806040838503121561009d57600080fd5b6100a68361006e565b91506100b46020840161006e565b90509250929050565b6108d0806100cc6000396000f3fe608060405234801561001057600080fd5b50600436106100415760003560e01c80636a2ae983146100465780637a17feff14610060578063bec3fa1714610075575b600080fd5b61004e610088565b60405190815260200160405180910390f35b61007361006e3660046107de565b610114565b005b61007361008336600461080f565b6102ec565b600080546040516366bd542360e11b81523360048201526001600160a01b039091169063cd7aa8469060240160206040518083038186803b1580156100cc57600080fd5b505afa1580156100e0573d6000803e3d6000fd5b505050506040513d601f19601f82011682018060405250810190610104919061083b565b61010d57600080fd5b5060025490565b6000546040516366bd542360e11b81523360048201526001600160a01b039091169063cd7aa8469060240160206040518083038186803b15801561015757600080fd5b505afa15801561016b573d6000803e3d6000fd5b505050506040513d601f19601f8201168201806040525081019061018f919061083b565b61019857600080fd5b600054604051634a36d88560e01b81526020600482015260086024820152671cd95d131a5b5a5d60c21b60448201526001600160a01b0390911690634a36d8859060640160206040518083038186803b1580156101f457600080fd5b505afa158015610208573d6000803e3d6000fd5b505050506040513d601f19601f8201168201806040525081019061022c919061083b565b61023557600080fd5b600281905560005460405163538f20d960e01b81526020600482015260086024820152671cd95d131a5b5a5d60c21b60448201526001600160a01b039091169063538f20d990606401600060405180830381600087803b15801561029857600080fd5b505af11580156102ac573d6000803e3d6000fd5b505050507feeb658b34c584825b38afd7181ad4367613fc80200578dea9b30eea85746f871816040516102e191815260200190565b60405180910390a150565b6000546040516325c603b760e01b81523360048201526001600160a01b03909116906325c603b79060240160206040518083038186803b15801561032f57600080fd5b505afa158015610343573d6000803e3d6000fd5b505050506040513d601f19601f82011682018060405250810190610367919061083b565b61037057600080fd5b600054604051630ac1a7f960e31b81526020600482015260086024820152673a3930b739b332b960c11b60448201526001600160a01b039091169063560d3fc89060640160206040518083038186803b1580156103cc57600080fd5b505afa1580156103e0573d6000803e3d6000fd5b505050506040513d601f19601f82011682018060405250810190610404919061083b565b61040d57600080fd5b600060025411801561042157506002548111155b61042a57600080fd5b60008054906101000a90046001600160a01b03166001600160a01b0316635f032b176040518163ffffffff1660e01b815260040160206040518083038186803b15801561047657600080fd5b505afa15801561048a573d6000803e3d6000fd5b505050506040513d601f19601f820116820180604052508101906104ae9190610864565b6001600160a01b0316826001600160a01b031614158015610564575060008054906101000a90046001600160a01b03166001600160a01b03166356cd73c76040518163ffffffff1660e01b815260040160206040518083038186803b15801561051657600080fd5b505afa15801561052a573d6000803e3d6000fd5b505050506040513d601f19601f8201168201806040525081019061054e9190610864565b6001600160a01b0316826001600160a01b031614155b8015610605575060008054906101000a90046001600160a01b03166001600160a01b0316638da5cb5b6040518163ffffffff1660e01b815260040160206040518083038186803b1580156105b757600080fd5b505afa1580156105cb573d6000803e3d6000fd5b505050506040513d601f19601f820116820180604052508101906105ef9190610864565b6001600160a01b0316826001600160a01b031614155b61060e57600080fd5b6001546040516370a0823160e01b81523060048201526000916001600160a01b0316906370a082319060240160206040518083038186803b15801561065257600080fd5b505afa158015610666573d6000803e3d6000fd5b505050506040513d601f19601f8201168201806040525081019061068a9190610881565b90508082111561069957600080fd5b60015460405163a9059cbb60e01b81526001600160a01b038581166004830152602482018590529091169063a9059cbb90604401602060405180830381600087803b1580156106e757600080fd5b505af11580156106fb573d6000803e3d6000fd5b505050506040513d601f19601f8201168201806040525081019061071f919061083b565b5060005460405163538f20d960e01b81526020600482015260086024820152673a3930b739b332b960c11b60448201526001600160a01b039091169063538f20d990606401600060405180830381600087803b15801561077e57600080fd5b505af1158015610792573d6000803e3d6000fd5b50505050826001600160a01b03167f12f4533b5cbd2c9f8a0752a2d0b16379af992dbb2a0844a5007a19d983b3a934836040516107d191815260200190565b60405180910390a2505050565b6000602082840312156107f057600080fd5b5035919050565b6001600160a01b038116811461080c57600080fd5b50565b6000806040838503121561082257600080fd5b823561082d816107f7565b946020939093013593505050565b60006020828403121561084d57600080fd5b8151801515811461085d57600080fd5b9392505050565b60006020828403121561087657600080fd5b815161085d816107f7565b60006020828403121561089357600080fd5b505191905056fea26469706673582212201678f1145fc54ab1006986bcb9555513a3ac16c059184fc43b04580d2635d4d664736f6c63430008090033",
  "immutableReferences": {},
  "source": "// SPDX-License-Identifier: MIT\npragma solidity ^0.8.0;\n\nimport \"./MultisigManager.sol\";\nimport \"./NFTAToken.sol\";\n\ncontract MarketingFund {\n    MultisigManager private multisigManager;\n    NFTAToken private nftaToken;\n    uint256 private transferLimit;\n\n    event TokensTransferred(address indexed target, uint256 amount);\n    event TransferLimitChanged(uint256 limit);\n    \n    constructor(address _multisigManager, address _nftaToken) {\n        multisigManager = MultisigManager(_multisigManager);\n        nftaToken = NFTAToken(_nftaToken);\n        transferLimit = 100000 * 10**18;\n    }\n\n    function transferTokens(address target, uint256 amount) external {\n        //Check requirements\n        require(multisigManager.senderIsMember(msg.sender));\n        require(multisigManager.checkMemberPermission(\"transfer\"));\n        require(transferLimit > 0 && amount <= transferLimit);\n        require(target != multisigManager.getMemberA() && target != multisigManager.getMemberB() && target != multisigManager.owner());\n        \n        //Check contract balance\n        uint256 contractBalance = nftaToken.balanceOf(address(this));\n        require(amount <= contractBalance);\n\n        //Transfer tokens\n        nftaToken.transfer(target, amount);\n\n        //Reset function permission\n        multisigManager.resetFunctionPermission(\"transfer\");\n        emit TokensTransferred(target, amount);\n    }\n\n    function setTransferLimit(uint256 newLimit) external {\n        require(multisigManager.senderIsMasterOrMember(msg.sender));\n        require(multisigManager.checkAllPermission(\"setLimit\"));\n        transferLimit = newLimit;\n        multisigManager.resetFunctionPermission(\"setLimit\");\n        emit TransferLimitChanged(newLimit);\n    }\n\n    function getTransferLimit() external view returns(uint256 limit) {\n        require(multisigManager.senderIsMasterOrMember(msg.sender));\n        return transferLimit;\n    }\n}",
  "sourcePath": "/home/zion/Projekte/nft-arena/contracts/MarketingFund.sol",
  "compiler": {
    "name": "solc",
    "version": "0.8.9+commit.e5eed63a.Emscripten.clang"
  },
  "schemaVersion": "3.4.3",
  "updatedAt": "2022-04-07T15:46:41.830Z",
  "networkType": "ethereum",
  "devdoc": {
    "kind": "dev",
    "methods": {},
    "version": 1
  },
  "userdoc": {
    "kind": "user",
    "methods": {},
    "version": 1
  }
}