{
  "contractName": "MasterWallet",
  "abi": [
    {
      "inputs": [
        {
          "internalType": "address",
          "name": "_multisigManager",
          "type": "address"
        },
        {
          "internalType": "address payable",
          "name": "_teamFund",
          "type": "address"
        }
      ],
      "stateMutability": "nonpayable",
      "type": "constructor"
    },
    {
      "anonymous": false,
      "inputs": [
        {
          "indexed": true,
          "internalType": "address",
          "name": "target",
          "type": "address"
        },
        {
          "indexed": false,
          "internalType": "uint256",
          "name": "etherAmount",
          "type": "uint256"
        }
      ],
      "name": "ChangedLPAmount",
      "type": "event"
    },
    {
      "anonymous": false,
      "inputs": [
        {
          "indexed": true,
          "internalType": "address",
          "name": "target",
          "type": "address"
        },
        {
          "indexed": false,
          "internalType": "bool",
          "name": "permitted",
          "type": "bool"
        }
      ],
      "name": "SwitchedTargetPermission",
      "type": "event"
    },
    {
      "anonymous": false,
      "inputs": [
        {
          "indexed": true,
          "internalType": "address",
          "name": "target",
          "type": "address"
        },
        {
          "indexed": false,
          "internalType": "uint256",
          "name": "amount",
          "type": "uint256"
        }
      ],
      "name": "Transferred",
      "type": "event"
    },
    {
      "anonymous": false,
      "inputs": [
        {
          "indexed": false,
          "internalType": "uint256",
          "name": "amount",
          "type": "uint256"
        }
      ],
      "name": "Withdrawn",
      "type": "event"
    },
    {
      "stateMutability": "payable",
      "type": "fallback",
      "payable": true
    },
    {
      "stateMutability": "payable",
      "type": "receive",
      "payable": true
    },
    {
      "inputs": [
        {
          "internalType": "uint256",
          "name": "amount",
          "type": "uint256"
        }
      ],
      "name": "withdraw",
      "outputs": [],
      "stateMutability": "nonpayable",
      "type": "function"
    },
    {
      "inputs": [
        {
          "internalType": "address",
          "name": "target",
          "type": "address"
        },
        {
          "internalType": "uint256",
          "name": "amount",
          "type": "uint256"
        }
      ],
      "name": "secureTransfer",
      "outputs": [],
      "stateMutability": "nonpayable",
      "type": "function"
    },
    {
      "inputs": [
        {
          "internalType": "uint256",
          "name": "etherPrice",
          "type": "uint256"
        }
      ],
      "name": "initLiquidityProvider",
      "outputs": [],
      "stateMutability": "nonpayable",
      "type": "function"
    },
    {
      "inputs": [
        {
          "internalType": "uint256",
          "name": "weiAmount",
          "type": "uint256"
        }
      ],
      "name": "setLPAmountAgreement",
      "outputs": [],
      "stateMutability": "nonpayable",
      "type": "function"
    },
    {
      "inputs": [
        {
          "internalType": "address",
          "name": "target",
          "type": "address"
        }
      ],
      "name": "switchTargetPermission",
      "outputs": [],
      "stateMutability": "nonpayable",
      "type": "function"
    },
    {
      "inputs": [
        {
          "internalType": "address",
          "name": "target",
          "type": "address"
        }
      ],
      "name": "checkLPAmountAgreement",
      "outputs": [
        {
          "internalType": "uint256",
          "name": "result",
          "type": "uint256"
        }
      ],
      "stateMutability": "view",
      "type": "function",
      "constant": true
    },
    {
      "inputs": [],
      "name": "checkLPInitialized",
      "outputs": [
        {
          "internalType": "bool",
          "name": "result",
          "type": "bool"
        }
      ],
      "stateMutability": "view",
      "type": "function",
      "constant": true
    }
  ],
  "bytecode": "0x608060405234801561001057600080fd5b50604051620017323803806200173283398101604081905261003191610081565b600080546001600160a01b039384166001600160a01b0319909116179055600180546001600160a81b031916919092161790556100bb565b6001600160a01b038116811461007e57600080fd5b50565b6000806040838503121561009457600080fd5b825161009f81610069565b60208401519092506100b081610069565b809150509250929050565b61166780620000cb6000396000f3fe60806040526004361061006e5760003560e01c8063844a181c1161004b578063844a181c146100e6578063c55c561b14610106578063d022937b14610134578063d8d1f38f1461015457005b806304ae971d146100775780632e1a7d4d146100a65780636a472852146100c657005b3661007557005b005b34801561008357600080fd5b50600154600160a01b900460ff1660405190151581526020015b60405180910390f35b3480156100b257600080fd5b506100756100c13660046114e5565b610174565b3480156100d257600080fd5b506100756100e13660046114e5565b610563565b3480156100f257600080fd5b506100756101013660046114e5565b610d6d565b34801561011257600080fd5b50610126610121366004611516565b610e31565b60405190815260200161009d565b34801561014057600080fd5b5061007561014f366004611516565b610ec3565b34801561016057600080fd5b5061007561016f36600461153a565b6110a6565b6000546040516325c603b760e01b81523360048201526001600160a01b03909116906325c603b790602401602060405180830381865afa1580156101bc573d6000803e3d6000fd5b505050506040513d601f19601f820116820180604052508101906101e09190611566565b61024e5760405162461bcd60e51b815260206004820152603460248201527f596f7520617265206e6f7420617574686f72697a656420746f2063616c6c20746044820152733432903bb4ba34323930bb90333ab731ba34b7b760611b60648201526084015b60405180910390fd5b600054604051630ac1a7f960e31b8152602060048201526008602482015267776974686472617760c01b60448201526001600160a01b039091169063560d3fc890606401602060405180830381865afa1580156102af573d6000803e3d6000fd5b505050506040513d601f19601f820116820180604052508101906102d39190611566565b61032b5760405162461bcd60e51b815260206004820152602360248201527f57697468647261772066756e6374696f6e206973206e6f7420617574686f72696044820152621e995960ea1b6064820152608401610245565b80471015801561033b5750600081115b6103985760405162461bcd60e51b815260206004820152602860248201527f576974686472617720616d6f756e74206578636565647320636f6e74726163746044820152672062616c616e636560c01b6064820152608401610245565b600154600160a01b900460ff166103c15760405162461bcd60e51b815260040161024590611588565b60006103ce6002836115cd565b905060008054906101000a90046001600160a01b03166001600160a01b0316635f032b176040518163ffffffff1660e01b8152600401602060405180830381865afa158015610421573d6000803e3d6000fd5b505050506040513d601f19601f8201168201806040525081019061044591906115ef565b6001600160a01b03166108fc829081150290604051600060405180830381858888f1935050505015801561047d573d6000803e3d6000fd5b5060008054906101000a90046001600160a01b03166001600160a01b03166356cd73c76040518163ffffffff1660e01b8152600401602060405180830381865afa1580156104cf573d6000803e3d6000fd5b505050506040513d601f19601f820116820180604052508101906104f391906115ef565b6001600160a01b03166108fc829081150290604051600060405180830381858888f1935050505015801561052b573d6000803e3d6000fd5b506040518281527f430648de173157e069201c943adb2d4e340e7cf5b27b1b09c9cb852f03d63b569060200160405180910390a15050565b600054604051638d84233160e01b81523360048201526001600160a01b0390911690638d84233190602401602060405180830381865afa1580156105ab573d6000803e3d6000fd5b505050506040513d601f19601f820116820180604052508101906105cf9190611566565b6106345760405162461bcd60e51b815260206004820152603060248201527f596f7520617265206e6f7420617574686f72697a656420746f2063616c6c207460448201526f34329034b734ba10333ab731ba34b7b760811b6064820152608401610245565b600047116106845760405162461bcd60e51b815260206004820152601860248201527f436f6e74726163742062616c616e6365206973207a65726f00000000000000006044820152606401610245565b6000600360008060009054906101000a90046001600160a01b03166001600160a01b0316635f032b176040518163ffffffff1660e01b8152600401602060405180830381865afa1580156106dc573d6000803e3d6000fd5b505050506040513d601f19601f8201168201806040525081019061070091906115ef565b6001600160a01b03166001600160a01b03168152602001908152602001600020541180156107c857506000600360008060009054906101000a90046001600160a01b03166001600160a01b03166356cd73c76040518163ffffffff1660e01b8152600401602060405180830381865afa158015610781573d6000803e3d6000fd5b505050506040513d601f19601f820116820180604052508101906107a591906115ef565b6001600160a01b03166001600160a01b0316815260200190815260200160002054115b801561086e57506000600360008060009054906101000a90046001600160a01b03166001600160a01b0316638da5cb5b6040518163ffffffff1660e01b8152600401602060405180830381865afa158015610827573d6000803e3d6000fd5b505050506040513d601f19601f8201168201806040525081019061084b91906115ef565b6001600160a01b03166001600160a01b0316815260200190815260200160002054115b6108ba5760405162461bcd60e51b815260206004820152601f60248201527f536f6d6520616d6f756e742061677265656d656e747320617265207a65726f006044820152606401610245565b60008054604080516356cd73c760e01b81529051600393926001600160a01b0316916356cd73c79160048083019260209291908290030181865afa158015610906573d6000803e3d6000fd5b505050506040513d601f19601f8201168201806040525081019061092a91906115ef565b6001600160a01b03166001600160a01b0316815260200190815260200160002054600360008060009054906101000a90046001600160a01b03166001600160a01b0316635f032b176040518163ffffffff1660e01b8152600401602060405180830381865afa1580156109a1573d6000803e3d6000fd5b505050506040513d601f19601f820116820180604052508101906109c591906115ef565b6001600160a01b03166001600160a01b0316815260200190815260200160002054148015610b1c57506000805460408051638da5cb5b60e01b81529051600393926001600160a01b031691638da5cb5b9160048083019260209291908290030181865afa158015610a3a573d6000803e3d6000fd5b505050506040513d601f19601f82011682018060405250810190610a5e91906115ef565b6001600160a01b03166001600160a01b0316815260200190815260200160002054600360008060009054906101000a90046001600160a01b03166001600160a01b03166356cd73c76040518163ffffffff1660e01b8152600401602060405180830381865afa158015610ad5573d6000803e3d6000fd5b505050506040513d601f19601f82011682018060405250810190610af991906115ef565b6001600160a01b03166001600160a01b0316815260200190815260200160002054145b610b685760405162461bcd60e51b815260206004820152601f60248201527f416d6f756e742061677265656d656e747320617265206e6f7420657175616c006044820152606401610245565b47600360008060009054906101000a90046001600160a01b03166001600160a01b0316638da5cb5b6040518163ffffffff1660e01b8152600401602060405180830381865afa158015610bbf573d6000803e3d6000fd5b505050506040513d601f19601f82011682018060405250810190610be391906115ef565b6001600160a01b03166001600160a01b03168152602001908152602001600020541115610c655760405162461bcd60e51b815260206004820152602a60248201527f436f6e74726163742062616c616e63652069732062656c6f7720616d6f756e74604482015269081859dc99595b595b9d60b21b6064820152608401610245565b6001546000805460408051638da5cb5b60e01b815290516001600160a01b0394851694636a472852946003949093911691638da5cb5b916004808201926020929091908290030181865afa158015610cc1573d6000803e3d6000fd5b505050506040513d601f19601f82011682018060405250810190610ce591906115ef565b6001600160a01b03166001600160a01b0316815260200190815260200160002054836040518363ffffffff1660e01b8152600401610d2591815260200190565b6000604051808303818588803b158015610d3e57600080fd5b505af1158015610d52573d6000803e3d6000fd5b50506001805460ff60a01b1916600160a01b17905550505050565b6000546040516366bd542360e11b81523360048201526001600160a01b039091169063cd7aa84690602401602060405180830381865afa158015610db5573d6000803e3d6000fd5b505050506040513d601f19601f82011682018060405250810190610dd99190611566565b610de257600080fd5b3360008181526003602052604090819020839055517f8a90bbb1f7bf2a3f44e820cc62485ac68cb9c06218d97b2673434f75b155236890610e269084815260200190565b60405180910390a250565b600080546040516366bd542360e11b81523360048201526001600160a01b039091169063cd7aa84690602401602060405180830381865afa158015610e7a573d6000803e3d6000fd5b505050506040513d601f19601f82011682018060405250810190610e9e9190611566565b610ea757600080fd5b506001600160a01b031660009081526003602052604090205490565b6000546040516325c603b760e01b81523360048201526001600160a01b03909116906325c603b790602401602060405180830381865afa158015610f0b573d6000803e3d6000fd5b505050506040513d601f19601f82011682018060405250810190610f2f9190611566565b610f3857600080fd5b600054604051634a36d88560e01b81526020600482015260066024820152651d185c99d95d60d21b60448201526001600160a01b0390911690634a36d88590606401602060405180830381865afa158015610f97573d6000803e3d6000fd5b505050506040513d601f19601f82011682018060405250810190610fbb9190611566565b610fc457600080fd5b6001600160a01b038181166000908152600460208181526040808420805460ff81161560ff199091161790559254925163538f20d960e01b81529182015260066024820152651d185c99d95d60d21b604482015291169063538f20d990606401600060405180830381600087803b15801561103e57600080fd5b505af1158015611052573d6000803e3d6000fd5b505050506001600160a01b03811660008181526004602090815260409182902054915160ff909216151582527f5ba51ca38dcbcad6b66e8ffbc1774fb6880a2245883e8d49ad3a9b47e62d151f9101610e26565b6000546040516325c603b760e01b81523360048201526001600160a01b03909116906325c603b790602401602060405180830381865afa1580156110ee573d6000803e3d6000fd5b505050506040513d601f19601f820116820180604052508101906111129190611566565b61117b5760405162461bcd60e51b815260206004820152603460248201527f596f7520617265206e6f7420617574686f72697a656420746f2063616c6c20746044820152733432903a3930b739b332b910333ab731ba34b7b760611b6064820152608401610245565b600054604051630ac1a7f960e31b81526020600482015260086024820152673a3930b739b332b960c11b60448201526001600160a01b039091169063560d3fc890606401602060405180830381865afa1580156111dc573d6000803e3d6000fd5b505050506040513d601f19601f820116820180604052508101906112009190611566565b6112585760405162461bcd60e51b815260206004820152602360248201527f5472616e736665722066756e6374696f6e206973206e6f7420617574686f72696044820152621e995960ea1b6064820152608401610245565b600154600160a01b900460ff166112815760405162461bcd60e51b815260040161024590611588565b6001600160a01b03821660009081526004602052604090205460ff166112e95760405162461bcd60e51b815260206004820181905260248201527f5472616e7366657220746172676574206973206e6f742076616c6964617465646044820152606401610245565b674563918244f4000081111580156113015750804710155b801561130d5750600081115b6113755760405162461bcd60e51b815260206004820152603360248201527f596f7572207472616e7366657220616d6f756e74206d757374206265206c6f7760448201527232b9103a3430b7101a9032ba3432b917b1373160691b6064820152608401610245565b600060025442611385919061160c565b90506201518081116113ec5760405162461bcd60e51b815260206004820152602a60248201527f596f752063616e206f6e6c79207472616e73666572206f6e63652077697468696044820152696e20323420686f75727360b01b6064820152608401610245565b6040516001600160a01b0384169083156108fc029084906000818181858888f19350505050158015611422573d6000803e3d6000fd5b504260025560005460405163538f20d960e01b81526020600482015260086024820152673a3930b739b332b960c11b60448201526001600160a01b039091169063538f20d990606401600060405180830381600087803b15801561148557600080fd5b505af1158015611499573d6000803e3d6000fd5b50505050826001600160a01b03167fe6d858f14d755446648a6e0c8ab8b5a0f58ccc7920d4c910b0454e4dcd869af0836040516114d891815260200190565b60405180910390a2505050565b6000602082840312156114f757600080fd5b5035919050565b6001600160a01b038116811461151357600080fd5b50565b60006020828403121561152857600080fd5b8135611533816114fe565b9392505050565b6000806040838503121561154d57600080fd5b8235611558816114fe565b946020939093013593505050565b60006020828403121561157857600080fd5b8151801515811461153357600080fd5b60208082526025908201527f4c69717569646974792070726f7669646572206973206e6f7420696e697469616040820152641b1a5e995960da1b606082015260800190565b6000826115ea57634e487b7160e01b600052601260045260246000fd5b500490565b60006020828403121561160157600080fd5b8151611533816114fe565b60008282101561162c57634e487b7160e01b600052601160045260246000fd5b50039056fea2646970667358221220b0ab33f37f52699df3e0038e8b9f94c79cd43d6257fc97afba5e7e6098637d9364736f6c634300080d0033",
  "immutableReferences": {},
  "source": "// SPDX-License-Identifier: MIT\npragma solidity ^0.8.0;\n\nimport \"./MultisigManager.sol\";\nimport \"./TeamFund.sol\";\n\ncontract MasterWallet {\n    MultisigManager private multisigManager;\n    TeamFund private teamFund;\n    bool private lpInitialized;\n    uint256 private lastTransfer;\n    mapping(address => uint256) private lpAmountAgreement;\n    mapping(address => bool) private validatedTargets;\n\n    event Withdrawn(uint256 amount);\n    event Transferred(address indexed target, uint256 amount);\n    event ChangedLPAmount(address indexed target, uint256 etherAmount);\n    event SwitchedTargetPermission(address indexed target, bool permitted);\n\n    constructor(address _multisigManager, address payable _teamFund) {\n        multisigManager = MultisigManager(_multisigManager);\n        teamFund = TeamFund(_teamFund);\n        lpInitialized = false;\n    }\n    \n    fallback () external payable {}\n    \n    receive() external payable {}\n\n    function withdraw(uint256 amount) external {\n        require(multisigManager.senderIsMember(msg.sender), \"You are not authorized to call the withdraw function\");\n        require(multisigManager.checkMemberPermission(\"withdraw\"), \"Withdraw function is not authorized\");\n        require(address(this).balance >= amount && amount > 0, \"Withdraw amount exceeds contract balance\");\n        require(lpInitialized, \"Liquidity provider is not initialized\");\n        uint256 halfAmount = amount / 2;\n        payable(multisigManager.getMemberA()).transfer(halfAmount);\n        payable(multisigManager.getMemberB()).transfer(halfAmount);\n        emit Withdrawn(amount);\n    }\n\n    function secureTransfer(address target, uint256 amount) external {\n        require(multisigManager.senderIsMember(msg.sender), \"You are not authorized to call the transfer function\");\n        require(multisigManager.checkMemberPermission(\"transfer\"), \"Transfer function is not authorized\");\n        require(lpInitialized, \"Liquidity provider is not initialized\");\n        require(validatedTargets[target], \"Transfer target is not validated\");\n        require(amount <= 5 ether && address(this).balance >= amount && amount > 0, \"Your transfer amount must be lower than 5 ether/bnb\");\n        uint256 timediff = block.timestamp - lastTransfer;\n        require(timediff > 1 days, \"You can only transfer once within 24 hours\");\n        payable(target).transfer(amount);\n        lastTransfer = block.timestamp;\n        multisigManager.resetFunctionPermission(\"transfer\");\n        emit Transferred(target, amount);\n    }\n\n    function initLiquidityProvider(uint256 etherPrice) external {\n        //Check basic requirements\n        require(multisigManager.senderIsMaster(msg.sender), \"You are not authorized to call the init function\");\n        require(address(this).balance > 0, \"Contract balance is zero\");\n\n        //Check liquidity providing amount is valid and set by master and members\n        require(lpAmountAgreement[multisigManager.getMemberA()] > 0 && lpAmountAgreement[multisigManager.getMemberB()] > 0 && lpAmountAgreement[multisigManager.owner()] > 0, \"Some amount agreements are zero\");\n        require(lpAmountAgreement[multisigManager.getMemberA()] == lpAmountAgreement[multisigManager.getMemberB()] && lpAmountAgreement[multisigManager.getMemberB()] == lpAmountAgreement[multisigManager.owner()], \"Amount agreements are not equal\");\n        require(lpAmountAgreement[multisigManager.owner()] <= address(this).balance, \"Contract balance is below amount agreement\");\n        \n        //Call team fund function to init liquidity provider\n        teamFund.initLiquidityProvider{value: lpAmountAgreement[multisigManager.owner()]}(etherPrice);\n\n        //Finish liquidity provider initialization\n        lpInitialized = true;\n    }\n\n    function setLPAmountAgreement(uint256 weiAmount) external {\n        require(multisigManager.senderIsMasterOrMember(msg.sender));\n        lpAmountAgreement[msg.sender] = weiAmount;\n        emit ChangedLPAmount(msg.sender, weiAmount);\n    }\n\n    function switchTargetPermission(address target) external {\n        require(multisigManager.senderIsMember(msg.sender));\n        require(multisigManager.checkAllPermission(\"target\"));\n        validatedTargets[target] = !validatedTargets[target];\n        multisigManager.resetFunctionPermission(\"target\");\n        emit SwitchedTargetPermission(target, validatedTargets[target]);\n    }\n\n    function checkLPAmountAgreement(address target) external view returns(uint256 result) {\n        require(multisigManager.senderIsMasterOrMember(msg.sender));\n        return lpAmountAgreement[target];\n    }\n\n    function checkLPInitialized() external view returns(bool result) {\n        return lpInitialized;\n    }\n}",
  "sourcePath": "/home/zion/Projekte/nft-arena/contracts/MasterWallet.sol",
  "compiler": {
    "name": "solc",
    "version": "0.8.13+commit.abaa5c0e.Emscripten.clang"
  },
  "schemaVersion": "3.4.3",
  "updatedAt": "2022-04-07T15:46:41.824Z",
  "networkType": "ethereum",
  "devdoc": {
    "kind": "dev",
    "methods": {},
    "version": 1
  },
  "userdoc": {
    "kind": "user",
    "methods": {},
    "version": 1
  }
}