{
  "contractName": "MultisigManager",
  "abi": [
    {
      "inputs": [
        {
          "internalType": "address",
          "name": "_memberA",
          "type": "address"
        },
        {
          "internalType": "address",
          "name": "_memberB",
          "type": "address"
        }
      ],
      "stateMutability": "nonpayable",
      "type": "constructor"
    },
    {
      "anonymous": false,
      "inputs": [
        {
          "indexed": true,
          "internalType": "address",
          "name": "previousOwner",
          "type": "address"
        },
        {
          "indexed": true,
          "internalType": "address",
          "name": "newOwner",
          "type": "address"
        }
      ],
      "name": "OwnershipTransferred",
      "type": "event"
    },
    {
      "anonymous": false,
      "inputs": [
        {
          "indexed": false,
          "internalType": "address",
          "name": "sender",
          "type": "address"
        },
        {
          "indexed": false,
          "internalType": "address",
          "name": "target",
          "type": "address"
        }
      ],
      "name": "TransferredMemberA",
      "type": "event"
    },
    {
      "anonymous": false,
      "inputs": [
        {
          "indexed": false,
          "internalType": "address",
          "name": "sender",
          "type": "address"
        },
        {
          "indexed": false,
          "internalType": "address",
          "name": "target",
          "type": "address"
        }
      ],
      "name": "TransferredMemberB",
      "type": "event"
    },
    {
      "anonymous": false,
      "inputs": [
        {
          "indexed": false,
          "internalType": "address",
          "name": "sender",
          "type": "address"
        },
        {
          "indexed": false,
          "internalType": "address",
          "name": "target",
          "type": "address"
        }
      ],
      "name": "TransferredOwnership",
      "type": "event"
    },
    {
      "inputs": [],
      "name": "owner",
      "outputs": [
        {
          "internalType": "address",
          "name": "",
          "type": "address"
        }
      ],
      "stateMutability": "view",
      "type": "function",
      "constant": true
    },
    {
      "inputs": [
        {
          "internalType": "address",
          "name": "newOwner",
          "type": "address"
        }
      ],
      "name": "transferOwnership",
      "outputs": [],
      "stateMutability": "nonpayable",
      "type": "function"
    },
    {
      "inputs": [
        {
          "internalType": "address",
          "name": "newMemberA",
          "type": "address"
        }
      ],
      "name": "transferMemberA",
      "outputs": [],
      "stateMutability": "nonpayable",
      "type": "function"
    },
    {
      "inputs": [
        {
          "internalType": "address",
          "name": "newMemberB",
          "type": "address"
        }
      ],
      "name": "transferMemberB",
      "outputs": [],
      "stateMutability": "nonpayable",
      "type": "function"
    },
    {
      "inputs": [],
      "name": "renounceOwnership",
      "outputs": [],
      "stateMutability": "view",
      "type": "function",
      "constant": true
    },
    {
      "inputs": [],
      "name": "switchOwnershipPermission",
      "outputs": [],
      "stateMutability": "nonpayable",
      "type": "function"
    },
    {
      "inputs": [],
      "name": "switchMembershipPermission",
      "outputs": [],
      "stateMutability": "nonpayable",
      "type": "function"
    },
    {
      "inputs": [
        {
          "internalType": "address",
          "name": "target",
          "type": "address"
        },
        {
          "internalType": "string",
          "name": "name",
          "type": "string"
        }
      ],
      "name": "switchMasterPermission",
      "outputs": [],
      "stateMutability": "nonpayable",
      "type": "function"
    },
    {
      "inputs": [
        {
          "internalType": "address",
          "name": "target",
          "type": "address"
        },
        {
          "internalType": "string",
          "name": "name",
          "type": "string"
        }
      ],
      "name": "switchMemberAPermission",
      "outputs": [],
      "stateMutability": "nonpayable",
      "type": "function"
    },
    {
      "inputs": [
        {
          "internalType": "address",
          "name": "target",
          "type": "address"
        },
        {
          "internalType": "string",
          "name": "name",
          "type": "string"
        }
      ],
      "name": "switchMemberBPermission",
      "outputs": [],
      "stateMutability": "nonpayable",
      "type": "function"
    },
    {
      "inputs": [
        {
          "internalType": "string",
          "name": "name",
          "type": "string"
        }
      ],
      "name": "resetFunctionPermission",
      "outputs": [],
      "stateMutability": "nonpayable",
      "type": "function"
    },
    {
      "inputs": [
        {
          "internalType": "address",
          "name": "target",
          "type": "address"
        },
        {
          "internalType": "string",
          "name": "name",
          "type": "string"
        }
      ],
      "name": "checkFunctionPermission",
      "outputs": [
        {
          "internalType": "bool",
          "name": "permission",
          "type": "bool"
        }
      ],
      "stateMutability": "view",
      "type": "function",
      "constant": true
    },
    {
      "inputs": [
        {
          "internalType": "address",
          "name": "target",
          "type": "address"
        }
      ],
      "name": "checkTransferOwnershipPermission",
      "outputs": [
        {
          "internalType": "bool",
          "name": "permission",
          "type": "bool"
        }
      ],
      "stateMutability": "view",
      "type": "function",
      "constant": true
    },
    {
      "inputs": [
        {
          "internalType": "address",
          "name": "target",
          "type": "address"
        }
      ],
      "name": "checkTransferMembershipPermission",
      "outputs": [
        {
          "internalType": "bool",
          "name": "permission",
          "type": "bool"
        }
      ],
      "stateMutability": "view",
      "type": "function",
      "constant": true
    },
    {
      "inputs": [
        {
          "internalType": "string",
          "name": "name",
          "type": "string"
        }
      ],
      "name": "checkSingleMemberPermission",
      "outputs": [
        {
          "internalType": "bool",
          "name": "permission",
          "type": "bool"
        }
      ],
      "stateMutability": "view",
      "type": "function",
      "constant": true
    },
    {
      "inputs": [
        {
          "internalType": "string",
          "name": "name",
          "type": "string"
        }
      ],
      "name": "checkMemberPermission",
      "outputs": [
        {
          "internalType": "bool",
          "name": "permission",
          "type": "bool"
        }
      ],
      "stateMutability": "view",
      "type": "function",
      "constant": true
    },
    {
      "inputs": [
        {
          "internalType": "string",
          "name": "name",
          "type": "string"
        }
      ],
      "name": "checkMasterPermission",
      "outputs": [
        {
          "internalType": "bool",
          "name": "permission",
          "type": "bool"
        }
      ],
      "stateMutability": "view",
      "type": "function",
      "constant": true
    },
    {
      "inputs": [
        {
          "internalType": "string",
          "name": "name",
          "type": "string"
        }
      ],
      "name": "checkMasterSingleMemberPermission",
      "outputs": [
        {
          "internalType": "bool",
          "name": "permission",
          "type": "bool"
        }
      ],
      "stateMutability": "view",
      "type": "function",
      "constant": true
    },
    {
      "inputs": [
        {
          "internalType": "string",
          "name": "name",
          "type": "string"
        }
      ],
      "name": "checkAllPermission",
      "outputs": [
        {
          "internalType": "bool",
          "name": "permission",
          "type": "bool"
        }
      ],
      "stateMutability": "view",
      "type": "function",
      "constant": true
    },
    {
      "inputs": [
        {
          "internalType": "address",
          "name": "sender",
          "type": "address"
        }
      ],
      "name": "senderIsMember",
      "outputs": [
        {
          "internalType": "bool",
          "name": "result",
          "type": "bool"
        }
      ],
      "stateMutability": "view",
      "type": "function",
      "constant": true
    },
    {
      "inputs": [
        {
          "internalType": "address",
          "name": "sender",
          "type": "address"
        }
      ],
      "name": "senderIsMasterOrMember",
      "outputs": [
        {
          "internalType": "bool",
          "name": "result",
          "type": "bool"
        }
      ],
      "stateMutability": "view",
      "type": "function",
      "constant": true
    },
    {
      "inputs": [
        {
          "internalType": "address",
          "name": "sender",
          "type": "address"
        }
      ],
      "name": "senderIsMaster",
      "outputs": [
        {
          "internalType": "bool",
          "name": "result",
          "type": "bool"
        }
      ],
      "stateMutability": "view",
      "type": "function",
      "constant": true
    },
    {
      "inputs": [],
      "name": "getMemberA",
      "outputs": [
        {
          "internalType": "address",
          "name": "member",
          "type": "address"
        }
      ],
      "stateMutability": "view",
      "type": "function",
      "constant": true
    },
    {
      "inputs": [],
      "name": "getMemberB",
      "outputs": [
        {
          "internalType": "address",
          "name": "member",
          "type": "address"
        }
      ],
      "stateMutability": "view",
      "type": "function",
      "constant": true
    }
  ],
  "bytecode": "0x608060405234801561001057600080fd5b5060405161115938038061115983398101604081905261002f916100d5565b61003833610069565b600180546001600160a01b039384166001600160a01b03199182161790915560028054929093169116179055610108565b600080546001600160a01b038381166001600160a01b0319831681178455604051919092169283917f8be0079c531659141344cd1fd0a4f28419497f9722a3daafe3b4186f6b6457e09190a35050565b80516001600160a01b03811681146100d057600080fd5b919050565b600080604083850312156100e857600080fd5b6100f1836100b9565b91506100ff602084016100b9565b90509250929050565b611042806101176000396000f3fe608060405234801561001057600080fd5b50600436106101585760003560e01c806373a76750116100c357806398831dfd1161007c57806398831dfd146102dc578063c48a46b6146102ef578063cd7aa846146102f7578063e4dd222e1461030a578063f2fde38b14610312578063f8788b991461032557600080fd5b806373a767501461025d5780637877b0811461027057806380905f40146102835780638d842331146102965780638da5cb5b146102b857806395cea85f146102c957600080fd5b8063538f20d911610115578063538f20d9146101e6578063543eae3c146101f9578063560d3fc81461020c57806356cd73c71461021f5780635f032b1714610244578063715018a61461025557600080fd5b806305ac36651461015d57806312fc14651461018557806325c603b71461019a5780633347fdc0146101ad5780633c337569146101c05780634a36d885146101d3575b600080fd5b61017061016b366004610ed3565b610338565b60405190151581526020015b60405180910390f35b610198610193366004610f2c565b6103de565b005b6101706101a8366004610f7a565b61047c565b6101706101bb366004610ed3565b6104ab565b6101986101ce366004610f7a565b6104c8565b6101706101e1366004610ed3565b61059b565b6101986101f4366004610ed3565b610629565b610198610207366004610f2c565b61072d565b61017061021a366004610ed3565b6107ba565b6002546001600160a01b03165b6040516001600160a01b03909116815260200161017c565b6001546001600160a01b031661022c565b6101986107d7565b61017061026b366004610f2c565b610849565b61017061027e366004610f7a565b610953565b610170610291366004610f7a565b6109b4565b6101706102a4366004610f7a565b6000546001600160a01b0391821691161490565b6000546001600160a01b031661022c565b6101986102d7366004610f7a565b610a15565b6101986102ea366004610f2c565b610ad8565b610198610b52565b610170610305366004610f7a565b610b9f565b610198610be4565b610198610320366004610f7a565b610c31565b610170610333366004610ed3565b610d28565b336000908152600560205260408082209051610355908490610f9c565b9081526040519081900360200190205460ff1680156103d857503360009081526003602052604090819020905161038d908490610f9c565b9081526040519081900360200190205460ff16806103d85750336000908152600460205260409081902090516103c4908490610f9c565b9081526040519081900360200190205460ff165b92915050565b6002546001600160a01b031633146103f557600080fd5b6001600160a01b03821660009081526004602052604090819020905161041c908390610f9c565b908152604080519182900360209081018320546001600160a01b0386166000908152600490925291902060ff9091161591610458908490610f9c565b908152604051908190036020019020805491151560ff199092169190911790555050565b6001546000906001600160a01b03838116911614806103d85750506002546001600160a01b0390811691161490565b33600090815260036020526040808220905161038d908490610f9c565b6000546001600160a01b031633146104fb5760405162461bcd60e51b81526004016104f290610fd7565b60405180910390fd5b6001546001600160a01b031660009081526007602052604090205460ff1661052257600080fd5b600180546001600160a01b03908116600090815260076020908152604091829020805460ff1916905583546001600160a01b0319169285169283179093558051338152928301919091527f176ccb01bbca843e2ed12fc5e8c29f93375a4a8f5553d5064d1d63fafce4989691015b60405180910390a150565b3360009081526005602052604080822090516105b8908490610f9c565b9081526040519081900360200190205460ff1680156106045750336000908152600360205260409081902090516105f0908490610f9c565b9081526040519081900360200190205460ff165b80156103d85750336000908152600460205260409081902090516103c4908490610f9c565b6000546001600160a01b031632148061064c57506001546001600160a01b031632145b8061066157506002546001600160a01b031632145b61066a57600080fd5b3332141561067757600080fd5b336000908152600560205260408082209051610694908490610f9c565b9081526040805160209281900383018120805460ff1916941515949094179093553360009081526003909252812090916106cf908490610f9c565b9081526040805160209281900383018120805460ff19169415159490941790935533600090815260049092528120909161070a908490610f9c565b908152604051908190036020019020805491151560ff1990921691909117905550565b6000546001600160a01b031633146107575760405162461bcd60e51b81526004016104f290610fd7565b6001600160a01b03821660009081526005602052604090819020905161077e908390610f9c565b908152604080519182900360209081018320546001600160a01b0386166000908152600590925291902060ff9091161591610458908490610f9c565b3360009081526003602052604080822090516105f0908490610f9c565b6000546001600160a01b031633146108015760405162461bcd60e51b81526004016104f290610fd7565b60405162461bcd60e51b815260206004820152601e60248201527f4e6f206f776e6572736869702072656e6f756e636520706f737369626c65000060448201526064016104f2565b600080546001600160a01b031633148061086d57506001546001600160a01b031633145b8061088257506002546001600160a01b031633145b61088b57600080fd5b6000546001600160a01b03163314156108df576001600160a01b0383166000908152600560205260409081902090516108c5908490610f9c565b9081526040519081900360200190205460ff1690506103d8565b6001546001600160a01b0316331415610919576001600160a01b0383166000908152600360205260409081902090516108c5908490610f9c565b6002546001600160a01b03163314156103d8576001600160a01b0383166000908152600460205260409081902090516108c5908490610f9c565b600080546001600160a01b031633148061097757506001546001600160a01b031633145b8061098c57506002546001600160a01b031633145b61099557600080fd5b506001600160a01b031660009081526006602052604090205460ff1690565b600080546001600160a01b03163314806109d857506001546001600160a01b031633145b806109ed57506002546001600160a01b031633145b6109f657600080fd5b506001600160a01b031660009081526007602052604090205460ff1690565b6000546001600160a01b03163314610a3f5760405162461bcd60e51b81526004016104f290610fd7565b6002546001600160a01b031660009081526007602052604090205460ff16610a6657600080fd5b600280546001600160a01b03908116600090815260076020908152604091829020805460ff1916905583546001600160a01b0319169285169283179093558051338152928301919091527fc81093df2eaa359eb8b2451809b9b79eeb98e5a660e88c84b9d5c4a5f0008cb29101610590565b6001546001600160a01b03163314610aef57600080fd5b6001600160a01b038216600090815260036020526040908190209051610b16908390610f9c565b908152604080519182900360209081018320546001600160a01b0386166000908152600390925291902060ff9091161591610458908490610f9c565b6001546001600160a01b0316331480610b7557506002546001600160a01b031633145b610b7e57600080fd5b336000908152600760205260409020805460ff19811660ff90911615179055565b600080546001600160a01b0383811691161480610bc957506001546001600160a01b038381169116145b806103d85750506002546001600160a01b0390811691161490565b6001546001600160a01b0316331480610c0757506002546001600160a01b031633145b610c1057600080fd5b336000908152600660205260409020805460ff19811660ff90911615179055565b6000546001600160a01b03163314610c5b5760405162461bcd60e51b81526004016104f290610fd7565b6001546001600160a01b031660009081526006602052604090205460ff168015610c9f57506002546001600160a01b031660009081526006602052604090205460ff165b610ca857600080fd5b6001546001600160a01b03908116600090815260066020526040808220805460ff199081169091556002549093168252902080549091169055610cea81610d45565b604080513381526001600160a01b03831660208201527f850b3df64837d7d518b45f5aa64d104652c3b80eb5b34a8e3d9eb666cb7cdea59101610590565b3360009081526005602052604080822090516103c4908490610f9c565b6000546001600160a01b03163314610d6f5760405162461bcd60e51b81526004016104f290610fd7565b6001600160a01b038116610dd45760405162461bcd60e51b815260206004820152602660248201527f4f776e61626c653a206e6577206f776e657220697320746865207a65726f206160448201526564647265737360d01b60648201526084016104f2565b610ddd81610de0565b50565b600080546001600160a01b038381166001600160a01b0319831681178455604051919092169283917f8be0079c531659141344cd1fd0a4f28419497f9722a3daafe3b4186f6b6457e09190a35050565b634e487b7160e01b600052604160045260246000fd5b600082601f830112610e5757600080fd5b813567ffffffffffffffff80821115610e7257610e72610e30565b604051601f8301601f19908116603f01168101908282118183101715610e9a57610e9a610e30565b81604052838152866020858801011115610eb357600080fd5b836020870160208301376000602085830101528094505050505092915050565b600060208284031215610ee557600080fd5b813567ffffffffffffffff811115610efc57600080fd5b610f0884828501610e46565b949350505050565b80356001600160a01b0381168114610f2757600080fd5b919050565b60008060408385031215610f3f57600080fd5b610f4883610f10565b9150602083013567ffffffffffffffff811115610f6457600080fd5b610f7085828601610e46565b9150509250929050565b600060208284031215610f8c57600080fd5b610f9582610f10565b9392505050565b6000825160005b81811015610fbd5760208186018101518583015201610fa3565b81811115610fcc576000828501525b509190910192915050565b6020808252818101527f4f776e61626c653a2063616c6c6572206973206e6f7420746865206f776e657260408201526060019056fea26469706673582212205b5b2a729594a10870fddbfccddc025b76ce0761c0467804865af74d99877fc964736f6c63430008090033",
  "immutableReferences": {},
  "source": "// SPDX-License-Identifier: MIT\npragma solidity ^0.8.0;\n\nimport \"@openzeppelin/contracts/access/Ownable.sol\";\n\ncontract MultisigManager is Ownable {\n    address private memberA;\n    address private memberB;\n    mapping(address => mapping(string => bool)) private memberAPermission;\n    mapping(address => mapping(string => bool)) private memberBPermission;\n    mapping(address => mapping(string => bool)) private masterPermission;\n    mapping(address => bool) private transferOwnershipPermission;\n    mapping(address => bool) private transferMembershipPermission;\n\n    event TransferredOwnership(address sender, address target);\n    event TransferredMemberA(address sender, address target);\n    event TransferredMemberB(address sender, address target);\n\n    //Init memberA and memberB\n    constructor(address _memberA, address _memberB) {\n        memberA = _memberA;\n        memberB = _memberB;\n    }\n    \n    //Secure ownership transfer\n    function transferOwnership(address newOwner) public override onlyOwner {\n        require(transferOwnershipPermission[memberA] && transferOwnershipPermission[memberB]);\n        transferOwnershipPermission[memberA] = false;\n        transferOwnershipPermission[memberB] = false;\n        super.transferOwnership(newOwner);\n        emit TransferredOwnership(msg.sender, newOwner);\n    }\n    \n    //Secure membership transfer\n    function transferMemberA(address newMemberA) external onlyOwner {\n        require(transferMembershipPermission[memberA]);\n        transferMembershipPermission[memberA] = false;\n        memberA = newMemberA;\n        emit TransferredMemberA(msg.sender, newMemberA);\n    }\n    \n    function transferMemberB(address newMemberB) external onlyOwner {\n        require(transferMembershipPermission[memberB]);\n        transferMembershipPermission[memberB] = false;\n        memberB = newMemberB;\n        emit TransferredMemberB(msg.sender, newMemberB);\n    }\n    \n    //Remove renounceOwnership from Ownable contract\n    function renounceOwnership() public view override onlyOwner {\n        revert(\"No ownership renounce possible\");\n    }\n    \n    //Permission switches for owner- and membership transfer\n    function switchOwnershipPermission() external {\n        require(msg.sender == memberA || msg.sender == memberB);\n        transferOwnershipPermission[msg.sender] = !transferOwnershipPermission[msg.sender];\n    }\n    \n    function switchMembershipPermission() external {\n        require(msg.sender == memberA || msg.sender == memberB);\n        transferMembershipPermission[msg.sender] = !transferMembershipPermission[msg.sender];\n    }\n    \n    //Permission switches for master and members\n    function switchMasterPermission(address target, string memory name) external onlyOwner {\n        masterPermission[target][name] = !masterPermission[target][name];\n    }\n    \n    function switchMemberAPermission(address target, string memory name) external {\n        require(msg.sender == memberA);\n        memberAPermission[target][name] = !memberAPermission[target][name];\n    }\n    \n    function switchMemberBPermission(address target, string memory name) external {\n        require(msg.sender == memberB);\n        memberBPermission[target][name] = !memberBPermission[target][name];\n    }\n\n    //Reset permissions for contracts function permission\n    function resetFunctionPermission(string memory name) external {\n        require(tx.origin == owner() || tx.origin == memberA || tx.origin == memberB);\n        require(msg.sender != tx.origin);\n        masterPermission[msg.sender][name] = false;\n        memberAPermission[msg.sender][name] = false;\n        memberBPermission[msg.sender][name] = false;\n    }\n    \n    //Check transfer permission functions\n    function checkFunctionPermission(address target, string memory name) external view returns(bool permission) {\n        require(msg.sender == owner() || msg.sender == memberA || msg.sender == memberB);\n        if (msg.sender == owner()) {\n            return masterPermission[target][name];\n        } else if (msg.sender == memberA) {\n            return memberAPermission[target][name];\n        } else if (msg.sender == memberB) {\n            return memberBPermission[target][name];\n        }\n    }\n\n    function checkTransferOwnershipPermission(address target) external view returns(bool permission) {\n        require(msg.sender == owner() || msg.sender == memberA || msg.sender == memberB);\n        return transferOwnershipPermission[target];\n    }\n    \n    function checkTransferMembershipPermission(address target) external view returns(bool permission) {\n        require(msg.sender == owner() || msg.sender == memberA || msg.sender == memberB);\n        return transferMembershipPermission[target];\n    }\n    \n    //Check master and members permission functions\n    function checkSingleMemberPermission(string memory name) external view returns (bool permission) {\n        return (memberAPermission[msg.sender][name] || memberBPermission[msg.sender][name]);\n    }\n    \n    function checkMemberPermission(string memory name) external view returns (bool permission) {\n        return (memberAPermission[msg.sender][name] && memberBPermission[msg.sender][name]);\n    }\n    \n    function checkMasterPermission(string memory name) external view returns (bool permission) {\n        return masterPermission[msg.sender][name];\n    }\n    \n    function checkMasterSingleMemberPermission(string memory name) external view returns (bool permission) {\n        return (masterPermission[msg.sender][name] && (memberAPermission[msg.sender][name] || memberBPermission[msg.sender][name]));\n    }\n    \n    function checkAllPermission(string memory name) external view returns (bool permission) {\n        return (masterPermission[msg.sender][name] && memberAPermission[msg.sender][name] && memberBPermission[msg.sender][name]);\n    }\n    \n    //Check role functions\n    function senderIsMember(address sender) external view returns(bool result) {\n        return (sender == memberA || sender == memberB);\n    }\n    \n    function senderIsMasterOrMember(address sender) external view returns(bool result) {\n        return (sender == owner() || sender == memberA || sender == memberB);\n    }\n    \n    function senderIsMaster(address sender) external view returns(bool result) {\n        return (sender == owner());\n    }\n\n    //Getter functions\n    function getMemberA() external view returns(address member) {\n        return memberA;\n    }\n\n    function getMemberB() external view returns(address member) {\n        return memberB;\n    }\n}",
  "sourcePath": "/home/zion/Projekte/nft-arena/contracts/MultisigManager.sol",
  "compiler": {
    "name": "solc",
    "version": "0.8.9+commit.e5eed63a.Emscripten.clang"
  },
  "schemaVersion": "3.4.3",
  "updatedAt": "2022-04-07T15:46:41.810Z",
  "networkType": "ethereum",
  "devdoc": {
    "kind": "dev",
    "methods": {
      "owner()": {
        "details": "Returns the address of the current owner."
      },
      "renounceOwnership()": {
        "details": "Leaves the contract without owner. It will not be possible to call `onlyOwner` functions anymore. Can only be called by the current owner. NOTE: Renouncing ownership will leave the contract without an owner, thereby removing any functionality that is only available to the owner."
      },
      "transferOwnership(address)": {
        "details": "Transfers ownership of the contract to a new account (`newOwner`). Can only be called by the current owner."
      }
    },
    "version": 1
  },
  "userdoc": {
    "kind": "user",
    "methods": {},
    "version": 1
  }
}