{
  "contractName": "MultikeyNFT",
  "abi": [
    {
      "inputs": [
        {
          "internalType": "address",
          "name": "_multisigManager",
          "type": "address"
        }
      ],
      "stateMutability": "nonpayable",
      "type": "constructor"
    },
    {
      "anonymous": false,
      "inputs": [
        {
          "indexed": true,
          "internalType": "address",
          "name": "owner",
          "type": "address"
        },
        {
          "indexed": true,
          "internalType": "address",
          "name": "approved",
          "type": "address"
        },
        {
          "indexed": true,
          "internalType": "uint256",
          "name": "tokenId",
          "type": "uint256"
        }
      ],
      "name": "Approval",
      "type": "event"
    },
    {
      "anonymous": false,
      "inputs": [
        {
          "indexed": true,
          "internalType": "address",
          "name": "owner",
          "type": "address"
        },
        {
          "indexed": true,
          "internalType": "address",
          "name": "operator",
          "type": "address"
        },
        {
          "indexed": false,
          "internalType": "bool",
          "name": "approved",
          "type": "bool"
        }
      ],
      "name": "ApprovalForAll",
      "type": "event"
    },
    {
      "anonymous": false,
      "inputs": [
        {
          "indexed": true,
          "internalType": "address",
          "name": "from",
          "type": "address"
        },
        {
          "indexed": true,
          "internalType": "address",
          "name": "to",
          "type": "address"
        },
        {
          "indexed": true,
          "internalType": "uint256",
          "name": "tokenId",
          "type": "uint256"
        }
      ],
      "name": "Transfer",
      "type": "event"
    },
    {
      "inputs": [
        {
          "internalType": "address",
          "name": "to",
          "type": "address"
        },
        {
          "internalType": "uint256",
          "name": "tokenId",
          "type": "uint256"
        }
      ],
      "name": "approve",
      "outputs": [],
      "stateMutability": "nonpayable",
      "type": "function"
    },
    {
      "inputs": [
        {
          "internalType": "address",
          "name": "owner",
          "type": "address"
        }
      ],
      "name": "balanceOf",
      "outputs": [
        {
          "internalType": "uint256",
          "name": "",
          "type": "uint256"
        }
      ],
      "stateMutability": "view",
      "type": "function",
      "constant": true
    },
    {
      "inputs": [
        {
          "internalType": "uint256",
          "name": "tokenId",
          "type": "uint256"
        }
      ],
      "name": "getApproved",
      "outputs": [
        {
          "internalType": "address",
          "name": "",
          "type": "address"
        }
      ],
      "stateMutability": "view",
      "type": "function",
      "constant": true
    },
    {
      "inputs": [
        {
          "internalType": "address",
          "name": "owner",
          "type": "address"
        },
        {
          "internalType": "address",
          "name": "operator",
          "type": "address"
        }
      ],
      "name": "isApprovedForAll",
      "outputs": [
        {
          "internalType": "bool",
          "name": "",
          "type": "bool"
        }
      ],
      "stateMutability": "view",
      "type": "function",
      "constant": true
    },
    {
      "inputs": [],
      "name": "maxSupply",
      "outputs": [
        {
          "internalType": "uint256",
          "name": "",
          "type": "uint256"
        }
      ],
      "stateMutability": "view",
      "type": "function",
      "constant": true
    },
    {
      "inputs": [],
      "name": "mintPrice",
      "outputs": [
        {
          "internalType": "uint256",
          "name": "",
          "type": "uint256"
        }
      ],
      "stateMutability": "view",
      "type": "function",
      "constant": true
    },
    {
      "inputs": [],
      "name": "mintable",
      "outputs": [
        {
          "internalType": "uint256",
          "name": "",
          "type": "uint256"
        }
      ],
      "stateMutability": "view",
      "type": "function",
      "constant": true
    },
    {
      "inputs": [],
      "name": "name",
      "outputs": [
        {
          "internalType": "string",
          "name": "",
          "type": "string"
        }
      ],
      "stateMutability": "view",
      "type": "function",
      "constant": true
    },
    {
      "inputs": [
        {
          "internalType": "uint256",
          "name": "tokenId",
          "type": "uint256"
        }
      ],
      "name": "ownerOf",
      "outputs": [
        {
          "internalType": "address",
          "name": "",
          "type": "address"
        }
      ],
      "stateMutability": "view",
      "type": "function",
      "constant": true
    },
    {
      "inputs": [
        {
          "internalType": "address",
          "name": "from",
          "type": "address"
        },
        {
          "internalType": "address",
          "name": "to",
          "type": "address"
        },
        {
          "internalType": "uint256",
          "name": "tokenId",
          "type": "uint256"
        }
      ],
      "name": "safeTransferFrom",
      "outputs": [],
      "stateMutability": "nonpayable",
      "type": "function"
    },
    {
      "inputs": [
        {
          "internalType": "address",
          "name": "from",
          "type": "address"
        },
        {
          "internalType": "address",
          "name": "to",
          "type": "address"
        },
        {
          "internalType": "uint256",
          "name": "tokenId",
          "type": "uint256"
        },
        {
          "internalType": "bytes",
          "name": "_data",
          "type": "bytes"
        }
      ],
      "name": "safeTransferFrom",
      "outputs": [],
      "stateMutability": "nonpayable",
      "type": "function"
    },
    {
      "inputs": [
        {
          "internalType": "address",
          "name": "operator",
          "type": "address"
        },
        {
          "internalType": "bool",
          "name": "approved",
          "type": "bool"
        }
      ],
      "name": "setApprovalForAll",
      "outputs": [],
      "stateMutability": "nonpayable",
      "type": "function"
    },
    {
      "inputs": [],
      "name": "symbol",
      "outputs": [
        {
          "internalType": "string",
          "name": "",
          "type": "string"
        }
      ],
      "stateMutability": "view",
      "type": "function",
      "constant": true
    },
    {
      "inputs": [
        {
          "internalType": "uint256",
          "name": "index",
          "type": "uint256"
        }
      ],
      "name": "tokenByIndex",
      "outputs": [
        {
          "internalType": "uint256",
          "name": "",
          "type": "uint256"
        }
      ],
      "stateMutability": "view",
      "type": "function",
      "constant": true
    },
    {
      "inputs": [
        {
          "internalType": "address",
          "name": "owner",
          "type": "address"
        },
        {
          "internalType": "uint256",
          "name": "index",
          "type": "uint256"
        }
      ],
      "name": "tokenOfOwnerByIndex",
      "outputs": [
        {
          "internalType": "uint256",
          "name": "",
          "type": "uint256"
        }
      ],
      "stateMutability": "view",
      "type": "function",
      "constant": true
    },
    {
      "inputs": [],
      "name": "totalSupply",
      "outputs": [
        {
          "internalType": "uint256",
          "name": "",
          "type": "uint256"
        }
      ],
      "stateMutability": "view",
      "type": "function",
      "constant": true
    },
    {
      "inputs": [
        {
          "internalType": "address",
          "name": "from",
          "type": "address"
        },
        {
          "internalType": "address",
          "name": "to",
          "type": "address"
        },
        {
          "internalType": "uint256",
          "name": "tokenId",
          "type": "uint256"
        }
      ],
      "name": "transferFrom",
      "outputs": [],
      "stateMutability": "nonpayable",
      "type": "function"
    },
    {
      "inputs": [],
      "name": "withdraw",
      "outputs": [],
      "stateMutability": "nonpayable",
      "type": "function"
    },
    {
      "inputs": [
        {
          "internalType": "uint256",
          "name": "addValue",
          "type": "uint256"
        }
      ],
      "name": "increaseMintable",
      "outputs": [],
      "stateMutability": "nonpayable",
      "type": "function"
    },
    {
      "inputs": [
        {
          "internalType": "uint256",
          "name": "amount",
          "type": "uint256"
        }
      ],
      "name": "mint",
      "outputs": [],
      "stateMutability": "payable",
      "type": "function",
      "payable": true
    },
    {
      "inputs": [
        {
          "internalType": "uint256",
          "name": "tokenId",
          "type": "uint256"
        }
      ],
      "name": "tokenURI",
      "outputs": [
        {
          "internalType": "string",
          "name": "",
          "type": "string"
        }
      ],
      "stateMutability": "view",
      "type": "function",
      "constant": true
    },
    {
      "inputs": [
        {
          "internalType": "bytes4",
          "name": "interfaceId",
          "type": "bytes4"
        }
      ],
      "name": "supportsInterface",
      "outputs": [
        {
          "internalType": "bool",
          "name": "",
          "type": "bool"
        }
      ],
      "stateMutability": "view",
      "type": "function",
      "constant": true
    }
  ],
  "bytecode": "0x6080604052610309600b5560c8600c556000600d556003600e553480156200002657600080fd5b50604051620030c5380380620030c5833981016040819052620000499162000b7d565b60408051808201825260098152684d756c74696b65797360b81b6020808301918252835180850190945260038452624d544b60e81b908401528151919291620000959160009162000ad7565b508051620000ab90600190602084019062000ad7565b5050600a80546001600160a01b0319166001600160a01b03841617905550620000d3620000da565b5062000d2d565b600a546040516366bd542360e11b81523360048201526001600160a01b039091169063cd7aa84690602401602060405180830381865afa15801562000123573d6000803e3d6000fd5b505050506040513d601f19601f8201168201806040525081019062000149919062000baf565b6200015357600080fd5b6200016033600162000448565b6200016d33600262000448565b6200017a33600362000448565b60037f6e0956cda88cad152e89927e53611735b61a5c762d1428573c6931b0a5efcb015560637ff4803e074bd026baaf6ed2e288c9515f68c72fb7216eebdd7cae1718a53ec3758190557f8c6065603763fec3f5742441d3833f3f43b982453612d76adb39a885e3006b5f5560d27f169f97de0d9a84d840042b17d3c6b9638b3d6fd9024c9eb0c7a306a17b49f88f8190557f853b2fefe141400fef543280f93d98bd49996069f632d0d20236afeeed8e46a2556101497fa74ba3945261e09fde15ba3db55005b205e61eeb4ad811ac0faa2b315bffeead8190557fb3edd0d534d647cffdae9f1294f11ad21f3fcf2814bea44c92bbb8d384a57d9e556101fc7f45f76dafbbad695564362934e24d72eedc57f9fc1a65f39bca62176cc82968288190557f1588ac671d87f82adc0e6ae8ab009c0de98f92a20243897597e566bc59b9c126556103097f367ccd2d0ac16bf7110a5dffe0801fdc9452a95a1adb7e1a12fe97dd3e9a4edd55601160205260027fa38406fdacb77c8f805e3a4a8231b26a8edf09f65d12f0d7e0f4cd8042e664ae8190557f5563ee0f981c57dcb439754ac19d1863ca1a958939cb66944cd920399002071a5560017fe471aea0fa338bb7339cc57779a645296d8dba2dce5f775fb141a6a2c14c415d8190557f8a493177ce7f3ba5529036648b001c3227cafe84669988a4642e3273925765388190557fc2719a3ddf7fafa3cd97ede3d8b31c09699e7dc053eb54a17fd04ab8b0a744298190557ffeb4da5dd29bdc9441f28b8845d0941f9d971e1990091112bef6efc87f19dd0c8190557fb4b8b843e2448a880d838f6c6136ec295d78d6521ef9c3fdf61c86051ad061ab8190557f1432d25d3f7a82310ef1ca3a4ce3012379e62e4871da9aab5770feb59c516f908190557384cf222abbcfba5163bc054ad5fcddf85c740e7e6000527f6afadd94b157200907246f377ca46c25e96b4d0757af3f972a2f889be33926cd55565b6200046a8282604051806020016040528060008152506200046e60201b60201c565b5050565b6200047a8383620004ea565b62000489600084848462000640565b620004e55760405162461bcd60e51b81526020600482015260326024820152600080516020620030a583398151915260448201527131b2b4bb32b91034b6b83632b6b2b73a32b960711b60648201526084015b60405180910390fd5b505050565b6001600160a01b038216620005425760405162461bcd60e51b815260206004820181905260248201527f4552433732313a206d696e7420746f20746865207a65726f20616464726573736044820152606401620004dc565b6000818152600260205260409020546001600160a01b031615620005a95760405162461bcd60e51b815260206004820152601c60248201527f4552433732313a20746f6b656e20616c7265616479206d696e746564000000006044820152606401620004dc565b620005b7600083836200079c565b6001600160a01b0382166000908152600360205260408120805460019290620005e290849062000be9565b909155505060008181526002602052604080822080546001600160a01b0319166001600160a01b03861690811790915590518392907fddf252ad1be2c89b69c2b068fc378daa952ba7f163c4a11628f55a4df523b3ef908290a45050565b600062000661846001600160a01b0316620007b460201b620012f71760201c565b156200079057604051630a85bd0160e11b81526001600160a01b0385169063150b7a02906200069b90339089908890889060040162000c04565b6020604051808303816000875af1925050508015620006d9575060408051601f3d908101601f19168201909252620006d69181019062000c7f565b60015b62000775573d8080156200070a576040519150601f19603f3d011682016040523d82523d6000602084013e6200070f565b606091505b5080516000036200076d5760405162461bcd60e51b81526020600482015260326024820152600080516020620030a583398151915260448201527131b2b4bb32b91034b6b83632b6b2b73a32b960711b6064820152608401620004dc565b805181602001fd5b6001600160e01b031916630a85bd0160e11b14905062000794565b5060015b949350505050565b620004e5838383620007ba60201b620012fd1760201c565b3b151590565b620007d2838383620004e560201b6200065f1760201c565b6001600160a01b03831662000830576200082a81600880546000838152600960205260408120829055600182018355919091527ff3f7a9fe364faab93b216da50a3214154f22a0a2b415b23a84c8169e8b636ee30155565b62000856565b816001600160a01b0316836001600160a01b031614620008565762000856838262000896565b6001600160a01b0382166200087057620004e58162000943565b826001600160a01b0316826001600160a01b031614620004e557620004e58282620009fd565b60006001620008b08462000a4e60201b62000d711760201c565b620008bc919062000cab565b60008381526007602052604090205490915080821462000910576001600160a01b03841660009081526006602090815260408083208584528252808320548484528184208190558352600790915290208190555b5060009182526007602090815260408084208490556001600160a01b039094168352600681528383209183525290812055565b600854600090620009579060019062000cab565b6000838152600960205260408120546008805493945090928490811062000982576200098262000cc5565b906000526020600020015490508060088381548110620009a657620009a662000cc5565b6000918252602080832090910192909255828152600990915260408082208490558582528120556008805480620009e157620009e162000cdb565b6001900381819060005260206000200160009055905550505050565b600062000a158362000a4e60201b62000d711760201c565b6001600160a01b039093166000908152600660209081526040808320868452825280832085905593825260079052919091209190915550565b60006001600160a01b03821662000abb5760405162461bcd60e51b815260206004820152602a60248201527f4552433732313a2062616c616e636520717565727920666f7220746865207a65604482015269726f206164647265737360b01b6064820152608401620004dc565b506001600160a01b031660009081526003602052604090205490565b82805462000ae59062000cf1565b90600052602060002090601f01602090048101928262000b09576000855562000b54565b82601f1062000b2457805160ff191683800117855562000b54565b8280016001018555821562000b54579182015b8281111562000b5457825182559160200191906001019062000b37565b5062000b6292915062000b66565b5090565b5b8082111562000b62576000815560010162000b67565b60006020828403121562000b9057600080fd5b81516001600160a01b038116811462000ba857600080fd5b9392505050565b60006020828403121562000bc257600080fd5b8151801515811462000ba857600080fd5b634e487b7160e01b600052601160045260246000fd5b6000821982111562000bff5762000bff62000bd3565b500190565b600060018060a01b038087168352602081871681850152856040850152608060608501528451915081608085015260005b8281101562000c535785810182015185820160a00152810162000c35565b8281111562000c6657600060a084870101525b5050601f01601f19169190910160a00195945050505050565b60006020828403121562000c9257600080fd5b81516001600160e01b03198116811462000ba857600080fd5b60008282101562000cc05762000cc062000bd3565b500390565b634e487b7160e01b600052603260045260246000fd5b634e487b7160e01b600052603160045260246000fd5b600181811c9082168062000d0657607f821691505b60208210810362000d2757634e487b7160e01b600052602260045260246000fd5b50919050565b6123688062000d3d6000396000f3fe6080604052600436106101355760003560e01c80634f6ccce7116100ab578063a0712d681161006f578063a0712d6814610340578063a22cb46514610353578063b88d4fde14610373578063c87b56dd14610393578063d5abeb01146103b3578063e985e9c5146103c957600080fd5b80634f6ccce7146102b55780636352211e146102d55780636817c76c146102f557806370a082311461030b57806395d89b411461032b57600080fd5b80631f2ab51f116100fd5780631f2ab51f1461020a57806323b872dd1461022a5780632f745c591461024a5780633ccfd60b1461026a57806342842e0e1461027f5780634bf365df1461029f57600080fd5b806301ffc9a71461013a57806306fdde031461016f578063081812fc14610191578063095ea7b3146101c957806318160ddd146101eb575b600080fd5b34801561014657600080fd5b5061015a610155366004611dba565b610412565b60405190151581526020015b60405180910390f35b34801561017b57600080fd5b50610184610423565b6040516101669190611e2f565b34801561019d57600080fd5b506101b16101ac366004611e42565b6104b5565b6040516001600160a01b039091168152602001610166565b3480156101d557600080fd5b506101e96101e4366004611e70565b61054f565b005b3480156101f757600080fd5b506008545b604051908152602001610166565b34801561021657600080fd5b506101e9610225366004611e42565b610664565b34801561023657600080fd5b506101e9610245366004611e9c565b61081b565b34801561025657600080fd5b506101fc610265366004611e70565b61084c565b34801561027657600080fd5b506101e96108e2565b34801561028b57600080fd5b506101e961029a366004611e9c565b610c4c565b3480156102ab57600080fd5b506101fc600c5481565b3480156102c157600080fd5b506101fc6102d0366004611e42565b610c67565b3480156102e157600080fd5b506101b16102f0366004611e42565b610cfa565b34801561030157600080fd5b506101fc600d5481565b34801561031757600080fd5b506101fc610326366004611edd565b610d71565b34801561033757600080fd5b50610184610df8565b6101e961034e366004611e42565b610e07565b34801561035f57600080fd5b506101e961036e366004611f08565b611126565b34801561037f57600080fd5b506101e961038e366004611f57565b6111ea565b34801561039f57600080fd5b506101846103ae366004611e42565b61121c565b3480156103bf57600080fd5b506101fc600b5481565b3480156103d557600080fd5b5061015a6103e4366004612037565b6001600160a01b03918216600090815260056020908152604080832093909416825291909152205460ff1690565b600061041d826113b5565b92915050565b60606000805461043290612065565b80601f016020809104026020016040519081016040528092919081815260200182805461045e90612065565b80156104ab5780601f10610480576101008083540402835291602001916104ab565b820191906000526020600020905b81548152906001019060200180831161048e57829003601f168201915b5050505050905090565b6000818152600260205260408120546001600160a01b03166105335760405162461bcd60e51b815260206004820152602c60248201527f4552433732313a20617070726f76656420717565727920666f72206e6f6e657860448201526b34b9ba32b73a103a37b5b2b760a11b60648201526084015b60405180910390fd5b506000908152600460205260409020546001600160a01b031690565b600061055a82610cfa565b9050806001600160a01b0316836001600160a01b0316036105c75760405162461bcd60e51b815260206004820152602160248201527f4552433732313a20617070726f76616c20746f2063757272656e74206f776e656044820152603960f91b606482015260840161052a565b336001600160a01b03821614806105e357506105e381336103e4565b6106555760405162461bcd60e51b815260206004820152603860248201527f4552433732313a20617070726f76652063616c6c6572206973206e6f74206f7760448201527f6e6572206e6f7220617070726f76656420666f7220616c6c0000000000000000606482015260840161052a565b61065f83836113da565b505050565b600a546040516366bd542360e11b81523360048201526001600160a01b039091169063cd7aa84690602401602060405180830381865afa1580156106ac573d6000803e3d6000fd5b505050506040513d601f19601f820116820180604052508101906106d0919061209f565b6106d957600080fd5b600a54604051634a36d88560e01b8152602060048201526008602482015267696e63726561736560c01b60448201526001600160a01b0390911690634a36d88590606401602060405180830381865afa15801561073a573d6000803e3d6000fd5b505050506040513d601f19601f8201168201806040525081019061075e919061209f565b61076757600080fd5b600b5481600c5461077891906120d2565b111561078957600b54600c556107a1565b80600c600082825461079b91906120d2565b90915550505b600a5460405163538f20d960e01b8152602060048201526008602482015267696e63726561736560c01b60448201526001600160a01b039091169063538f20d9906064015b600060405180830381600087803b15801561080057600080fd5b505af1158015610814573d6000803e3d6000fd5b5050505050565b6108253382611448565b6108415760405162461bcd60e51b815260040161052a906120ea565b61065f83838361153f565b600061085783610d71565b82106108b95760405162461bcd60e51b815260206004820152602b60248201527f455243373231456e756d657261626c653a206f776e657220696e646578206f7560448201526a74206f6620626f756e647360a81b606482015260840161052a565b506001600160a01b03919091166000908152600660209081526040808320938352929052205490565b600a546040516325c603b760e01b81523360048201526001600160a01b03909116906325c603b790602401602060405180830381865afa15801561092a573d6000803e3d6000fd5b505050506040513d601f19601f8201168201806040525081019061094e919061209f565b6109b75760405162461bcd60e51b815260206004820152603460248201527f596f7520617265206e6f7420617574686f72697a656420746f2063616c6c20746044820152733432903bb4ba34323930bb90333ab731ba34b7b760611b606482015260840161052a565b600a54604051630ac1a7f960e31b8152602060048201526008602482015267776974686472617760c01b60448201526001600160a01b039091169063560d3fc890606401602060405180830381865afa158015610a18573d6000803e3d6000fd5b505050506040513d601f19601f82011682018060405250810190610a3c919061209f565b610a945760405162461bcd60e51b815260206004820152602360248201527f57697468647261772066756e6374696f6e206973206e6f7420617574686f72696044820152621e995960ea1b606482015260840161052a565b6000610aa1600247612151565b9050600a60009054906101000a90046001600160a01b03166001600160a01b0316635f032b176040518163ffffffff1660e01b8152600401602060405180830381865afa158015610af6573d6000803e3d6000fd5b505050506040513d601f19601f82011682018060405250810190610b1a9190612165565b6001600160a01b03166108fc829081150290604051600060405180830381858888f19350505050158015610b52573d6000803e3d6000fd5b50600a60009054906101000a90046001600160a01b03166001600160a01b03166356cd73c76040518163ffffffff1660e01b8152600401602060405180830381865afa158015610ba6573d6000803e3d6000fd5b505050506040513d601f19601f82011682018060405250810190610bca9190612165565b6001600160a01b03166108fc829081150290604051600060405180830381858888f19350505050158015610c02573d6000803e3d6000fd5b50600a5460405163538f20d960e01b8152602060048201526008602482015267776974686472617760c01b60448201526001600160a01b039091169063538f20d9906064016107e6565b61065f838383604051806020016040528060008152506111ea565b6000610c7260085490565b8210610cd55760405162461bcd60e51b815260206004820152602c60248201527f455243373231456e756d657261626c653a20676c6f62616c20696e646578206f60448201526b7574206f6620626f756e647360a01b606482015260840161052a565b60088281548110610ce857610ce8612182565b90600052602060002001549050919050565b6000818152600260205260408120546001600160a01b03168061041d5760405162461bcd60e51b815260206004820152602960248201527f4552433732313a206f776e657220717565727920666f72206e6f6e657869737460448201526832b73a103a37b5b2b760b91b606482015260840161052a565b60006001600160a01b038216610ddc5760405162461bcd60e51b815260206004820152602a60248201527f4552433732313a2062616c616e636520717565727920666f7220746865207a65604482015269726f206164647265737360b01b606482015260840161052a565b506001600160a01b031660009081526003602052604090205490565b60606001805461043290612065565b600b5460085410610e645760405162461bcd60e51b815260206004820152602160248201527f416c6c204e4654732068617320616c7265616479206265656e206d696e7465646044820152601760f91b606482015260840161052a565b600c5460085410610eb75760405162461bcd60e51b815260206004820152601d60248201527f53616c6520697320636c6f73656420617420746865206d6f6d656e742e000000604482015260640161052a565b600e54811115610f1b5760405162461bcd60e51b815260206004820152602960248201527f596f752063616e6e6f74206d696e742074686174206d616e7920746f6b656e736044820152681030ba1037b731b29760b91b606482015260840161052a565b3360009081526011602052604090205415610fc65733600090815260116020526040902054811115610fc15760405162461bcd60e51b815260206004820152604360248201527f417320612067697665617761792077696e6e657220796f752063616e6e6f742060448201527f6d696e74206d6f726520746f6b656e73207468616e20796f752068617665207760648201526237b71760e91b608482015260a40161052a565b61102d565b80600d54610fd49190612198565b34101561102d5760405162461bcd60e51b815260206004820152602160248201527f596f7572207472616e7366657265642076616c756520697320746f6f206c6f776044820152601760f91b606482015260840161052a565b6000805b828110156110de57600b5460085410801561104f5750600c54600854105b156110c757600061105e6116ea565b33600090815260116020526040902054909150156110a75733600090815260116020526040902054611092906001906121b7565b336000908152601160205260409020556110b7565b600d546110b490846120d2565b92505b6110c133826117c2565b506110cc565b6110de565b806110d6816121ce565b915050611031565b5060006110eb82346121b7565b9050801561065f57604051339082156108fc029083906000818181858888f19350505050158015611120573d6000803e3d6000fd5b50505050565b336001600160a01b0383160361117e5760405162461bcd60e51b815260206004820152601960248201527f4552433732313a20617070726f766520746f2063616c6c657200000000000000604482015260640161052a565b3360008181526005602090815260408083206001600160a01b03871680855290835292819020805460ff191686151590811790915590519081529192917f17307eab39ab6107e8899845ad3d59bd9653f200f220920489ca2b5937696c31910160405180910390a35050565b6111f43383611448565b6112105760405162461bcd60e51b815260040161052a906120ea565b611120848484846117e0565b6000818152600260205260409020546060906001600160a01b031661129b5760405162461bcd60e51b815260206004820152602f60248201527f4552433732314d657461646174613a2055524920717565727920666f72206e6f60448201526e3732bc34b9ba32b73a103a37b5b2b760891b606482015260840161052a565b60006112a5611813565b905060008151116112c557604051806020016040528060008152506112f0565b806112cf84611833565b6040516020016112e09291906121e7565b6040516020818303038152906040525b9392505050565b3b151590565b6001600160a01b0383166113585761135381600880546000838152600960205260408120829055600182018355919091527ff3f7a9fe364faab93b216da50a3214154f22a0a2b415b23a84c8169e8b636ee30155565b61137b565b816001600160a01b0316836001600160a01b03161461137b5761137b8382611934565b6001600160a01b0382166113925761065f816119d1565b826001600160a01b0316826001600160a01b03161461065f5761065f8282611a80565b60006001600160e01b0319821663780e9d6360e01b148061041d575061041d82611ac4565b600081815260046020526040902080546001600160a01b0319166001600160a01b038416908117909155819061140f82610cfa565b6001600160a01b03167f8c5be1e5ebec7d5bd14f71427d1e84f3dd0314c0f7b2291e5b200ac8c7c3b92560405160405180910390a45050565b6000818152600260205260408120546001600160a01b03166114c15760405162461bcd60e51b815260206004820152602c60248201527f4552433732313a206f70657261746f7220717565727920666f72206e6f6e657860448201526b34b9ba32b73a103a37b5b2b760a11b606482015260840161052a565b60006114cc83610cfa565b9050806001600160a01b0316846001600160a01b031614806115075750836001600160a01b03166114fc846104b5565b6001600160a01b0316145b8061153757506001600160a01b0380821660009081526005602090815260408083209388168352929052205460ff165b949350505050565b826001600160a01b031661155282610cfa565b6001600160a01b0316146115ba5760405162461bcd60e51b815260206004820152602960248201527f4552433732313a207472616e73666572206f6620746f6b656e2074686174206960448201526839903737ba1037bbb760b91b606482015260840161052a565b6001600160a01b03821661161c5760405162461bcd60e51b8152602060048201526024808201527f4552433732313a207472616e7366657220746f20746865207a65726f206164646044820152637265737360e01b606482015260840161052a565b611627838383611b14565b6116326000826113da565b6001600160a01b038316600090815260036020526040812080546001929061165b9084906121b7565b90915550506001600160a01b03821660009081526003602052604081208054600192906116899084906120d2565b909155505060008181526002602052604080822080546001600160a01b0319166001600160a01b0386811691821790925591518493918716917fddf252ad1be2c89b69c2b068fc378daa952ba7f163c4a11628f55a4df523b3ef91a4505050565b6000808080600444426116fc60085490565b60408051602081019490945283019190915260608201526080016040516020818303038152906040528051906020012060001c6117399190612226565b90505b816117ba576000818152600f602090815260408083205460109092529091205410156117985760008181526010602052604090205461177c9060016120d2565b600082815260106020526040902081905592506001915061173c565b806004036117a85750600061173c565b806117b2816121ce565b91505061173c565b509092915050565b6117dc828260405180602001604052806000815250611b1f565b5050565b6117eb84848461153f565b6117f784848484611b52565b6111205760405162461bcd60e51b815260040161052a9061223a565b60606040518060600160405280603681526020016122fd60369139905090565b60608160000361185a5750506040805180820190915260018152600360fc1b602082015290565b8160005b8115611884578061186e816121ce565b915061187d9050600a83612151565b915061185e565b60008167ffffffffffffffff81111561189f5761189f611f41565b6040519080825280601f01601f1916602001820160405280156118c9576020820181803683370190505b5090505b8415611537576118de6001836121b7565b91506118eb600a86612226565b6118f69060306120d2565b60f81b81838151811061190b5761190b612182565b60200101906001600160f81b031916908160001a90535061192d600a86612151565b94506118cd565b6000600161194184610d71565b61194b91906121b7565b60008381526007602052604090205490915080821461199e576001600160a01b03841660009081526006602090815260408083208584528252808320548484528184208190558352600790915290208190555b5060009182526007602090815260408084208490556001600160a01b039094168352600681528383209183525290812055565b6008546000906119e3906001906121b7565b60008381526009602052604081205460088054939450909284908110611a0b57611a0b612182565b906000526020600020015490508060088381548110611a2c57611a2c612182565b6000918252602080832090910192909255828152600990915260408082208490558582528120556008805480611a6457611a6461228c565b6001900381819060005260206000200160009055905550505050565b6000611a8b83610d71565b6001600160a01b039093166000908152600660209081526040808320868452825280832085905593825260079052919091209190915550565b60006001600160e01b031982166380ac58cd60e01b1480611af557506001600160e01b03198216635b5e139f60e01b145b8061041d57506301ffc9a760e01b6001600160e01b031983161461041d565b61065f8383836112fd565b611b298383611c53565b611b366000848484611b52565b61065f5760405162461bcd60e51b815260040161052a9061223a565b60006001600160a01b0384163b15611c4857604051630a85bd0160e11b81526001600160a01b0385169063150b7a0290611b969033908990889088906004016122a2565b6020604051808303816000875af1925050508015611bd1575060408051601f3d908101601f19168201909252611bce918101906122df565b60015b611c2e573d808015611bff576040519150601f19603f3d011682016040523d82523d6000602084013e611c04565b606091505b508051600003611c265760405162461bcd60e51b815260040161052a9061223a565b805181602001fd5b6001600160e01b031916630a85bd0160e11b149050611537565b506001949350505050565b6001600160a01b038216611ca95760405162461bcd60e51b815260206004820181905260248201527f4552433732313a206d696e7420746f20746865207a65726f2061646472657373604482015260640161052a565b6000818152600260205260409020546001600160a01b031615611d0e5760405162461bcd60e51b815260206004820152601c60248201527f4552433732313a20746f6b656e20616c7265616479206d696e74656400000000604482015260640161052a565b611d1a60008383611b14565b6001600160a01b0382166000908152600360205260408120805460019290611d439084906120d2565b909155505060008181526002602052604080822080546001600160a01b0319166001600160a01b03861690811790915590518392907fddf252ad1be2c89b69c2b068fc378daa952ba7f163c4a11628f55a4df523b3ef908290a45050565b6001600160e01b031981168114611db757600080fd5b50565b600060208284031215611dcc57600080fd5b81356112f081611da1565b60005b83811015611df2578181015183820152602001611dda565b838111156111205750506000910152565b60008151808452611e1b816020860160208601611dd7565b601f01601f19169290920160200192915050565b6020815260006112f06020830184611e03565b600060208284031215611e5457600080fd5b5035919050565b6001600160a01b0381168114611db757600080fd5b60008060408385031215611e8357600080fd5b8235611e8e81611e5b565b946020939093013593505050565b600080600060608486031215611eb157600080fd5b8335611ebc81611e5b565b92506020840135611ecc81611e5b565b929592945050506040919091013590565b600060208284031215611eef57600080fd5b81356112f081611e5b565b8015158114611db757600080fd5b60008060408385031215611f1b57600080fd5b8235611f2681611e5b565b91506020830135611f3681611efa565b809150509250929050565b634e487b7160e01b600052604160045260246000fd5b60008060008060808587031215611f6d57600080fd5b8435611f7881611e5b565b93506020850135611f8881611e5b565b925060408501359150606085013567ffffffffffffffff80821115611fac57600080fd5b818701915087601f830112611fc057600080fd5b813581811115611fd257611fd2611f41565b604051601f8201601f19908116603f01168101908382118183101715611ffa57611ffa611f41565b816040528281528a602084870101111561201357600080fd5b82602086016020830137600060208483010152809550505050505092959194509250565b6000806040838503121561204a57600080fd5b823561205581611e5b565b91506020830135611f3681611e5b565b600181811c9082168061207957607f821691505b60208210810361209957634e487b7160e01b600052602260045260246000fd5b50919050565b6000602082840312156120b157600080fd5b81516112f081611efa565b634e487b7160e01b600052601160045260246000fd5b600082198211156120e5576120e56120bc565b500190565b60208082526031908201527f4552433732313a207472616e736665722063616c6c6572206973206e6f74206f6040820152701ddb995c881b9bdc88185c1c1c9bdd9959607a1b606082015260800190565b634e487b7160e01b600052601260045260246000fd5b6000826121605761216061213b565b500490565b60006020828403121561217757600080fd5b81516112f081611e5b565b634e487b7160e01b600052603260045260246000fd5b60008160001904831182151516156121b2576121b26120bc565b500290565b6000828210156121c9576121c96120bc565b500390565b6000600182016121e0576121e06120bc565b5060010190565b600083516121f9818460208801611dd7565b83519083019061220d818360208801611dd7565b64173539b7b760d91b9101908152600501949350505050565b6000826122355761223561213b565b500690565b60208082526032908201527f4552433732313a207472616e7366657220746f206e6f6e20455243373231526560408201527131b2b4bb32b91034b6b83632b6b2b73a32b960711b606082015260800190565b634e487b7160e01b600052603160045260246000fd5b6001600160a01b03858116825284166020820152604081018390526080606082018190526000906122d590830184611e03565b9695505050505050565b6000602082840312156122f157600080fd5b81516112f081611da156fe697066733a2f2f516d59416d7276785631354a636672636845536a655a795a6655746763516b6e534a50623359726b317768334c672fa2646970667358221220acccc2699b76a978c147ec70b36aa5d285282cd1883aac9d36604718faf9f83b64736f6c634300080d00334552433732313a207472616e7366657220746f206e6f6e204552433732315265",
  "immutableReferences": {},
  "source": "// SPDX-License-Identifier: MIT\npragma solidity ^0.8.0;\n\nimport \"@openzeppelin/contracts/token/ERC721/ERC721.sol\";\nimport \"@openzeppelin/contracts/token/ERC721/extensions/ERC721Enumerable.sol\";\nimport \"./IMultisigManager.sol\";\n\ncontract MultikeyNFT is ERC721, ERC721Enumerable {\n    using Strings for uint256;\n\n    IMultisigManager private multisigManager;\n    uint256 public maxSupply = 777;\n    uint256 public mintable = 200;\n    uint256 public mintPrice = 0;//TEST 1 * 10**18; //1 BNB\n    uint256 private mintPerTx = 3;\n    mapping(uint256 => uint256) private maxTypeId;\n    mapping(uint256 => uint256) private currentTypeId;\n    mapping(address => uint256) private winnerList;\n    \n\n    constructor(address _multisigManager) ERC721(\"Multikeys\", \"MTK\") {\n        //Set multisig manager\n        multisigManager = IMultisigManager(_multisigManager);\n\n        //Premint process\n        _presetVariables();\n    }\n\n    function withdraw() external {\n        require(multisigManager.senderIsMember(msg.sender), \"You are not authorized to call the withdraw function\");\n        require(multisigManager.checkMemberPermission(\"withdraw\"), \"Withdraw function is not authorized\");\n        uint256 halfAmount = address(this).balance / 2;\n        payable(multisigManager.getMemberA()).transfer(halfAmount);\n        payable(multisigManager.getMemberB()).transfer(halfAmount);\n        multisigManager.resetFunctionPermission(\"withdraw\");\n    }\n\n    function increaseMintable(uint256 addValue) external {\n        require(multisigManager.senderIsMasterOrMember(msg.sender));\n        require(multisigManager.checkAllPermission(\"increase\"));\n        if (mintable + addValue > maxSupply) {\n            //Set mintable to 777\n            mintable = maxSupply;\n        } else {\n            //Increase mintable amount\n            mintable += addValue;\n        }\n        multisigManager.resetFunctionPermission(\"increase\");\n    }\n\n    function mint(uint256 amount) external payable {\n        //Check basic requirements\n        //TEST require(block.timestamp >= 1649358420, \"This function is not available, please wait for sale launch.\");\n        require(totalSupply() < maxSupply, \"All NFTs has already been minted.\");\n        require(totalSupply() < mintable, \"Sale is closed at the moment.\");\n        require(amount <= mintPerTx, \"You cannot mint that many tokens at once.\");\n        if (winnerList[msg.sender] > 0) {\n            require(amount <= winnerList[msg.sender], \"As a giveaway winner you cannot mint more tokens than you have won.\");\n        } else {\n            require(msg.value >= (mintPrice * amount), \"Your transfered value is too low.\");\n        }\n\n        //Mint token\n        uint256 usedWei = 0;\n        for (uint256 i = 0; i < amount; i++) {\n            if (totalSupply() < maxSupply && totalSupply() < mintable) {\n                uint256 tokenId = generateTokenID();\n                if (winnerList[msg.sender] > 0) {\n                    winnerList[msg.sender] = winnerList[msg.sender] - 1;\n                } else {\n                    usedWei += mintPrice;\n                }\n                _safeMint(msg.sender, tokenId);\n            } else {\n                break;\n            }\n        }\n\n        //Refund unused coins\n        uint256 unusedWei = msg.value - usedWei;\n        if (unusedWei > 0) {\n            payable(msg.sender).transfer(unusedWei);\n        }\n    }\n\n    function generateTokenID() private returns(uint256) {\n        uint256 tokenId = 0;\n        bool valid = false;\n        uint256 random = (uint256(keccak256(abi.encodePacked(block.difficulty, block.timestamp, totalSupply()))) % 4);\n        while(!valid) {\n            if (currentTypeId[random] < maxTypeId[random]) {\n                tokenId = currentTypeId[random] + 1;\n                currentTypeId[random] = tokenId;\n                valid = true;\n            } else {\n                if (random == 4) {\n                    random = 0;\n                } else {\n                    random++;\n                }\n            }\n        }\n        return tokenId;\n    }\n\n    function tokenURI(uint256 tokenId) public view virtual override returns (string memory) {\n        require(_exists(tokenId), \"ERC721Metadata: URI query for nonexistent token\");\n        string memory baseURI = _baseURI();\n        return bytes(baseURI).length > 0 ? string(abi.encodePacked(baseURI, tokenId.toString(), \".json\")) : \"\";\n    }\n\n    function _baseURI() internal pure override returns (string memory) {\n        return \"ipfs://QmYAmrvxV15JcfrchESjeZyZfUtgcQknSJPb3Yrk1wh3Lg/\";\n    }\n\n    function _beforeTokenTransfer(address from, address to, uint256 tokenId) internal override(ERC721, ERC721Enumerable) {\n        super._beforeTokenTransfer(from, to, tokenId);\n    }\n\n    function supportsInterface(bytes4 interfaceId) public view override(ERC721, ERC721Enumerable) returns (bool) {\n        return super.supportsInterface(interfaceId);\n    }\n\n    function _presetVariables() private {\n        require(multisigManager.senderIsMasterOrMember(msg.sender));\n\n        //Mint partner nfts\n        _safeMint(msg.sender, 1);\n        _safeMint(msg.sender, 2);\n        _safeMint(msg.sender, 3);\n\n        //Set type infos\n        currentTypeId[0] = 3;\n        maxTypeId[0] = 99;\n        currentTypeId[1] = 99;\n        maxTypeId[1] = 210;\n        currentTypeId[2] = 210;\n        maxTypeId[2] = 329;\n        currentTypeId[3] = 329;\n        maxTypeId[3] = 508;\n        currentTypeId[4] = 508;\n        maxTypeId[4] = 777;\n\n        //Init giveaway winner list\n        winnerList[0x0DA180bAfcDBe5F8852B7751f347E57b3a3D783e] = 2;\n        winnerList[0xDAAA81e0b4D596212E2AEe2F0d08136204597646] = 2;\n        winnerList[0x14617a60E41674b8493539c1eA39161f4e6777C5] = 1;\n        winnerList[0x9B0e8c959681B62050Bb5a2B3C0627B073DD9670] = 1;\n        winnerList[0x2289565f6cb84e930Dfb70dd4bEf406abECC3311] = 1;\n        winnerList[0x3c976eb9aF852CA7d14Ee59fd09276be564eff71] = 1;\n        winnerList[0x933652847EDfBC5defBa238697eBBCD67a6Ea1ee] = 1;\n        winnerList[0x4156FCbFfA5De01005FaD1f705377d0057afDb37] = 1;\n        winnerList[0x84Cf222abbcfbA5163BC054Ad5fCdDF85c740e7E] = 1;\n    }\n}",
  "sourcePath": "/home/zion/Projekte/nft-arena/contracts/MultikeyNFT.sol",
  "compiler": {
    "name": "solc",
    "version": "0.8.13+commit.abaa5c0e.Emscripten.clang"
  },
  "schemaVersion": "3.4.3",
  "updatedAt": "2022-04-07T15:46:41.858Z",
  "networkType": "ethereum",
  "devdoc": {
    "kind": "dev",
    "methods": {
      "approve(address,uint256)": {
        "details": "See {IERC721-approve}."
      },
      "balanceOf(address)": {
        "details": "See {IERC721-balanceOf}."
      },
      "getApproved(uint256)": {
        "details": "See {IERC721-getApproved}."
      },
      "isApprovedForAll(address,address)": {
        "details": "See {IERC721-isApprovedForAll}."
      },
      "name()": {
        "details": "See {IERC721Metadata-name}."
      },
      "ownerOf(uint256)": {
        "details": "See {IERC721-ownerOf}."
      },
      "safeTransferFrom(address,address,uint256)": {
        "details": "See {IERC721-safeTransferFrom}."
      },
      "safeTransferFrom(address,address,uint256,bytes)": {
        "details": "See {IERC721-safeTransferFrom}."
      },
      "setApprovalForAll(address,bool)": {
        "details": "See {IERC721-setApprovalForAll}."
      },
      "symbol()": {
        "details": "See {IERC721Metadata-symbol}."
      },
      "tokenByIndex(uint256)": {
        "details": "See {IERC721Enumerable-tokenByIndex}."
      },
      "tokenOfOwnerByIndex(address,uint256)": {
        "details": "See {IERC721Enumerable-tokenOfOwnerByIndex}."
      },
      "tokenURI(uint256)": {
        "details": "See {IERC721Metadata-tokenURI}."
      },
      "totalSupply()": {
        "details": "See {IERC721Enumerable-totalSupply}."
      },
      "transferFrom(address,address,uint256)": {
        "details": "See {IERC721-transferFrom}."
      }
    },
    "version": 1
  },
  "userdoc": {
    "kind": "user",
    "methods": {},
    "version": 1
  }
}