{
  "contractName": "Player",
  "abi": [
    {
      "inputs": [
        {
          "internalType": "address",
          "name": "_multisigManager",
          "type": "address"
        },
        {
          "internalType": "address",
          "name": "_nftaToken",
          "type": "address"
        },
        {
          "internalType": "address",
          "name": "_ecosystemFund",
          "type": "address"
        },
        {
          "internalType": "address",
          "name": "_routerContract",
          "type": "address"
        },
        {
          "internalType": "address",
          "name": "_wethToken",
          "type": "address"
        }
      ],
      "stateMutability": "nonpayable",
      "type": "constructor"
    },
    {
      "anonymous": false,
      "inputs": [
        {
          "indexed": true,
          "internalType": "address",
          "name": "target",
          "type": "address"
        },
        {
          "indexed": false,
          "internalType": "bool",
          "name": "value",
          "type": "bool"
        }
      ],
      "name": "ChangedAdditionalsPermission",
      "type": "event"
    },
    {
      "anonymous": false,
      "inputs": [
        {
          "indexed": true,
          "internalType": "address",
          "name": "sender",
          "type": "address"
        },
        {
          "indexed": false,
          "internalType": "uint256",
          "name": "price",
          "type": "uint256"
        }
      ],
      "name": "ChangedCoinRatingPrice",
      "type": "event"
    },
    {
      "anonymous": false,
      "inputs": [
        {
          "indexed": true,
          "internalType": "address",
          "name": "sender",
          "type": "address"
        },
        {
          "indexed": false,
          "internalType": "uint256",
          "name": "price",
          "type": "uint256"
        }
      ],
      "name": "ChangedNFTARatingPrice",
      "type": "event"
    },
    {
      "anonymous": false,
      "inputs": [
        {
          "indexed": true,
          "internalType": "address",
          "name": "sender",
          "type": "address"
        },
        {
          "indexed": false,
          "internalType": "address",
          "name": "newContract",
          "type": "address"
        }
      ],
      "name": "ChangedRankingContract",
      "type": "event"
    },
    {
      "anonymous": false,
      "inputs": [
        {
          "indexed": true,
          "internalType": "address",
          "name": "sender",
          "type": "address"
        },
        {
          "indexed": false,
          "internalType": "address",
          "name": "newContract",
          "type": "address"
        }
      ],
      "name": "ChangedRouterContract",
      "type": "event"
    },
    {
      "anonymous": false,
      "inputs": [
        {
          "indexed": true,
          "internalType": "bytes32",
          "name": "playerId",
          "type": "bytes32"
        },
        {
          "indexed": false,
          "internalType": "string",
          "name": "oldUsername",
          "type": "string"
        },
        {
          "indexed": false,
          "internalType": "string",
          "name": "newUsername",
          "type": "string"
        }
      ],
      "name": "ChangedUsername",
      "type": "event"
    },
    {
      "anonymous": false,
      "inputs": [
        {
          "indexed": true,
          "internalType": "address",
          "name": "sender",
          "type": "address"
        },
        {
          "indexed": false,
          "internalType": "bytes32",
          "name": "playerId",
          "type": "bytes32"
        },
        {
          "indexed": false,
          "internalType": "string",
          "name": "username",
          "type": "string"
        },
        {
          "indexed": false,
          "internalType": "uint256",
          "name": "str",
          "type": "uint256"
        },
        {
          "indexed": false,
          "internalType": "uint256",
          "name": "sta",
          "type": "uint256"
        },
        {
          "indexed": false,
          "internalType": "uint256",
          "name": "dex",
          "type": "uint256"
        },
        {
          "indexed": false,
          "internalType": "uint256",
          "name": "luc",
          "type": "uint256"
        }
      ],
      "name": "RatedPlayer",
      "type": "event"
    },
    {
      "inputs": [
        {
          "internalType": "uint256",
          "name": "newPrice",
          "type": "uint256"
        }
      ],
      "name": "setNFTARatingPrice",
      "outputs": [],
      "stateMutability": "nonpayable",
      "type": "function"
    },
    {
      "inputs": [
        {
          "internalType": "uint256",
          "name": "newPrice",
          "type": "uint256"
        }
      ],
      "name": "setCoinRatingPrice",
      "outputs": [],
      "stateMutability": "nonpayable",
      "type": "function"
    },
    {
      "inputs": [
        {
          "internalType": "address",
          "name": "newRankingContract",
          "type": "address"
        }
      ],
      "name": "setRankingContract",
      "outputs": [],
      "stateMutability": "nonpayable",
      "type": "function"
    },
    {
      "inputs": [
        {
          "internalType": "address",
          "name": "newRouterContract",
          "type": "address"
        }
      ],
      "name": "setRouterContract",
      "outputs": [],
      "stateMutability": "nonpayable",
      "type": "function"
    },
    {
      "inputs": [],
      "name": "launchContract",
      "outputs": [],
      "stateMutability": "nonpayable",
      "type": "function"
    },
    {
      "inputs": [
        {
          "internalType": "address",
          "name": "target",
          "type": "address"
        }
      ],
      "name": "switchAdditionalsPermission",
      "outputs": [],
      "stateMutability": "nonpayable",
      "type": "function"
    },
    {
      "inputs": [
        {
          "internalType": "address",
          "name": "tokenContract",
          "type": "address"
        },
        {
          "internalType": "uint256",
          "name": "tokenId",
          "type": "uint256"
        },
        {
          "internalType": "string",
          "name": "username",
          "type": "string"
        },
        {
          "internalType": "bool",
          "name": "nftaPayment",
          "type": "bool"
        }
      ],
      "name": "rating",
      "outputs": [],
      "stateMutability": "payable",
      "type": "function"
    },
    {
      "inputs": [
        {
          "internalType": "bytes32",
          "name": "targetPlayerId",
          "type": "bytes32"
        },
        {
          "internalType": "string",
          "name": "newUsername",
          "type": "string"
        }
      ],
      "name": "changeUsername",
      "outputs": [],
      "stateMutability": "nonpayable",
      "type": "function"
    },
    {
      "inputs": [
        {
          "internalType": "bytes32",
          "name": "targetPlayerId",
          "type": "bytes32"
        },
        {
          "internalType": "uint256",
          "name": "str",
          "type": "uint256"
        },
        {
          "internalType": "uint256",
          "name": "sta",
          "type": "uint256"
        },
        {
          "internalType": "uint256",
          "name": "dex",
          "type": "uint256"
        },
        {
          "internalType": "uint256",
          "name": "luc",
          "type": "uint256"
        }
      ],
      "name": "setStatPoints",
      "outputs": [],
      "stateMutability": "nonpayable",
      "type": "function"
    },
    {
      "inputs": [
        {
          "internalType": "bytes32",
          "name": "playerId",
          "type": "bytes32"
        },
        {
          "internalType": "uint256",
          "name": "newRank",
          "type": "uint256"
        }
      ],
      "name": "changeRank",
      "outputs": [],
      "stateMutability": "nonpayable",
      "type": "function"
    },
    {
      "inputs": [
        {
          "internalType": "bytes32",
          "name": "playerId",
          "type": "bytes32"
        },
        {
          "internalType": "uint256",
          "name": "amount",
          "type": "uint256"
        }
      ],
      "name": "addStatPoints",
      "outputs": [],
      "stateMutability": "nonpayable",
      "type": "function"
    },
    {
      "inputs": [
        {
          "internalType": "bytes32",
          "name": "playerId",
          "type": "bytes32"
        },
        {
          "internalType": "uint256",
          "name": "amount",
          "type": "uint256"
        }
      ],
      "name": "removeStatPoints",
      "outputs": [],
      "stateMutability": "nonpayable",
      "type": "function"
    },
    {
      "inputs": [
        {
          "internalType": "bytes32",
          "name": "playerId",
          "type": "bytes32"
        }
      ],
      "name": "resetStatPoints",
      "outputs": [],
      "stateMutability": "nonpayable",
      "type": "function"
    },
    {
      "inputs": [
        {
          "internalType": "bytes32",
          "name": "playerId",
          "type": "bytes32"
        },
        {
          "internalType": "string",
          "name": "key",
          "type": "string"
        },
        {
          "internalType": "uint256",
          "name": "value",
          "type": "uint256"
        }
      ],
      "name": "changeAdditionalNumbers",
      "outputs": [],
      "stateMutability": "nonpayable",
      "type": "function"
    },
    {
      "inputs": [
        {
          "internalType": "bytes32",
          "name": "playerId",
          "type": "bytes32"
        },
        {
          "internalType": "string",
          "name": "key",
          "type": "string"
        },
        {
          "internalType": "address",
          "name": "value",
          "type": "address"
        }
      ],
      "name": "changeAdditionalAddresses",
      "outputs": [],
      "stateMutability": "nonpayable",
      "type": "function"
    },
    {
      "inputs": [
        {
          "internalType": "string",
          "name": "username",
          "type": "string"
        }
      ],
      "name": "isUsernameUsed",
      "outputs": [
        {
          "internalType": "bool",
          "name": "",
          "type": "bool"
        }
      ],
      "stateMutability": "view",
      "type": "function"
    },
    {
      "inputs": [
        {
          "internalType": "bytes32",
          "name": "playerId",
          "type": "bytes32"
        }
      ],
      "name": "isPlayer",
      "outputs": [
        {
          "internalType": "bool",
          "name": "",
          "type": "bool"
        }
      ],
      "stateMutability": "view",
      "type": "function"
    },
    {
      "inputs": [
        {
          "internalType": "address",
          "name": "playerOwner",
          "type": "address"
        },
        {
          "internalType": "bytes32",
          "name": "playerId",
          "type": "bytes32"
        }
      ],
      "name": "isOwnerOfPlayer",
      "outputs": [
        {
          "internalType": "bool",
          "name": "",
          "type": "bool"
        }
      ],
      "stateMutability": "view",
      "type": "function"
    },
    {
      "inputs": [
        {
          "internalType": "bytes32",
          "name": "playerId",
          "type": "bytes32"
        }
      ],
      "name": "getPlayer",
      "outputs": [
        {
          "components": [
            {
              "internalType": "bytes32",
              "name": "id",
              "type": "bytes32"
            },
            {
              "internalType": "address",
              "name": "tokenContract",
              "type": "address"
            },
            {
              "internalType": "uint256",
              "name": "tokenId",
              "type": "uint256"
            },
            {
              "internalType": "string",
              "name": "username",
              "type": "string"
            },
            {
              "internalType": "uint256",
              "name": "created",
              "type": "uint256"
            },
            {
              "internalType": "uint256",
              "name": "str",
              "type": "uint256"
            },
            {
              "internalType": "uint256",
              "name": "sta",
              "type": "uint256"
            },
            {
              "internalType": "uint256",
              "name": "dex",
              "type": "uint256"
            },
            {
              "internalType": "uint256",
              "name": "luc",
              "type": "uint256"
            },
            {
              "internalType": "uint256",
              "name": "statPoints",
              "type": "uint256"
            },
            {
              "internalType": "uint256",
              "name": "rank",
              "type": "uint256"
            }
          ],
          "internalType": "struct Player.PlayerObject",
          "name": "",
          "type": "tuple"
        }
      ],
      "stateMutability": "view",
      "type": "function"
    },
    {
      "inputs": [],
      "name": "getPlayers",
      "outputs": [
        {
          "components": [
            {
              "internalType": "bytes32",
              "name": "id",
              "type": "bytes32"
            },
            {
              "internalType": "address",
              "name": "tokenContract",
              "type": "address"
            },
            {
              "internalType": "uint256",
              "name": "tokenId",
              "type": "uint256"
            },
            {
              "internalType": "string",
              "name": "username",
              "type": "string"
            },
            {
              "internalType": "uint256",
              "name": "created",
              "type": "uint256"
            },
            {
              "internalType": "uint256",
              "name": "str",
              "type": "uint256"
            },
            {
              "internalType": "uint256",
              "name": "sta",
              "type": "uint256"
            },
            {
              "internalType": "uint256",
              "name": "dex",
              "type": "uint256"
            },
            {
              "internalType": "uint256",
              "name": "luc",
              "type": "uint256"
            },
            {
              "internalType": "uint256",
              "name": "statPoints",
              "type": "uint256"
            },
            {
              "internalType": "uint256",
              "name": "rank",
              "type": "uint256"
            }
          ],
          "internalType": "struct Player.PlayerObject[]",
          "name": "",
          "type": "tuple[]"
        }
      ],
      "stateMutability": "view",
      "type": "function"
    },
    {
      "inputs": [
        {
          "internalType": "address",
          "name": "tokenContract",
          "type": "address"
        },
        {
          "internalType": "uint256",
          "name": "tokenId",
          "type": "uint256"
        }
      ],
      "name": "getPlayerIdByTokenValues",
      "outputs": [
        {
          "internalType": "bytes32",
          "name": "",
          "type": "bytes32"
        }
      ],
      "stateMutability": "view",
      "type": "function"
    },
    {
      "inputs": [
        {
          "internalType": "bytes32",
          "name": "playerId",
          "type": "bytes32"
        },
        {
          "internalType": "string",
          "name": "key",
          "type": "string"
        }
      ],
      "name": "getAdditionalNumbers",
      "outputs": [
        {
          "internalType": "uint256",
          "name": "",
          "type": "uint256"
        }
      ],
      "stateMutability": "view",
      "type": "function"
    },
    {
      "inputs": [
        {
          "internalType": "bytes32",
          "name": "playerId",
          "type": "bytes32"
        },
        {
          "internalType": "string",
          "name": "key",
          "type": "string"
        }
      ],
      "name": "getAdditionalAddresses",
      "outputs": [
        {
          "internalType": "address",
          "name": "",
          "type": "address"
        }
      ],
      "stateMutability": "view",
      "type": "function"
    },
    {
      "inputs": [
        {
          "internalType": "address",
          "name": "owner",
          "type": "address"
        }
      ],
      "name": "getHasOwner",
      "outputs": [
        {
          "internalType": "bool",
          "name": "",
          "type": "bool"
        }
      ],
      "stateMutability": "view",
      "type": "function"
    },
    {
      "inputs": [],
      "name": "getOwners",
      "outputs": [
        {
          "internalType": "address[]",
          "name": "",
          "type": "address[]"
        }
      ],
      "stateMutability": "view",
      "type": "function"
    },
    {
      "inputs": [],
      "name": "getPlayerIds",
      "outputs": [
        {
          "internalType": "bytes32[]",
          "name": "",
          "type": "bytes32[]"
        }
      ],
      "stateMutability": "view",
      "type": "function"
    },
    {
      "inputs": [],
      "name": "getPlayerAmount",
      "outputs": [
        {
          "internalType": "uint256",
          "name": "",
          "type": "uint256"
        }
      ],
      "stateMutability": "view",
      "type": "function"
    },
    {
      "inputs": [
        {
          "internalType": "bool",
          "name": "nftaPayment",
          "type": "bool"
        }
      ],
      "name": "getRatingPrice",
      "outputs": [
        {
          "internalType": "uint256",
          "name": "",
          "type": "uint256"
        }
      ],
      "stateMutability": "view",
      "type": "function"
    },
    {
      "inputs": [],
      "name": "getRankingContractAddress",
      "outputs": [
        {
          "internalType": "address",
          "name": "",
          "type": "address"
        }
      ],
      "stateMutability": "view",
      "type": "function"
    },
    {
      "inputs": [],
      "name": "getEcosystemContractAddress",
      "outputs": [
        {
          "internalType": "address",
          "name": "",
          "type": "address"
        }
      ],
      "stateMutability": "view",
      "type": "function"
    },
    {
      "inputs": [
        {
          "internalType": "address",
          "name": "target",
          "type": "address"
        }
      ],
      "name": "hasAdditionalsPermission",
      "outputs": [
        {
          "internalType": "bool",
          "name": "",
          "type": "bool"
        }
      ],
      "stateMutability": "view",
      "type": "function"
    },
    {
      "inputs": [],
      "name": "isLaunched",
      "outputs": [
        {
          "internalType": "bool",
          "name": "",
          "type": "bool"
        }
      ],
      "stateMutability": "view",
      "type": "function"
    }
  ],
  "bytecode": "0x60806040523480156200001157600080fd5b5060405162003962380380620039628339810160408190526200003491620000cd565b600080546001600160a01b03199081166001600160a01b0397881617909155600180548216958716959095179094556002805485169286169290921790915560048054841692851692909217909155600580549092169216919091179055670de0b6b3a764000060065567016345785d8a00006007556200013d565b80516001600160a01b0381168114620000c857600080fd5b919050565b600080600080600060a08688031215620000e657600080fd5b620000f186620000b0565b94506200010160208701620000b0565b93506200011160408701620000b0565b92506200012160608701620000b0565b91506200013160808701620000b0565b90509295509295909350565b613815806200014d6000396000f3fe6080604052600436106101e35760003560e01c80638b5b9ccc11610102578063cd20a7b411610095578063e520029c11610064578063e520029c146105cd578063e7602711146105e0578063f0d1c8b1146105f5578063fc5fc3451461062757600080fd5b8063cd20a7b414610534578063e2952f911461056d578063e45d50d21461058d578063e4ac74da146105ad57600080fd5b8063a0e67e2b116100d1578063a0e67e2b1461049b578063b8fd69c3146104bd578063bcbdca43146104f6578063c100cad31461051457600080fd5b80638b5b9ccc146104195780638d03b2eb1461043b5780638e410e011461045b5780639b8e58a31461047b57600080fd5b806358ca90501161017a578063707b75af11610149578063707b75af1461038c5780637105fc18146103ac578063838defbb146103cc57806385e78f85146103ec57600080fd5b806358ca9050146102f65780635e6dff0d1461032e578063695cb1d61461034c5780636cc91bca1461036c57600080fd5b80632e39256d116101b65780632e39256d1461025f578063307aebc91461027f57806337320618146102a857806355b0f887146102c857600080fd5b806315dbb841146101e857806319d38e3d1461020a57806319d45a081461022a57806321b8cbdf1461023f575b600080fd5b3480156101f457600080fd5b50610208610203366004612e38565b610649565b005b34801561021657600080fd5b50610208610225366004612e55565b61085f565b34801561023657600080fd5b50610208610909565b34801561024b57600080fd5b5061020861025a366004612e38565b610aeb565b34801561026b57600080fd5b5061020861027a366004612f2e565b610cca565b34801561028b57600080fd5b5060095460ff165b60405190151581526020015b60405180910390f35b3480156102b457600080fd5b506102936102c3366004612f75565b610f09565b3480156102d457600080fd5b506102e86102e3366004612f2e565b610f34565b60405190815260200161029f565b34801561030257600080fd5b50610316610311366004612f2e565b610f67565b6040516001600160a01b03909116815260200161029f565b34801561033a57600080fd5b506003546001600160a01b0316610316565b34801561035857600080fd5b50610208610367366004612fb2565b610fa4565b34801561037857600080fd5b50610208610387366004612e38565b611076565b34801561039857600080fd5b506102086103a736600461300d565b611253565b3480156103b857600080fd5b506102086103c736600461305d565b611306565b3480156103d857600080fd5b506102086103e736600461305d565b6114c4565b3480156103f857600080fd5b5061040c61040736600461305d565b6116f6565b60405161029f919061316c565b34801561042557600080fd5b5061042e611825565b60405161029f919061317f565b34801561044757600080fd5b506102e86104563660046131e1565b611a1c565b34801561046757600080fd5b50610208610476366004612e55565b611a99565b34801561048757600080fd5b50610208610496366004612e55565b611b31565b3480156104a757600080fd5b506104b0611bbd565b60405161029f9190613251565b3480156104c957600080fd5b506102936104d8366004612e38565b6001600160a01b03166000908152600d602052604090205460ff1690565b34801561050257600080fd5b506004546001600160a01b0316610316565b34801561052057600080fd5b5061029361052f3660046131e1565b611c1f565b34801561054057600080fd5b5061029361054f366004612e38565b6001600160a01b03166000908152600c602052604090205460ff1690565b34801561057957600080fd5b506102e8610588366004613272565b611cd7565b34801561059957600080fd5b506102086105a836600461305d565b611cef565b3480156105b957600080fd5b506102086105c836600461328f565b611ead565b6102086105db3660046132ca565b61217c565b3480156105ec57600080fd5b506008546102e8565b34801561060157600080fd5b5061029361061036600461305d565b6000908152600f6020526040902060040154151590565b34801561063357600080fd5b5061063c612cca565b60405161029f9190613336565b6000546040516366bd542360e11b81523360048201526001600160a01b039091169063cd7aa84690602401602060405180830381865afa158015610691573d6000803e3d6000fd5b505050506040513d601f19601f820116820180604052508101906106b5919061337a565b6106be57600080fd5b600054604051634a36d88560e01b815260206004820152601860248201527739b2ba20b23234ba34b7b730b639a832b936b4b9b9b4b7b760411b60448201526001600160a01b0390911690634a36d88590606401602060405180830381865afa15801561072f573d6000803e3d6000fd5b505050506040513d601f19601f82011682018060405250810190610753919061337a565b61075c57600080fd5b6001600160a01b038082166000908152600c6020526040808220805460ff19811660ff909116151790559054905163538f20d960e01b815291169063538f20d9906107d69060040160208082526018908201527739b2ba20b23234ba34b7b730b639a832b936b4b9b9b4b7b760411b604082015260600190565b600060405180830381600087803b1580156107f057600080fd5b505af1158015610804573d6000803e3d6000fd5b505050506001600160a01b0381166000818152600c602090815260409182902054915160ff909216151582527f3adaccfcaa72fcd51d1c139c59f7ba5c97a9dbf2f800fa6b910a8fdff3fb1c7291015b60405180910390a250565b6000828152600f60205260409020600401546108965760405162461bcd60e51b815260040161088d90613397565b60405180910390fd5b6003546001600160a01b031633146108c05760405162461bcd60e51b815260040161088d906133d8565b3233036108df5760405162461bcd60e51b815260040161088d9061340f565b6000828152600f60205260408120600901805483929061090090849061345c565b90915550505050565b60095460ff16156109675760405162461bcd60e51b815260206004820152602260248201527f5468697320636f6e747261637420697320616c7265616479206c61756e636865604482015261321760f11b606482015260840161088d565b6000546040516366bd542360e11b81523360048201526001600160a01b039091169063cd7aa84690602401602060405180830381865afa1580156109af573d6000803e3d6000fd5b505050506040513d601f19601f820116820180604052508101906109d3919061337a565b6109dc57600080fd5b600054604051634a36d88560e01b81526020600482015260066024820152650d8c2eadcc6d60d31b60448201526001600160a01b0390911690634a36d88590606401602060405180830381865afa158015610a3b573d6000803e3d6000fd5b505050506040513d601f19601f82011682018060405250810190610a5f919061337a565b610a6857600080fd5b6009805460ff1916600117905560005460405163538f20d960e01b81526020600482015260066024820152650d8c2eadcc6d60d31b60448201526001600160a01b039091169063538f20d990606401600060405180830381600087803b158015610ad157600080fd5b505af1158015610ae5573d6000803e3d6000fd5b50505050565b6000546040516366bd542360e11b81523360048201526001600160a01b039091169063cd7aa84690602401602060405180830381865afa158015610b33573d6000803e3d6000fd5b505050506040513d601f19601f82011682018060405250810190610b57919061337a565b610b6057600080fd5b600054604051634a36d88560e01b81526020600482015260126024820152711cd95d14985b9ada5b99d0dbdb9d1c9858dd60721b60448201526001600160a01b0390911690634a36d88590606401602060405180830381865afa158015610bcb573d6000803e3d6000fd5b505050506040513d601f19601f82011682018060405250810190610bef919061337a565b610bf857600080fd5b600380546001600160a01b0319166001600160a01b038381169190911790915560005460405163538f20d960e01b81526020600482015260126024820152711cd95d14985b9ada5b99d0dbdb9d1c9858dd60721b604482015291169063538f20d990606401600060405180830381600087803b158015610c7757600080fd5b505af1158015610c8b573d6000803e3d6000fd5b50506040516001600160a01b03841681523292507fb44d4aff02e2f5d599b0d0499d11ae51c4797adddf2e29634dd86d50b096934b9150602001610854565b600e81604051610cda9190613473565b9081526040519081900360200190205460ff1615610d3a5760405162461bcd60e51b815260206004820181905260248201527f557365726e616d652068617320616c7265616479206265656e2074616b656e2e604482015260640161088d565b6000828152600f6020526040902060040154610d685760405162461bcd60e51b815260040161088d90613397565b6000828152600f6020526040808220600181015460029091015491516331a9108f60e11b815260048101929092526001600160a01b031691908290636352211e90602401602060405180830381865afa158015610dc9573d6000803e3d6000fd5b505050506040513d601f19601f82011682018060405250810190610ded919061348f565b9050336001600160a01b03821614610e175760405162461bcd60e51b815260040161088d906134ac565b6001600e84604051610e299190613473565b908152604080519182900360209081018320805494151560ff19909516949094179093556000878152600f9093528220600e91610e699160030190613517565b908152602001604051809103902060006101000a81548160ff021916908315150217905550837fb2b62f3e397b22747c1731b615e46eb9b4b76f77b196bea3d75047f5358ad6ff600f600087815260200190815260200160002060030185604051610ed5929190613589565b60405180910390a26000848152600f602090815260409091208451610f0292600390920191860190612d21565b5050505050565b6000600e82604051610f1b9190613473565b9081526040519081900360200190205460ff1692915050565b6000828152601060205260408082209051610f50908490613473565b908152602001604051809103902054905092915050565b6000828152601160205260408082209051610f83908490613473565b908152604051908190036020019020546001600160a01b0316905092915050565b6000838152600f6020526040902060040154610fd25760405162461bcd60e51b815260040161088d90613397565b336000908152600c602052604090205460ff166110015760405162461bcd60e51b815260040161088d906133d8565b3233036110205760405162461bcd60e51b815260040161088d9061340f565b8060116000858152602001908152602001600020836040516110429190613473565b90815260405190819003602001902080546001600160a01b03929092166001600160a01b0319909216919091179055505050565b6000546040516366bd542360e11b81523360048201526001600160a01b039091169063cd7aa84690602401602060405180830381865afa1580156110be573d6000803e3d6000fd5b505050506040513d601f19601f820116820180604052508101906110e2919061337a565b6110eb57600080fd5b600054604051634a36d88560e01b81526020600482015260116024820152701cd95d149bdd5d195c90dbdb9d1c9858dd607a1b60448201526001600160a01b0390911690634a36d88590606401602060405180830381865afa158015611155573d6000803e3d6000fd5b505050506040513d601f19601f82011682018060405250810190611179919061337a565b61118257600080fd5b600280546001600160a01b0319166001600160a01b038381169190911790915560005460405163538f20d960e01b81526020600482015260116024820152701cd95d149bdd5d195c90dbdb9d1c9858dd607a1b604482015291169063538f20d990606401600060405180830381600087803b15801561120057600080fd5b505af1158015611214573d6000803e3d6000fd5b50506040516001600160a01b03841681523292507f5db34849fb83487a8efa49f42fab9a94dbab8571489624752609f2e9ebfaae689150602001610854565b6000838152600f60205260409020600401546112815760405162461bcd60e51b815260040161088d90613397565b336000908152600c602052604090205460ff166112b05760405162461bcd60e51b815260040161088d906133d8565b3233036112cf5760405162461bcd60e51b815260040161088d9061340f565b8060106000858152602001908152602001600020836040516112f19190613473565b90815260405190819003602001902055505050565b6000546040516366bd542360e11b81523360048201526001600160a01b039091169063cd7aa84690602401602060405180830381865afa15801561134e573d6000803e3d6000fd5b505050506040513d601f19601f82011682018060405250810190611372919061337a565b61137b57600080fd5b600054604051634a36d88560e01b815260206004820152600f60248201526e6e667461526174696e67507269636560881b60448201526001600160a01b0390911690634a36d88590606401602060405180830381865afa1580156113e3573d6000803e3d6000fd5b505050506040513d601f19601f82011682018060405250810190611407919061337a565b61141057600080fd5b600681905560005460405163538f20d960e01b815260206004820152600f60248201526e6e667461526174696e67507269636560881b60448201526001600160a01b039091169063538f20d990606401600060405180830381600087803b15801561147a57600080fd5b505af115801561148e573d6000803e3d6000fd5b50506040518381523292507fd5ad71f49a33d685fad4d076e5030bbbd452fb3556892b7c9a9d7c942b2a12699150602001610854565b6000818152600f60205260409020600401546114f25760405162461bcd60e51b815260040161088d90613397565b6000818152600f6020526040808220600181015460029091015491516331a9108f60e11b815260048101929092526001600160a01b031691908290636352211e90602401602060405180830381865afa158015611553573d6000803e3d6000fd5b505050506040513d601f19601f82011682018060405250810190611577919061348f565b9050336001600160a01b038216146115a15760405162461bcd60e51b815260040161088d906134ac565b6000838152600f6020526040812060098101546008820154600783015460068401546005909401546028946115d591613622565b6115df9190613622565b6115e99190613622565b6115f39190613622565b6115fd919061345c565b600085815260106020818152604080842081516e0d2dcd2e8d2c2d8a6e8e4cadccee8d608b1b8152600f808201839052835191829003602f018220548c885281865284882060058101919091558686526d696e697469616c5374616d696e6160901b8352600e8301849052845192839003602e018320548d895260068201558686526f696e697469616c44657874657269747960801b83528287018490528451928390036030018320548d895260078201559585526a696e697469616c4c75636b60a81b8252600b820192909252915191829003602b019091205498909352919091526008810195909555600990940193909355505050565b6116fe612da5565b6000828152600f60209081526040918290208251610160810184528154815260018201546001600160a01b031692810192909252600281015492820192909252600382018054919291606084019190611756906134e3565b80601f0160208091040260200160405190810160405280929190818152602001828054611782906134e3565b80156117cf5780601f106117a4576101008083540402835291602001916117cf565b820191906000526020600020905b8154815290600101906020018083116117b257829003601f168201915b50505050508152602001600482015481526020016005820154815260200160068201548152602001600782015481526020016008820154815260200160098201548152602001600a820154815250509050919050565b600b5460609060009067ffffffffffffffff81111561184657611846612e77565b60405190808252806020026020018201604052801561187f57816020015b61186c612da5565b8152602001906001900390816118645790505b50905060005b600b54811015611a1657600f6000600b83815481106118a6576118a661363a565b9060005260206000200154815260200190815260200160002060405180610160016040529081600082015481526020016001820160009054906101000a90046001600160a01b03166001600160a01b03166001600160a01b031681526020016002820154815260200160038201805461191e906134e3565b80601f016020809104026020016040519081016040528092919081815260200182805461194a906134e3565b80156119975780601f1061196c57610100808354040283529160200191611997565b820191906000526020600020905b81548152906001019060200180831161197a57829003601f168201915b50505050508152602001600482015481526020016005820154815260200160068201548152602001600782015481526020016008820154815260200160098201548152602001600a820154815250508282815181106119f8576119f861363a565b60200260200101819052508080611a0e90613650565b915050611885565b50919050565b6000806000600f60008686604051602001611a38929190613669565b604051602081830303815290604052805190602001208152602001908152602001600020600401541115611a92578383604051602001611a79929190613669565b6040516020818303038152906040528051906020012090505b9392505050565b6000828152600f6020526040902060040154611ac75760405162461bcd60e51b815260040161088d90613397565b6003546001600160a01b03163314611af15760405162461bcd60e51b815260040161088d906133d8565b323303611b105760405162461bcd60e51b815260040161088d9061340f565b6000828152600f602052604081206009018054839290610900908490613622565b6000828152600f6020526040902060040154611b5f5760405162461bcd60e51b815260040161088d90613397565b6003546001600160a01b03163314611b895760405162461bcd60e51b815260040161088d906133d8565b323303611ba85760405162461bcd60e51b815260040161088d9061340f565b6000918252600f6020526040909120600a0155565b6060600a805480602002602001604051908101604052809291908181526020018280548015611c1557602002820191906000526020600020905b81546001600160a01b03168152600190910190602001808311611bf7575b5050505050905090565b6000818152600f6020526040812060040154819015611a92576000838152600f6020526040808220600181015460029091015491516331a9108f60e11b815260048101929092526001600160a01b031691908290636352211e90602401602060405180830381865afa158015611c99573d6000803e3d6000fd5b505050506040513d601f19601f82011682018060405250810190611cbd919061348f565b6001600160a01b0387811691161492505050905092915050565b60008115611ce757505060065490565b505060075490565b6000546040516366bd542360e11b81523360048201526001600160a01b039091169063cd7aa84690602401602060405180830381865afa158015611d37573d6000803e3d6000fd5b505050506040513d601f19601f82011682018060405250810190611d5b919061337a565b611d6457600080fd5b600054604051634a36d88560e01b815260206004820152600f60248201526e636f696e526174696e67507269636560881b60448201526001600160a01b0390911690634a36d88590606401602060405180830381865afa158015611dcc573d6000803e3d6000fd5b505050506040513d601f19601f82011682018060405250810190611df0919061337a565b611df957600080fd5b600781905560005460405163538f20d960e01b815260206004820152600f60248201526e636f696e526174696e67507269636560881b60448201526001600160a01b039091169063538f20d990606401600060405180830381600087803b158015611e6357600080fd5b505af1158015611e77573d6000803e3d6000fd5b50506040518381523292507fbb6e5cd6ac2ab75a20c7441cc1c102ef597d52dd6f5c4d06175906b66ab0fd549150602001610854565b6000858152600f6020526040902060040154611edb5760405162461bcd60e51b815260040161088d90613397565b6000858152600f6020526040902060090154611f505760405162461bcd60e51b815260206004820152602e60248201527f5468652074617267657420706c6179657220686173206e6f2072656d61696e6960448201526d37339039ba30ba3837b4b73a399760911b606482015260840161088d565b8082611f5c8587613622565b611f669190613622565b611f709190613622565b6000868152600f60205260409020600901541015611fe55760405162461bcd60e51b815260206004820152602c60248201527f5468652074617267657420706c6179657220686173206e6f7420656e6f75676860448201526b1039ba30ba3837b4b73a399760a11b606482015260840161088d565b6000858152600f6020526040808220600181015460029091015491516331a9108f60e11b815260048101929092526001600160a01b031691908290636352211e90602401602060405180830381865afa158015612046573d6000803e3d6000fd5b505050506040513d601f19601f8201168201806040525081019061206a919061348f565b9050336001600160a01b038216146120945760405162461bcd60e51b815260040161088d906134ac565b6000878152600f6020526040812060050180548892906120b5908490613622565b90915550506000878152600f6020526040812060060180548792906120db908490613622565b90915550506000878152600f602052604081206007018054869290612101908490613622565b90915550506000878152600f602052604081206008018054859290612127908490613622565b90915550839050846121398789613622565b6121439190613622565b61214d9190613622565b6000888152600f60205260408120600901805490919061216e90849061345c565b909155505050505050505050565b60095460ff166121f45760405162461bcd60e51b815260206004820152603f60248201527f546869732066756e6374696f6e206973206e6f7420617661696c61626c652c2060448201527f706c65617365207761697420666f722070726f6a656374206c61756e63682e00606482015260840161088d565b8015612340576000600654116122725760405162461bcd60e51b815260206004820152603d60248201527f54686520707269636520666f7220726174696e6773207061696420776974682060448201527f4e46544120746f6b656e7320686173206e6f74206265656e207365742e000000606482015260840161088d565b6006546001546040516370a0823160e01b81523360048201526001600160a01b03909116906370a0823190602401602060405180830381865afa1580156122bd573d6000803e3d6000fd5b505050506040513d601f19601f820116820180604052508101906122e1919061368b565b101561233b5760405162461bcd60e51b815260206004820152602360248201527f596f7572204e46544120546f6b656e2062616c616e636520697320746f6f206c60448201526237bb9760e91b606482015260840161088d565b612427565b6000600754116123cb5760405162461bcd60e51b815260206004820152604a60248201527f54686520707269636520666f7220726174696e6773207061696420776974682060448201527f7468652063757272656e74206e6574776f726b20636f696e20686173206e6f74606482015269103132b2b71039b2ba1760b11b608482015260a40161088d565b6007543410156124275760405162461bcd60e51b815260206004820152602160248201527f596f7572207472616e7366657265642076616c756520697320746f6f206c6f776044820152601760f91b606482015260840161088d565b6040516331a9108f60e11b81526004810184905284906000906001600160a01b03831690636352211e90602401602060405180830381865afa158015612471573d6000803e3d6000fd5b505050506040513d601f19601f82011682018060405250810190612495919061348f565b9050336001600160a01b038216146124bf5760405162461bcd60e51b815260040161088d906134ac565b600086866040516020016124d4929190613669565b60408051601f1981840301815291815281516020928301206000818152600f909352912060040154909150156125565760405162461bcd60e51b815260206004820152602160248201527f596f757220746172676574204e465420697320616c72656164792072617465646044820152601760f91b606482015260840161088d565b600e856040516125669190613473565b9081526040519081900360200190205460ff16156125c65760405162461bcd60e51b815260206004820181905260248201527f557365726e616d652068617320616c7265616479206265656e2074616b656e2e604482015260640161088d565b831561265657600154600480546006546040516323b872dd60e01b815233938101939093526001600160a01b0391821660248401526044830152909116906323b872dd906064016020604051808303816000875af115801561262c573d6000803e3d6000fd5b505050506040513d601f19601f82011682018060405250810190612650919061337a565b50612883565b6000612664426103e8613622565b6040805160028082526060820183529293506000929091602083019080368337505060055482519293506001600160a01b0316918391506000906126aa576126aa61363a565b6001600160a01b03928316602091820292909201015260018054835192169183919081106126da576126da61363a565b6001600160a01b039283166020918202929092010152600254604051637ff36ab560e01b81526000929190911690637ff36ab5903490612724908590879030908a906004016136a4565b60006040518083038185885af1158015612742573d6000803e3d6000fd5b50505050506040513d6000823e601f3d908101601f1916820160405261276b91908101906136d9565b90506000816001815181106127825761278261363a565b6020026020010151111561287f576001546040516370a0823160e01b81523060048201526000916001600160a01b0316906370a0823190602401602060405180830381865afa1580156127d9573d6000803e3d6000fd5b505050506040513d601f19601f820116820180604052508101906127fd919061368b565b6001546004805460405163a9059cbb60e01b81526001600160a01b03918216928101929092526024820184905292935091169063a9059cbb906044016020604051808303816000875af1158015612858573d6000803e3d6000fd5b505050506040513d601f19601f8201168201806040525081019061287c919061337a565b50505b5050505b60146000612892600b8461377f565b905060006128a1826005613622565b90506128ad828461345c565b9250600b8a426040516020016128c4929190613669565b6040516020818303038152906040528051906020012060001c6128e7919061377f565b915060006128f6836005613622565b9050612902838561345c565b9350600580851561298557600b8c4260405160200161292b929190918252602082015260400190565b6040516020818303038152906040528051906020012060001c61294e919061377f565b9450848610612974576129618583613622565b915061296d858761345c565b9550612985565b61297e8683613622565b9150600095505b851561299c576129958682613622565b9050600095505b60006040518061016001604052808981526020018f6001600160a01b031681526020018e81526020018d8152602001428152602001868152602001858152602001848152602001838152602001600a81526020016000815250905084601060008a8152602001908152602001600020604051612a2d906e0d2dcd2e8d2c2d8a6e8e4cadccee8d608b1b8152600f0190565b90815260408051602092819003830181209390935560008b815260108084528282206d696e697469616c5374616d696e6160901b8652600e808701829052845196879003602e0187208b90558e84528286526f696e697469616c44657874657269747960801b875286830182905284519687900360300187208a9055928e905293526a696e697469616c4c75636b60a81b8452600b84019290925251602b92819003929092018220849055600191612ae6908f90613473565b9081526040805160209281900383019020805460ff19169315159390931790925560008a8152600f825282902083518155838201516001820180546001600160a01b0319166001600160a01b0390921691909117905591830151600283015560608301518051849392612b60926003850192910190612d21565b506080820151600482015560a0820151600582015560c0820151600682015560e08201516007820155610100820151600880830191909155610120830151600983015561014090920151600a90910155600b80546001818101835560009283527f0175b7a638427703f0dbe7bb9bbf987a2551717b34e79f33b5b1008d1fa01db99091018b9055825490929190612bf8908490613622565b9091555050336000908152600d602052604090205460ff16612c6f57600a805460018181019092557fc65a7bb8d6351c1cf70c95a316cc6a92839c986682d98bc35f958f4883f9d2a80180546001600160a01b031916339081179091556000908152600d60205260409020805460ff191690911790555b326001600160a01b03167f08e74cd23f569f901b9199f007bc039f481c0be2e05a84a515fd2c0f39fd2517898e88888888604051612cb2969594939291906137a1565b60405180910390a25050505050505050505050505050565b6060600b805480602002602001604051908101604052809291908181526020018280548015611c1557602002820191906000526020600020905b815481526020019060010190808311612d04575050505050905090565b828054612d2d906134e3565b90600052602060002090601f016020900481019282612d4f5760008555612d95565b82601f10612d6857805160ff1916838001178555612d95565b82800160010185558215612d95579182015b82811115612d95578251825591602001919060010190612d7a565b50612da1929150612e0b565b5090565b6040518061016001604052806000801916815260200160006001600160a01b031681526020016000815260200160608152602001600081526020016000815260200160008152602001600081526020016000815260200160008152602001600081525090565b5b80821115612da15760008155600101612e0c565b6001600160a01b0381168114612e3557600080fd5b50565b600060208284031215612e4a57600080fd5b8135611a9281612e20565b60008060408385031215612e6857600080fd5b50508035926020909101359150565b634e487b7160e01b600052604160045260246000fd5b604051601f8201601f1916810167ffffffffffffffff81118282101715612eb657612eb6612e77565b604052919050565b600082601f830112612ecf57600080fd5b813567ffffffffffffffff811115612ee957612ee9612e77565b612efc601f8201601f1916602001612e8d565b818152846020838601011115612f1157600080fd5b816020850160208301376000918101602001919091529392505050565b60008060408385031215612f4157600080fd5b82359150602083013567ffffffffffffffff811115612f5f57600080fd5b612f6b85828601612ebe565b9150509250929050565b600060208284031215612f8757600080fd5b813567ffffffffffffffff811115612f9e57600080fd5b612faa84828501612ebe565b949350505050565b600080600060608486031215612fc757600080fd5b83359250602084013567ffffffffffffffff811115612fe557600080fd5b612ff186828701612ebe565b925050604084013561300281612e20565b809150509250925092565b60008060006060848603121561302257600080fd5b83359250602084013567ffffffffffffffff81111561304057600080fd5b61304c86828701612ebe565b925050604084013590509250925092565b60006020828403121561306f57600080fd5b5035919050565b60005b83811015613091578181015183820152602001613079565b83811115610ae55750506000910152565b600081518084526130ba816020860160208601613076565b601f01601f19169290920160200192915050565b60006101608251845260208301516130f160208601826001600160a01b03169052565b50604083015160408501526060830151816060860152613113828601826130a2565b9150506080830151608085015260a083015160a085015260c083015160c085015260e083015160e08501526101008084015181860152506101208084015181860152506101408084015181860152508091505092915050565b602081526000611a9260208301846130ce565b6000602080830181845280855180835260408601915060408160051b870101925083870160005b828110156131d457603f198886030184526131c28583516130ce565b945092850192908501906001016131a6565b5092979650505050505050565b600080604083850312156131f457600080fd5b82356131ff81612e20565b946020939093013593505050565b600081518084526020808501945080840160005b838110156132465781516001600160a01b031687529582019590820190600101613221565b509495945050505050565b602081526000611a92602083018461320d565b8015158114612e3557600080fd5b60006020828403121561328457600080fd5b8135611a9281613264565b600080600080600060a086880312156132a757600080fd5b505083359560208501359550604085013594606081013594506080013592509050565b600080600080608085870312156132e057600080fd5b84356132eb81612e20565b935060208501359250604085013567ffffffffffffffff81111561330e57600080fd5b61331a87828801612ebe565b925050606085013561332b81613264565b939692955090935050565b6020808252825182820181905260009190848201906040850190845b8181101561336e57835183529284019291840191600101613352565b50909695505050505050565b60006020828403121561338c57600080fd5b8151611a9281613264565b60208082526021908201527f5468652074617267657420706c6179657220646f6573206e6f742065786973746040820152601760f91b606082015260800190565b6020808252601b908201527f5468652073656e646572206973206e6f7420617070726f7665642e0000000000604082015260600190565b60208082526018908201527f53656e646572206973206e6f74206120636f6e74726163740000000000000000604082015260600190565b634e487b7160e01b600052601160045260246000fd5b60008282101561346e5761346e613446565b500390565b60008251613485818460208701613076565b9190910192915050565b6000602082840312156134a157600080fd5b8151611a9281612e20565b6020808252601e908201527f596f7520646f206e6f74206f776e2074686520746172676574204e46542e0000604082015260600190565b600181811c908216806134f757607f821691505b602082108103611a1657634e487b7160e01b600052602260045260246000fd5b6000808354613525816134e3565b6001828116801561353d576001811461354e5761357d565b60ff1984168752828701945061357d565b8760005260208060002060005b858110156135745781548a82015290840190820161355b565b50505082870194505b50929695505050505050565b60408152600080845461359b816134e3565b80604086015260606001808416600081146135bd57600181146135d157613602565b60ff19851688840152608088019550613602565b8960005260208060002060005b868110156135f95781548b82018701529084019082016135de565b8a018501975050505b5050505050828103602084015261361981856130a2565b95945050505050565b6000821982111561363557613635613446565b500190565b634e487b7160e01b600052603260045260246000fd5b60006001820161366257613662613446565b5060010190565b60609290921b6bffffffffffffffffffffffff19168252601482015260340190565b60006020828403121561369d57600080fd5b5051919050565b8481526080602082015260006136bd608083018661320d565b6001600160a01b03949094166040830152506060015292915050565b600060208083850312156136ec57600080fd5b825167ffffffffffffffff8082111561370457600080fd5b818501915085601f83011261371857600080fd5b81518181111561372a5761372a612e77565b8060051b915061373b848301612e8d565b818152918301840191848101908884111561375557600080fd5b938501935b838510156137735784518252938501939085019061375a565b98975050505050505050565b60008261379c57634e487b7160e01b600052601260045260246000fd5b500690565b86815260c0602082015260006137ba60c08301886130a2565b90508560408301528460608301528360808301528260a083015297965050505050505056fea2646970667358221220e5c3acd130f193f6e174cd2d46c3758d22cebd48698c6352895edbf0697f7a3464736f6c634300080d0033",
  "immutableReferences": {},
  "source": "// SPDX-License-Identifier: MIT\npragma solidity ^0.8.0;\n\nimport \"@openzeppelin/contracts/token/ERC20/IERC20.sol\";\nimport \"@openzeppelin/contracts/token/ERC721/IERC721.sol\";\nimport \"./IRouter.sol\";\nimport \"./IMultisigManager.sol\";\n\ncontract Player {\n    struct PlayerObject {\n        bytes32 id; //keccak of token contract & token id\n        address tokenContract; //players token contract\n        uint256 tokenId; //players token id\n        string username; //players pseudonym\n        uint256 created; //players created timestamp\n        uint256 str; //players strength stats\n        uint256 sta; //players stamina stats\n        uint256 dex; //players dexterity stats\n        uint256 luc; //players luck stats\n        uint256 statPoints; //players available statpoints\n        uint256 rank; //players rank\n    }\n\n    IMultisigManager private multisigManager;\n    IERC20 private nftaToken;\n    IRouter private routerContract;\n    address private rankingContract;\n    address private ecosystemFund;\n    address private wethToken;\n    uint256 private nftaRatingPrice;\n    uint256 private coinRatingPrice;\n    uint256 private playerCounter;\n    bool private launched;\n    address[] private owners;\n    bytes32[] private playerIds;\n    mapping(address => bool) private changeAdditionalsPermission;\n    mapping(address => bool) private hasOwner;\n    mapping(string => bool) private hasUsername;\n    mapping(bytes32 => PlayerObject) private players;\n    mapping(bytes32 => mapping(string => uint256)) private playerAdditionalNumbers;\n    mapping(bytes32 => mapping(string => address)) private playerAdditionalAddresses;\n\n    event ChangedNFTARatingPrice(address indexed sender, uint256 price);\n    event ChangedCoinRatingPrice(address indexed sender, uint256 price);\n    event ChangedRankingContract(address indexed sender, address newContract);\n    event ChangedRouterContract(address indexed sender, address newContract);\n    event ChangedAdditionalsPermission(address indexed target, bool value);\n    event RatedPlayer(address indexed sender, bytes32 playerId, string username, uint256 str, uint256 sta, uint256 dex, uint256 luc);\n    event ChangedUsername(bytes32 indexed playerId, string oldUsername, string newUsername);\n\n    constructor(address _multisigManager, address _nftaToken, address _ecosystemFund, address _routerContract, address _wethToken) {\n        multisigManager = IMultisigManager(_multisigManager);\n        nftaToken = IERC20(_nftaToken);\n        routerContract = IRouter(_routerContract);\n        ecosystemFund = _ecosystemFund;\n        wethToken = _wethToken;\n        nftaRatingPrice = 1 * 10 ** 18; //1 NFTA Token\n        coinRatingPrice = 1 * 10 ** 17; //0.1 Coin\n    }\n\n    function setNFTARatingPrice(uint256 newPrice) external {\n        require(multisigManager.senderIsMasterOrMember(msg.sender));\n        require(multisigManager.checkAllPermission(\"nftaRatingPrice\"));\n        nftaRatingPrice = newPrice;\n        multisigManager.resetFunctionPermission(\"nftaRatingPrice\");\n        emit ChangedNFTARatingPrice(tx.origin, newPrice);\n    }\n\n    function setCoinRatingPrice(uint256 newPrice) external {\n        require(multisigManager.senderIsMasterOrMember(msg.sender));\n        require(multisigManager.checkAllPermission(\"coinRatingPrice\"));\n        coinRatingPrice = newPrice;\n        multisigManager.resetFunctionPermission(\"coinRatingPrice\");\n        emit ChangedCoinRatingPrice(tx.origin, newPrice);\n    }\n\n    function setRankingContract(address newRankingContract) external {\n        require(multisigManager.senderIsMasterOrMember(msg.sender));\n        require(multisigManager.checkAllPermission(\"setRankingContract\"));\n        rankingContract = newRankingContract;\n        multisigManager.resetFunctionPermission(\"setRankingContract\");\n        emit ChangedRankingContract(tx.origin, newRankingContract);\n    }\n\n    function setRouterContract(address newRouterContract) external {\n        require(multisigManager.senderIsMasterOrMember(msg.sender));\n        require(multisigManager.checkAllPermission(\"setRouterContract\"));\n        routerContract = IRouter(newRouterContract);\n        multisigManager.resetFunctionPermission(\"setRouterContract\");\n        emit ChangedRouterContract(tx.origin, newRouterContract);\n    }\n\n    function launchContract() external {\n        require(!launched, \"This contract is already launched.\");\n        require(multisigManager.senderIsMasterOrMember(msg.sender));\n        require(multisigManager.checkAllPermission(\"launch\"));\n        launched = true;\n        multisigManager.resetFunctionPermission(\"launch\");\n    }\n\n    function switchAdditionalsPermission(address target) external {\n        require(multisigManager.senderIsMasterOrMember(msg.sender));\n        require(multisigManager.checkAllPermission(\"setAdditionalsPermission\"));\n        changeAdditionalsPermission[target] = !changeAdditionalsPermission[target];\n        multisigManager.resetFunctionPermission(\"setAdditionalsPermission\");\n        emit ChangedAdditionalsPermission(target, changeAdditionalsPermission[target]);\n    }\n\n    function rating(address tokenContract, uint256 tokenId, string memory username, bool nftaPayment) external payable {\n        //Check basic requirements\n        require(launched, \"This function is not available, please wait for project launch.\");\n        if (nftaPayment) {\n            require(nftaRatingPrice > 0, \"The price for ratings paid with NFTA tokens has not been set.\");\n            require(nftaToken.balanceOf(msg.sender) >= nftaRatingPrice, \"Your NFTA Token balance is too low.\");\n        } else {\n            require(coinRatingPrice > 0, \"The price for ratings paid with the current network coin has not been set.\");\n            require(msg.value >= coinRatingPrice, \"Your transfered value is too low.\");\n        }\n\n        //Check target NFT & ownership\n        IERC721 target = IERC721(tokenContract);\n        address targetOwner = target.ownerOf(tokenId);\n        require(msg.sender == targetOwner, \"You do not own the target NFT.\");\n\n        //Check target NFT is not already rated\n        bytes32 newPlayerId = keccak256(abi.encodePacked(tokenContract, tokenId));\n        require(players[newPlayerId].created == 0, \"Your target NFT is already rated.\");\n\n        //Check username is available\n        require(!hasUsername[username], \"Username has already been taken.\");\n\n        //Apply payment\n        if (nftaPayment) {\n            nftaToken.transferFrom(msg.sender, ecosystemFund, nftaRatingPrice);\n        } else {\n            uint deadline = block.timestamp + 1000;\n            address[] memory path = new address[](2);\n            path[0] = wethToken;\n            path[1] = address(nftaToken);\n            uint[] memory resultAmounts = routerContract.swapExactETHForTokens{value: msg.value}(0, path, address(this), deadline);\n            if (resultAmounts[1] > 0) {\n                uint256 contractBalance = nftaToken.balanceOf(address(this));\n                nftaToken.transfer(ecosystemFund, contractBalance);\n            }\n        }\n\n        //Calculate stats\n        uint256 varPoints = 20;\n        uint256 pseudoRand = (uint256(newPlayerId) % 11);\n        uint256 strength = 5 + pseudoRand;\n        varPoints -= pseudoRand;\n        pseudoRand = (uint256(keccak256(abi.encodePacked(tokenContract, block.timestamp))) % 11);\n        uint256 stamina = 5 + pseudoRand;\n        varPoints -= pseudoRand;\n        uint256 dexterity = 5;\n        uint256 luck = 5;\n        if (varPoints > 0) {\n            pseudoRand = (uint256(keccak256(abi.encodePacked(tokenId, block.timestamp))) % 11);\n            if (varPoints >= pseudoRand) {\n                dexterity += pseudoRand;\n                varPoints -= pseudoRand;\n            } else {\n                dexterity += varPoints;\n                varPoints = 0;\n            }\n        }\n        if (varPoints > 0) {\n            luck += varPoints;\n            varPoints = 0;\n        }\n\n        //Create new player\n        PlayerObject memory newPlayerObject = PlayerObject(\n            newPlayerId, //keccak of token contract & token id\n            tokenContract, //players token contract\n            tokenId, //players token id\n            username, //players pseudonym\n            block.timestamp, //players created timestamp\n            strength, //players strength stats\n            stamina, //players stamina stats\n            dexterity, //players dexterity stats\n            luck, //players luck stats\n            10, //players available statpoints\n            0 //players rank\n        );\n        playerAdditionalNumbers[newPlayerId][\"initialStrength\"] = strength;\n        playerAdditionalNumbers[newPlayerId][\"initialStamina\"] = stamina;\n        playerAdditionalNumbers[newPlayerId][\"initialDexterity\"] = dexterity;\n        playerAdditionalNumbers[newPlayerId][\"initialLuck\"] = luck;\n        hasUsername[username] = true;\n        players[newPlayerId] = newPlayerObject;\n        playerIds.push(newPlayerId);\n        playerCounter += 1;\n        if (!hasOwner[msg.sender]) {\n            owners.push(msg.sender);\n            hasOwner[msg.sender] = true;\n        }\n        emit RatedPlayer(tx.origin, newPlayerId, username, strength, stamina, dexterity, luck);\n    }\n\n    function changeUsername(bytes32 targetPlayerId, string memory newUsername) external {\n        require(!hasUsername[newUsername], \"Username has already been taken.\");\n        require(players[targetPlayerId].created > 0, \"The target player does not exist.\");\n        IERC721 target = IERC721(players[targetPlayerId].tokenContract);\n        address targetOwner = target.ownerOf(players[targetPlayerId].tokenId);\n        require(msg.sender == targetOwner, \"You do not own the target NFT.\");\n        hasUsername[newUsername] = true;\n        hasUsername[players[targetPlayerId].username] = false;\n        emit ChangedUsername(targetPlayerId, players[targetPlayerId].username, newUsername);\n        players[targetPlayerId].username = newUsername;\n    }\n\n    function setStatPoints(bytes32 targetPlayerId, uint256 str, uint256 sta, uint256 dex, uint256 luc) external {\n        require(players[targetPlayerId].created > 0, \"The target player does not exist.\");\n        require(players[targetPlayerId].statPoints > 0, \"The target player has no remaining statpoints.\");\n        require(players[targetPlayerId].statPoints >= (str + sta + dex + luc), \"The target player has not enough statpoints.\");\n        IERC721 target = IERC721(players[targetPlayerId].tokenContract);\n        address targetOwner = target.ownerOf(players[targetPlayerId].tokenId);\n        require(msg.sender == targetOwner, \"You do not own the target NFT.\");\n        players[targetPlayerId].str += str;\n        players[targetPlayerId].sta += sta;\n        players[targetPlayerId].dex += dex;\n        players[targetPlayerId].luc += luc;\n        players[targetPlayerId].statPoints -= (str + sta + dex + luc);\n    }\n\n    function changeRank(bytes32 playerId, uint256 newRank) external {\n        require(players[playerId].created > 0, \"The target player does not exist.\");\n        require(msg.sender == rankingContract, \"The sender is not approved.\");\n        require(msg.sender != tx.origin, \"Sender is not a contract\");\n        players[playerId].rank = newRank;\n    }\n\n    function addStatPoints(bytes32 playerId, uint256 amount) external {\n        require(players[playerId].created > 0, \"The target player does not exist.\");\n        require(msg.sender == rankingContract, \"The sender is not approved.\");\n        require(msg.sender != tx.origin, \"Sender is not a contract\");\n        players[playerId].statPoints += amount;\n    }\n\n    function removeStatPoints(bytes32 playerId, uint256 amount) external {\n        require(players[playerId].created > 0, \"The target player does not exist.\");\n        require(msg.sender == rankingContract, \"The sender is not approved.\");\n        require(msg.sender != tx.origin, \"Sender is not a contract\");\n        players[playerId].statPoints -= amount;\n    }\n\n    function resetStatPoints(bytes32 playerId) external {\n        require(players[playerId].created > 0, \"The target player does not exist.\");\n        IERC721 target = IERC721(players[playerId].tokenContract);\n        address targetOwner = target.ownerOf(players[playerId].tokenId);\n        require(msg.sender == targetOwner, \"You do not own the target NFT.\");\n        uint256 allStatPoints = (players[playerId].str + players[playerId].sta + players[playerId].dex + players[playerId].luc + players[playerId].statPoints) - 40;\n        players[playerId].str = playerAdditionalNumbers[playerId][\"initialStrength\"];\n        players[playerId].sta = playerAdditionalNumbers[playerId][\"initialStamina\"];\n        players[playerId].dex = playerAdditionalNumbers[playerId][\"initialDexterity\"];\n        players[playerId].luc = playerAdditionalNumbers[playerId][\"initialLuck\"];\n        players[playerId].statPoints = allStatPoints;\n    }\n\n    function changeAdditionalNumbers(bytes32 playerId, string memory key, uint256 value) external {\n        require(players[playerId].created > 0, \"The target player does not exist.\");\n        require(changeAdditionalsPermission[msg.sender], \"The sender is not approved.\");\n        require(msg.sender != tx.origin, \"Sender is not a contract\");\n        playerAdditionalNumbers[playerId][key] = value;\n    }\n\n    function changeAdditionalAddresses(bytes32 playerId, string memory key, address value) external {\n        require(players[playerId].created > 0, \"The target player does not exist.\");\n        require(changeAdditionalsPermission[msg.sender], \"The sender is not approved.\");\n        require(msg.sender != tx.origin, \"Sender is not a contract\");\n        playerAdditionalAddresses[playerId][key] = value;\n    }\n\n    //View functions\n    function isUsernameUsed(string memory username) external view returns(bool) {\n        return hasUsername[username];\n    }\n\n    function isPlayer(bytes32 playerId) external view returns(bool) {\n        return players[playerId].created > 0;\n    }\n\n    function isOwnerOfPlayer(address playerOwner, bytes32 playerId) external view returns(bool) {\n        bool result = false;\n        if (players[playerId].created > 0) {\n            IERC721 target = IERC721(players[playerId].tokenContract);\n            address targetOwner = target.ownerOf(players[playerId].tokenId);\n            result = playerOwner == targetOwner;\n        }\n        return result;\n    }\n\n    function getPlayer(bytes32 playerId) external view returns(PlayerObject memory) {\n        return players[playerId];\n    }\n\n    function getPlayers() external view returns(PlayerObject[] memory) {\n        PlayerObject[] memory result = new PlayerObject[](playerIds.length);\n        for (uint256 i = 0; i < playerIds.length; i++) {\n            result[i] = players[playerIds[i]];\n        }\n        return result;\n    }\n\n    function getPlayerIdByTokenValues(address tokenContract, uint256 tokenId) external view returns(bytes32) {\n        bytes32 result;\n        if (players[keccak256(abi.encodePacked(tokenContract, tokenId))].created > 0) {\n            result = keccak256(abi.encodePacked(tokenContract, tokenId));\n        }\n        return result;\n    }\n    \n    function getAdditionalNumbers(bytes32 playerId, string memory key) external view returns(uint256) {\n        return playerAdditionalNumbers[playerId][key];\n    }\n\n    function getAdditionalAddresses(bytes32 playerId, string memory key) external view returns(address) {\n        return playerAdditionalAddresses[playerId][key];\n    }\n\n    function getHasOwner(address owner) external view returns(bool) {\n        return hasOwner[owner];\n    }\n\n    function getOwners() external view returns(address[] memory) {\n        return owners;\n    }\n\n    function getPlayerIds() external view returns(bytes32[] memory) {\n        return playerIds;\n    }\n\n    function getPlayerAmount() external view returns(uint256) {\n        return playerCounter;\n    }\n\n    function getRatingPrice(bool nftaPayment) external view returns(uint256) {\n        if (nftaPayment) {\n            return nftaRatingPrice;\n        } else {\n            return coinRatingPrice;\n        }\n    }\n\n    function getRankingContractAddress() external view returns(address) {\n        return rankingContract;\n    }\n\n    function getEcosystemContractAddress() external view returns(address) {\n        return ecosystemFund;\n    }\n\n    function hasAdditionalsPermission(address target) external view returns(bool) {\n        return changeAdditionalsPermission[target];\n    }\n\n    function isLaunched() external view returns(bool) {\n        return launched;\n    }\n}",
  "sourcePath": "/home/zion/Projekte/nft-arena/contracts/Player.sol",
  "compiler": {
    "name": "solc",
    "version": "0.8.13+commit.abaa5c0e.Emscripten.clang"
  },
  "schemaVersion": "3.4.3",
  "updatedAt": "2022-04-07T14:06:32.625Z",
  "devdoc": {
    "kind": "dev",
    "methods": {},
    "version": 1
  },
  "userdoc": {
    "kind": "user",
    "methods": {},
    "version": 1
  }
}