{
  "contractName": "PlayToEarnFund",
  "abi": [
    {
      "inputs": [
        {
          "internalType": "address",
          "name": "_multisigManager",
          "type": "address"
        },
        {
          "internalType": "address",
          "name": "_nftaToken",
          "type": "address"
        }
      ],
      "stateMutability": "nonpayable",
      "type": "constructor"
    },
    {
      "anonymous": false,
      "inputs": [
        {
          "indexed": true,
          "internalType": "address",
          "name": "target",
          "type": "address"
        },
        {
          "indexed": false,
          "internalType": "bool",
          "name": "approved",
          "type": "bool"
        }
      ],
      "name": "SwitchedEarningContractApprovement",
      "type": "event"
    },
    {
      "anonymous": false,
      "inputs": [
        {
          "indexed": true,
          "internalType": "address",
          "name": "target",
          "type": "address"
        },
        {
          "indexed": false,
          "internalType": "bool",
          "name": "permitted",
          "type": "bool"
        }
      ],
      "name": "SwitchedMasterPermission",
      "type": "event"
    },
    {
      "anonymous": false,
      "inputs": [
        {
          "indexed": true,
          "internalType": "address",
          "name": "target",
          "type": "address"
        },
        {
          "indexed": false,
          "internalType": "bool",
          "name": "permitted",
          "type": "bool"
        }
      ],
      "name": "SwitchedMemberAPermission",
      "type": "event"
    },
    {
      "anonymous": false,
      "inputs": [
        {
          "indexed": true,
          "internalType": "address",
          "name": "target",
          "type": "address"
        },
        {
          "indexed": false,
          "internalType": "bool",
          "name": "permitted",
          "type": "bool"
        }
      ],
      "name": "SwitchedMemberBPermission",
      "type": "event"
    },
    {
      "anonymous": false,
      "inputs": [
        {
          "indexed": true,
          "internalType": "address",
          "name": "target",
          "type": "address"
        },
        {
          "indexed": false,
          "internalType": "uint256",
          "name": "amount",
          "type": "uint256"
        }
      ],
      "name": "Withdrawn",
      "type": "event"
    },
    {
      "inputs": [
        {
          "internalType": "uint256",
          "name": "amount",
          "type": "uint256"
        }
      ],
      "name": "withdrawToken",
      "outputs": [],
      "stateMutability": "nonpayable",
      "type": "function"
    },
    {
      "inputs": [
        {
          "internalType": "address",
          "name": "earningContractAddress",
          "type": "address"
        }
      ],
      "name": "switchEarningContractApprovement",
      "outputs": [],
      "stateMutability": "nonpayable",
      "type": "function"
    },
    {
      "inputs": [
        {
          "internalType": "address",
          "name": "target",
          "type": "address"
        }
      ],
      "name": "switchMasterPermission",
      "outputs": [],
      "stateMutability": "nonpayable",
      "type": "function"
    },
    {
      "inputs": [
        {
          "internalType": "address",
          "name": "target",
          "type": "address"
        }
      ],
      "name": "switchMemberAPermission",
      "outputs": [],
      "stateMutability": "nonpayable",
      "type": "function"
    },
    {
      "inputs": [
        {
          "internalType": "address",
          "name": "target",
          "type": "address"
        }
      ],
      "name": "switchMemberBPermission",
      "outputs": [],
      "stateMutability": "nonpayable",
      "type": "function"
    },
    {
      "inputs": [
        {
          "internalType": "address",
          "name": "target",
          "type": "address"
        }
      ],
      "name": "isEarningContractApproved",
      "outputs": [
        {
          "internalType": "bool",
          "name": "approved",
          "type": "bool"
        }
      ],
      "stateMutability": "view",
      "type": "function",
      "constant": true
    },
    {
      "inputs": [
        {
          "internalType": "address",
          "name": "target",
          "type": "address"
        }
      ],
      "name": "checkAddressPermission",
      "outputs": [
        {
          "internalType": "bool",
          "name": "permission",
          "type": "bool"
        }
      ],
      "stateMutability": "view",
      "type": "function",
      "constant": true
    }
  ],
  "bytecode": "0x608060405234801561001057600080fd5b506040516108a23803806108a283398101604081905261002f9161007c565b600080546001600160a01b039384166001600160a01b031991821617909155600180549290931691161790556100af565b80516001600160a01b038116811461007757600080fd5b919050565b6000806040838503121561008f57600080fd5b61009883610060565b91506100a660208401610060565b90509250929050565b6107e4806100be6000396000f3fe608060405234801561001057600080fd5b506004361061007d5760003560e01c80635e56d5241161005b5780635e56d524146100d15780636b8b6048146100fd57806393566b9814610110578063a9b2ba0d1461012357600080fd5b80632c0c427a1461008257806350baa622146100975780635cbed6b6146100aa575b600080fd5b610095610090366004610719565b610136565b005b6100956100a536600461073d565b610225565b6100bd6100b8366004610719565b610397565b604051901515815260200160405180910390f35b6100bd6100df366004610719565b6001600160a01b031660009081526002602052604090205460ff1690565b61009561010b366004610719565b610401565b61009561011e366004610719565b6104f0565b610095610131366004610719565b6105df565b600054604051638d84233160e01b81523360048201526001600160a01b0390911690638d8423319060240160206040518083038186803b15801561017957600080fd5b505afa15801561018d573d6000803e3d6000fd5b505050506040513d601f19601f820116820180604052508101906101b19190610756565b6101ba57600080fd5b6001600160a01b03811660008181526005602052604090819020805460ff19811660ff9182161590811790925591517f36edb5983c66d201aaf2a6cbf040d5228bb077601043b2f6416db4c4b870f9bd9261021a92161515815260200190565b60405180910390a250565b3360009081526002602052604090205460ff1661024157600080fd5b3332141561024e57600080fd5b6001546040516370a0823160e01b81523060048201526000916001600160a01b0316906370a082319060240160206040518083038186803b15801561029257600080fd5b505afa1580156102a6573d6000803e3d6000fd5b505050506040513d601f19601f820116820180604052508101906102ca9190610778565b9050808211156102d957600080fd5b60015460405163a9059cbb60e01b8152336004820152602481018490526001600160a01b039091169063a9059cbb90604401602060405180830381600087803b15801561032557600080fd5b505af1158015610339573d6000803e3d6000fd5b505050506040513d601f19601f8201168201806040525081019061035d9190610756565b5060405182815233907f7084f5476618d8e60b11ef0d7d3f06914655adb8793e28ff7f018d4c76d505d59060200160405180910390a25050565b6001600160a01b03811660009081526005602052604081205460ff1680156103d757506001600160a01b03821660009081526003602052604090205460ff165b80156103fb57506001600160a01b03821660009081526004602052604090205460ff165b92915050565b60005460408051635f032b1760e01b8152905133926001600160a01b031691635f032b17916004808301926020929190829003018186803b15801561044557600080fd5b505afa158015610459573d6000803e3d6000fd5b505050506040513d601f19601f8201168201806040525081019061047d9190610791565b6001600160a01b03161461049057600080fd5b6001600160a01b03811660008181526003602052604090819020805460ff19811660ff9182161590811790925591517fac3897e75590c3587fb4ae74110dd1e081730db630a65a7b629ec3ee48be8a159261021a92161515815260200190565b600054604080516356cd73c760e01b8152905133926001600160a01b0316916356cd73c7916004808301926020929190829003018186803b15801561053457600080fd5b505afa158015610548573d6000803e3d6000fd5b505050506040513d601f19601f8201168201806040525081019061056c9190610791565b6001600160a01b03161461057f57600080fd5b6001600160a01b03811660008181526004602052604090819020805460ff19811660ff9182161590811790925591517fa0281367199fedf5bf1e3b969b4d96b14eb5b783c02bf07e272cb93d37e11cc79261021a92161515815260200190565b6000546040516366bd542360e11b81523360048201526001600160a01b039091169063cd7aa8469060240160206040518083038186803b15801561062257600080fd5b505afa158015610636573d6000803e3d6000fd5b505050506040513d601f19601f8201168201806040525081019061065a9190610756565b61066357600080fd5b61066c81610397565b61067557600080fd5b6001600160a01b0381166000818152600260208181526040808420805460ff8082161560ff1992831617835560058552838720805483169055600385528387208054831690556004855295839020805490911690559282529154915191909216151581527fd63147b40380a977d97959cd7a78aa4ed3bf091c3ae33239bf2199de7c9668ea910161021a565b6001600160a01b038116811461071657600080fd5b50565b60006020828403121561072b57600080fd5b813561073681610701565b9392505050565b60006020828403121561074f57600080fd5b5035919050565b60006020828403121561076857600080fd5b8151801515811461073657600080fd5b60006020828403121561078a57600080fd5b5051919050565b6000602082840312156107a357600080fd5b81516107368161070156fea26469706673582212200129a3728e7f542a8bbd29129e85387da89d1df6618bcdd7b6680a4810078bc264736f6c63430008090033",
  "immutableReferences": {},
  "source": "// SPDX-License-Identifier: MIT\npragma solidity ^0.8.0;\n\nimport \"./MultisigManager.sol\";\nimport \"./NFTAToken.sol\";\n\ncontract PlayToEarnFund {\n    MultisigManager private multisigManager;\n    NFTAToken private nftaToken;\n    mapping(address => bool) private approvedEarningContracts;\n    mapping(address => bool) private memberAPermission;\n    mapping(address => bool) private memberBPermission;\n    mapping(address => bool) private masterPermission;\n\n    event Withdrawn(address indexed target, uint256 amount);\n    event SwitchedEarningContractApprovement(address indexed target, bool approved);\n    event SwitchedMasterPermission(address indexed target, bool permitted);\n    event SwitchedMemberAPermission(address indexed target, bool permitted);\n    event SwitchedMemberBPermission(address indexed target, bool permitted);\n    \n    constructor(address _multisigManager, address _nftaToken) {\n        multisigManager = MultisigManager(_multisigManager);\n        nftaToken = NFTAToken(_nftaToken);\n    }\n\n    function withdrawToken(uint256 amount) external {\n        //Check if earning contract is approved and sender is contract\n        require(isEarningContractApproved(msg.sender));\n        require(msg.sender != tx.origin);\n\n        //Check contract balance\n        uint256 contractBalance = nftaToken.balanceOf(address(this));\n        require(amount <= contractBalance);\n\n        //Transfer tokens to event\n        nftaToken.transfer(msg.sender, amount);\n        emit Withdrawn(msg.sender, amount);\n    }\n\n    function switchEarningContractApprovement(address earningContractAddress) external {\n        require(multisigManager.senderIsMasterOrMember(msg.sender));\n        require(checkAddressPermission(earningContractAddress));\n        approvedEarningContracts[earningContractAddress] = !approvedEarningContracts[earningContractAddress];\n        resetAddressPermission(earningContractAddress);\n        emit SwitchedEarningContractApprovement(earningContractAddress, approvedEarningContracts[earningContractAddress]);\n    }\n\n    //Permission switches for master and members\n    function switchMasterPermission(address target) external {\n        require(multisigManager.senderIsMaster(msg.sender));\n        masterPermission[target] = !masterPermission[target];\n        emit SwitchedMasterPermission(target, masterPermission[target]);\n    }\n    \n    function switchMemberAPermission(address target) external {\n        require(multisigManager.getMemberA() == msg.sender);\n        memberAPermission[target] = !memberAPermission[target];\n        emit SwitchedMemberAPermission(target, memberAPermission[target]);\n    }\n\n    function switchMemberBPermission(address target) external {\n        require(multisigManager.getMemberB() == msg.sender);\n        memberBPermission[target] = !memberBPermission[target];\n        emit SwitchedMemberBPermission(target, memberBPermission[target]);\n    }\n\n    //Reset permissions for contracts address permission\n    function resetAddressPermission(address target) private {\n        masterPermission[target] = false;\n        memberAPermission[target] = false;\n        memberBPermission[target] = false;\n    }\n\n    //Check address permission function\n    function isEarningContractApproved(address target) public view returns(bool approved) {\n        return approvedEarningContracts[target];\n    }\n    \n    function checkAddressPermission(address target) public view returns (bool permission) {\n        return (masterPermission[target] && memberAPermission[target] && memberBPermission[target]);\n    }\n}",
  "sourcePath": "/home/zion/Projekte/nft-arena/contracts/PlayToEarnFund.sol",
  "compiler": {
    "name": "solc",
    "version": "0.8.9+commit.e5eed63a.Emscripten.clang"
  },
  "schemaVersion": "3.4.3",
  "updatedAt": "2022-04-07T15:46:41.836Z",
  "networkType": "ethereum",
  "devdoc": {
    "kind": "dev",
    "methods": {},
    "version": 1
  },
  "userdoc": {
    "kind": "user",
    "methods": {},
    "version": 1
  }
}