{
  "contractName": "PublicSaleFund",
  "abi": [
    {
      "inputs": [
        {
          "internalType": "address",
          "name": "_multisigManager",
          "type": "address"
        },
        {
          "internalType": "address",
          "name": "_nftaToken",
          "type": "address"
        },
        {
          "internalType": "address",
          "name": "_masterWallet",
          "type": "address"
        },
        {
          "internalType": "address",
          "name": "_marketingFund",
          "type": "address"
        }
      ],
      "stateMutability": "nonpayable",
      "type": "constructor"
    },
    {
      "anonymous": false,
      "inputs": [
        {
          "indexed": false,
          "internalType": "uint256",
          "name": "rate",
          "type": "uint256"
        }
      ],
      "name": "ChangedICORate",
      "type": "event"
    },
    {
      "anonymous": false,
      "inputs": [
        {
          "indexed": false,
          "internalType": "uint256",
          "name": "timestamp",
          "type": "uint256"
        }
      ],
      "name": "ChangedICOTimestamp",
      "type": "event"
    },
    {
      "anonymous": false,
      "inputs": [
        {
          "indexed": false,
          "internalType": "uint256",
          "name": "rate",
          "type": "uint256"
        }
      ],
      "name": "ChangedPresaleRate",
      "type": "event"
    },
    {
      "anonymous": false,
      "inputs": [
        {
          "indexed": false,
          "internalType": "uint256",
          "name": "timestamp",
          "type": "uint256"
        }
      ],
      "name": "ChangedPresaleTimestamp",
      "type": "event"
    },
    {
      "anonymous": false,
      "inputs": [],
      "name": "ICOClosed",
      "type": "event"
    },
    {
      "anonymous": false,
      "inputs": [],
      "name": "PresaleClosed",
      "type": "event"
    },
    {
      "anonymous": false,
      "inputs": [
        {
          "indexed": false,
          "internalType": "uint256",
          "name": "amount",
          "type": "uint256"
        }
      ],
      "name": "RebalancedICOAmount",
      "type": "event"
    },
    {
      "anonymous": false,
      "inputs": [],
      "name": "SalesFinalized",
      "type": "event"
    },
    {
      "anonymous": false,
      "inputs": [
        {
          "indexed": true,
          "internalType": "address",
          "name": "buyer",
          "type": "address"
        },
        {
          "indexed": false,
          "internalType": "uint256",
          "name": "tokenAmount",
          "type": "uint256"
        }
      ],
      "name": "TokenSold",
      "type": "event"
    },
    {
      "stateMutability": "payable",
      "type": "fallback",
      "payable": true
    },
    {
      "stateMutability": "payable",
      "type": "receive",
      "payable": true
    },
    {
      "inputs": [
        {
          "internalType": "uint256",
          "name": "_presaleRate",
          "type": "uint256"
        }
      ],
      "name": "setPresaleRate",
      "outputs": [],
      "stateMutability": "nonpayable",
      "type": "function"
    },
    {
      "inputs": [
        {
          "internalType": "uint256",
          "name": "_icoRate",
          "type": "uint256"
        }
      ],
      "name": "setICORate",
      "outputs": [],
      "stateMutability": "nonpayable",
      "type": "function"
    },
    {
      "inputs": [
        {
          "internalType": "uint256",
          "name": "newTimestamp",
          "type": "uint256"
        }
      ],
      "name": "setPresaleTimestamp",
      "outputs": [],
      "stateMutability": "nonpayable",
      "type": "function"
    },
    {
      "inputs": [
        {
          "internalType": "uint256",
          "name": "newTimestamp",
          "type": "uint256"
        }
      ],
      "name": "setICOTimestamp",
      "outputs": [],
      "stateMutability": "nonpayable",
      "type": "function"
    },
    {
      "inputs": [],
      "name": "rebalanceICOAmount",
      "outputs": [],
      "stateMutability": "nonpayable",
      "type": "function"
    },
    {
      "inputs": [],
      "name": "closePresale",
      "outputs": [],
      "stateMutability": "nonpayable",
      "type": "function"
    },
    {
      "inputs": [],
      "name": "closeICO",
      "outputs": [],
      "stateMutability": "nonpayable",
      "type": "function"
    },
    {
      "inputs": [],
      "name": "finalizeSales",
      "outputs": [],
      "stateMutability": "nonpayable",
      "type": "function"
    },
    {
      "inputs": [],
      "name": "buyPresale",
      "outputs": [],
      "stateMutability": "payable",
      "type": "function",
      "payable": true
    },
    {
      "inputs": [],
      "name": "buyICO",
      "outputs": [],
      "stateMutability": "payable",
      "type": "function",
      "payable": true
    },
    {
      "inputs": [],
      "name": "presaleRaised",
      "outputs": [
        {
          "internalType": "uint256",
          "name": "result",
          "type": "uint256"
        }
      ],
      "stateMutability": "view",
      "type": "function",
      "constant": true
    },
    {
      "inputs": [],
      "name": "icoRaised",
      "outputs": [
        {
          "internalType": "uint256",
          "name": "result",
          "type": "uint256"
        }
      ],
      "stateMutability": "view",
      "type": "function",
      "constant": true
    },
    {
      "inputs": [],
      "name": "getPresaleRate",
      "outputs": [
        {
          "internalType": "uint256",
          "name": "result",
          "type": "uint256"
        }
      ],
      "stateMutability": "view",
      "type": "function",
      "constant": true
    },
    {
      "inputs": [],
      "name": "getPresaleTimestamp",
      "outputs": [
        {
          "internalType": "uint256",
          "name": "result",
          "type": "uint256"
        }
      ],
      "stateMutability": "view",
      "type": "function",
      "constant": true
    },
    {
      "inputs": [],
      "name": "getICORate",
      "outputs": [
        {
          "internalType": "uint256",
          "name": "result",
          "type": "uint256"
        }
      ],
      "stateMutability": "view",
      "type": "function",
      "constant": true
    },
    {
      "inputs": [],
      "name": "getICOTimestamp",
      "outputs": [
        {
          "internalType": "uint256",
          "name": "result",
          "type": "uint256"
        }
      ],
      "stateMutability": "view",
      "type": "function",
      "constant": true
    },
    {
      "inputs": [],
      "name": "getPresaleAmount",
      "outputs": [
        {
          "internalType": "uint256",
          "name": "result",
          "type": "uint256"
        }
      ],
      "stateMutability": "view",
      "type": "function",
      "constant": true
    },
    {
      "inputs": [],
      "name": "getICOAmount",
      "outputs": [
        {
          "internalType": "uint256",
          "name": "result",
          "type": "uint256"
        }
      ],
      "stateMutability": "view",
      "type": "function",
      "constant": true
    },
    {
      "inputs": [],
      "name": "isPresaleDone",
      "outputs": [
        {
          "internalType": "bool",
          "name": "result",
          "type": "bool"
        }
      ],
      "stateMutability": "view",
      "type": "function",
      "constant": true
    },
    {
      "inputs": [],
      "name": "isICODone",
      "outputs": [
        {
          "internalType": "bool",
          "name": "result",
          "type": "bool"
        }
      ],
      "stateMutability": "view",
      "type": "function",
      "constant": true
    }
  ],
  "bytecode": "0x60806040523480156200001157600080fd5b5060405162001b4938038062001b498339810160408190526200003491620000b9565b600080546001600160a01b039586166001600160a01b03199182161790915560018054948616948216949094179093556002805492851692841692909217909155600380549190931691161790556a09ed194db19b238c000000600581905560095562000116565b80516001600160a01b0381168114620000b457600080fd5b919050565b60008060008060808587031215620000d057600080fd5b620000db856200009c565b9350620000eb602086016200009c565b9250620000fb604086016200009c565b91506200010b606086016200009c565b905092959194509250565b611a2380620001266000396000f3fe6080604052600436106101175760003560e01c80638ddaa5b61161009a578063c59b556211610061578063c59b55621461028a578063c78a4c9814610292578063df6a0372146102a7578063e006e370146102bc578063f449ffe4146102dc57005b80638ddaa5b6146102205780638f96be2314610235578063927ac386146102555780639fcdec611461026d578063ac4d21f71461027557005b80635f833382116100de5780635f833382146101b757806363cea450146101cc578063641b269f146101e1578063768882df146101f657806376c272881461020b57005b806309d256fe146101205780631b5e78f8146101445780631eaa12c0146101595780633a10fdc51461017957806354238645146101a257005b3661011e57005b005b34801561012c57600080fd5b506004545b6040519081526020015b60405180910390f35b34801561015057600080fd5b50600754610131565b34801561016557600080fd5b5061011e61017436600461190c565b6102fc565b34801561018557600080fd5b50600c54610100900460ff165b604051901515815260200161013b565b3480156101ae57600080fd5b5061011e610569565b3480156101c357600080fd5b5061011e61071c565b3480156101d857600080fd5b5061011e61097c565b3480156101ed57600080fd5b50600954610131565b34801561020257600080fd5b5061011e610b34565b34801561021757600080fd5b50600554610131565b34801561022c57600080fd5b50600b54610131565b34801561024157600080fd5b5061011e61025036600461190c565b610da8565b34801561026157600080fd5b50600c5460ff16610192565b61011e610f87565b34801561028157600080fd5b50600654610131565b61011e611224565b34801561029e57600080fd5b50600a54610131565b3480156102b357600080fd5b50600854610131565b3480156102c857600080fd5b5061011e6102d736600461190c565b6114c4565b3480156102e857600080fd5b5061011e6102f736600461190c565b61172a565b600054604051638d84233160e01b81523360048201526001600160a01b0390911690638d84233190602401602060405180830381865afa158015610344573d6000803e3d6000fd5b505050506040513d601f19601f820116820180604052508101906103689190611925565b61037157600080fd5b600054604051634a36d88560e01b815260206004820152600f60248201526e073657449434f54696d657374616d7608c1b60448201526001600160a01b0390911690634a36d88590606401602060405180830381865afa1580156103d9573d6000803e3d6000fd5b505050506040513d601f19601f820116820180604052508101906103fd9190611925565b61040657600080fd5b6009546001546040516370a0823160e01b81523060048201526001600160a01b03909116906370a0823190602401602060405180830381865afa158015610451573d6000803e3d6000fd5b505050506040513d601f19601f82011682018060405250810190610475919061194e565b1461047f57600080fd5b600c54610100900460ff161580156104a25750600b5415806104a2575042600b54115b6104ab57600080fd5b600b81905560005460405163538f20d960e01b815260206004820152600f60248201526e073657449434f54696d657374616d7608c1b60448201526001600160a01b039091169063538f20d990606401600060405180830381600087803b15801561051557600080fd5b505af1158015610529573d6000803e3d6000fd5b505050507f23e26ed8c87f4f39e1dfd3606539efdc4380333de4094bbb3a23ba2c6b46a4dd8160405161055e91815260200190565b60405180910390a150565b600054604051638d84233160e01b81523360048201526001600160a01b0390911690638d84233190602401602060405180830381865afa1580156105b1573d6000803e3d6000fd5b505050506040513d601f19601f820116820180604052508101906105d59190611925565b6105de57600080fd5b600054604051634a36d88560e01b8152602060048201526008602482015267636c6f736549434f60c01b60448201526001600160a01b0390911690634a36d88590606401602060405180830381865afa15801561063f573d6000803e3d6000fd5b505050506040513d601f19601f820116820180604052508101906106639190611925565b61066c57600080fd5b600c805461ff00191661010017905560005460405163538f20d960e01b8152602060048201526008602482015267636c6f736549434f60c01b60448201526001600160a01b039091169063538f20d990606401600060405180830381600087803b1580156106d957600080fd5b505af11580156106ed573d6000803e3d6000fd5b50506040517f6274c3e3ca2e096d0f959bbf291d960a8dc9f1a6ba856fcea564a14957c57590925060009150a1565b6000546040516366bd542360e11b81523360048201526001600160a01b039091169063cd7aa84690602401602060405180830381865afa158015610764573d6000803e3d6000fd5b505050506040513d601f19601f820116820180604052508101906107889190611925565b61079157600080fd5b600054604051630ac1a7f960e31b8152602060048201526009602482015268726562616c616e636560b81b60448201526001600160a01b039091169063560d3fc890606401602060405180830381865afa1580156107f3573d6000803e3d6000fd5b505050506040513d601f19601f820116820180604052508101906108179190611925565b61082057600080fd5b600c5460ff16801561083a5750600c54610100900460ff16155b80156108515750600b541580610851575042600b54115b61085a57600080fd5b6001546040516370a0823160e01b81523060048201526000916001600160a01b0316906370a0823190602401602060405180830381865afa1580156108a3573d6000803e3d6000fd5b505050506040513d601f19601f820116820180604052508101906108c7919061194e565b600981905560005460405163538f20d960e01b81529192506001600160a01b03169063538f20d99061091990600401602080825260099082015268726562616c616e636560b81b604082015260600190565b600060405180830381600087803b15801561093357600080fd5b505af1158015610947573d6000803e3d6000fd5b505050507f1ed549c3662c393c54bb79953e38bd3f730587d7df91e2279204ff555d047f6a8160405161055e91815260200190565b600054604051638d84233160e01b81523360048201526001600160a01b0390911690638d84233190602401602060405180830381865afa1580156109c4573d6000803e3d6000fd5b505050506040513d601f19601f820116820180604052508101906109e89190611925565b6109f157600080fd5b600054604051634a36d88560e01b815260206004820152600c60248201526b636c6f736550726573616c6560a01b60448201526001600160a01b0390911690634a36d88590606401602060405180830381865afa158015610a56573d6000803e3d6000fd5b505050506040513d601f19601f82011682018060405250810190610a7a9190611925565b610a8357600080fd5b600c805460ff1916600117815560005460405163538f20d960e01b81526020600482015260248101929092526b636c6f736550726573616c6560a01b60448301526001600160a01b03169063538f20d990606401600060405180830381600087803b158015610af157600080fd5b505af1158015610b05573d6000803e3d6000fd5b50506040517f178883df77bd1da8fe0f452c81786ec2daed0fe6bf06928f621f32239ff9e3fc925060009150a1565b600054604051638d84233160e01b81523360048201526001600160a01b0390911690638d84233190602401602060405180830381865afa158015610b7c573d6000803e3d6000fd5b505050506040513d601f19601f82011682018060405250810190610ba09190611925565b610ba957600080fd5b600054604051634a36d88560e01b815260206004820152600860248201526766696e616c697a6560c01b60448201526001600160a01b0390911690634a36d88590606401602060405180830381865afa158015610c0a573d6000803e3d6000fd5b505050506040513d601f19601f82011682018060405250810190610c2e9190611925565b610c3757600080fd5b600c5460ff168015610c505750600c54610100900460ff165b610c5957600080fd5b6002546040516001600160a01b03909116904780156108fc02916000818181858888f19350505050158015610c92573d6000803e3d6000fd5b506001546040516370a0823160e01b81523060048201526000916001600160a01b0316906370a0823190602401602060405180830381865afa158015610cdc573d6000803e3d6000fd5b505050506040513d601f19601f82011682018060405250810190610d00919061194e565b60015460035460405163a9059cbb60e01b81526001600160a01b03918216600482015260248101849052929350169063a9059cbb906044016020604051808303816000875af1158015610d57573d6000803e3d6000fd5b505050506040513d601f19601f82011682018060405250810190610d7b9190611925565b506040517f07331013790e8606f75ac7f71ac4716599cb4365f822671b0e8a803936d303ba90600090a150565b600054604051638d84233160e01b81523360048201526001600160a01b0390911690638d84233190602401602060405180830381865afa158015610df0573d6000803e3d6000fd5b505050506040513d601f19601f82011682018060405250810190610e149190611925565b610e1d57600080fd5b600054604051634a36d88560e01b815260206004820152600a60248201526973657449434f5261746560b01b60448201526001600160a01b0390911690634a36d88590606401602060405180830381865afa158015610e80573d6000803e3d6000fd5b505050506040513d601f19601f82011682018060405250810190610ea49190611925565b610ead57600080fd5b600c54610100900460ff16158015610ed05750600b541580610ed0575042600b54115b610ed957600080fd5b600881905560005460405163538f20d960e01b815260206004820152600a60248201526973657449434f5261746560b01b60448201526001600160a01b039091169063538f20d990606401600060405180830381600087803b158015610f3e57600080fd5b505af1158015610f52573d6000803e3d6000fd5b505050507fe5d7156d10b6b43ad98e598f2a90521dc406456bb1fb78ed1928d84e29d91eb48160405161055e91815260200190565b600c5460ff1615610fdf5760405162461bcd60e51b815260206004820152601760248201527f50726573616c6520697320616c726561647920646f6e6500000000000000000060448201526064015b60405180910390fd5b60075442116110305760405162461bcd60e51b815260206004820152601b60248201527f50726573616c6520686173206e6f7420737461727465642079657400000000006044820152606401610fd6565b6000600454116110825760405162461bcd60e51b815260206004820152601a60248201527f50726573616c65206973206e6f7420696e697469616c697a65640000000000006044820152606401610fd6565b67016345785d8a000034101561109757600080fd5b60045434906000906110a9908361197d565b905060006005548211156110cf576004546005546110c7919061199c565b905060055491505b6110d981846119be565b600660008282546110ea91906119d5565b92505081905550816005600082825461110391906119be565b909155505060015460405163a9059cbb60e01b8152336004820152602481018490526001600160a01b039091169063a9059cbb906044016020604051808303816000875af1158015611159573d6000803e3d6000fd5b505050506040513d601f19601f8201168201806040525081019061117d9190611925565b5080156111e957604051339082156108fc029083906000818181858888f193505050501580156111b1573d6000803e3d6000fd5b50600c805460ff191660011790556040517f178883df77bd1da8fe0f452c81786ec2daed0fe6bf06928f621f32239ff9e3fc90600090a15b60405182815233907ffe2ff4cf36ff7d2c2b06eb960897ee0d76d9c3e58da12feb7b93e86b226dd344906020015b60405180910390a2505050565b600c5460ff16801561123e5750600c54610100900460ff16155b6112995760405162461bcd60e51b815260206004820152602660248201527f49434f20686173206e6f742073746172746564206f7220697320616c726561646044820152657920646f6e6560d01b6064820152608401610fd6565b600b5442116112e05760405162461bcd60e51b81526020600482015260136024820152721250d3c81a185cc81b9bdd081cdd185c9d1959606a1b6044820152606401610fd6565b60006008541161132b5760405162461bcd60e51b81526020600482015260166024820152751250d3c81a5cc81b9bdd081a5b9a5d1a585b1a5e995960521b6044820152606401610fd6565b67016345785d8a0000341161133f57600080fd5b6008543490600090611351908361197d565b905060006009548211156113775760085460095461136f919061199c565b905060095491505b61138181846119be565b600a600082825461139291906119d5565b9250508190555081600960008282546113ab91906119be565b909155505060015460405163a9059cbb60e01b8152336004820152602481018490526001600160a01b039091169063a9059cbb906044016020604051808303816000875af1158015611401573d6000803e3d6000fd5b505050506040513d601f19601f820116820180604052508101906114259190611925565b5080156111e957604051339082156108fc029083906000818181858888f19350505050158015611459573d6000803e3d6000fd5b50600c805461ff0019166101001790556040517f6274c3e3ca2e096d0f959bbf291d960a8dc9f1a6ba856fcea564a14957c5759090600090a160405182815233907ffe2ff4cf36ff7d2c2b06eb960897ee0d76d9c3e58da12feb7b93e86b226dd34490602001611217565b600054604051638d84233160e01b81523360048201526001600160a01b0390911690638d84233190602401602060405180830381865afa15801561150c573d6000803e3d6000fd5b505050506040513d601f19601f820116820180604052508101906115309190611925565b61153957600080fd5b600054604051634a36d88560e01b8152602060048201526013602482015272073657450726573616c6554696d657374616d7606c1b60448201526001600160a01b0390911690634a36d88590606401602060405180830381865afa1580156115a5573d6000803e3d6000fd5b505050506040513d601f19601f820116820180604052508101906115c99190611925565b6115d257600080fd5b6005546001546040516370a0823160e01b81523060048201526001600160a01b03909116906370a0823190602401602060405180830381865afa15801561161d573d6000803e3d6000fd5b505050506040513d601f19601f82011682018060405250810190611641919061194e565b101561164c57600080fd5b600c5460ff1615801561166a5750600754158061166a575042600754115b61167357600080fd5b600781905560005460405163538f20d960e01b8152602060048201526013602482015272073657450726573616c6554696d657374616d7606c1b60448201526001600160a01b039091169063538f20d990606401600060405180830381600087803b1580156116e157600080fd5b505af11580156116f5573d6000803e3d6000fd5b505050507fd8efb35b064a033de83d381031c6507d7d69bc80f7fc5c342679312cf532059f8160405161055e91815260200190565b600054604051638d84233160e01b81523360048201526001600160a01b0390911690638d84233190602401602060405180830381865afa158015611772573d6000803e3d6000fd5b505050506040513d601f19601f820116820180604052508101906117969190611925565b61179f57600080fd5b600054604051634a36d88560e01b815260206004820152600e60248201526d73657450726573616c655261746560901b60448201526001600160a01b0390911690634a36d88590606401602060405180830381865afa158015611806573d6000803e3d6000fd5b505050506040513d601f19601f8201168201806040525081019061182a9190611925565b61183357600080fd5b600c5460ff1615801561185157506007541580611851575042600754115b61185a57600080fd5b600481815560005460405163538f20d960e01b8152602092810192909252600e60248301526d73657450726573616c655261746560901b60448301526001600160a01b03169063538f20d990606401600060405180830381600087803b1580156118c357600080fd5b505af11580156118d7573d6000803e3d6000fd5b505050507f5ad1deea26e5be28044cec7816e8cb1759c73e1b62f8fb04c8babafb6adc1bc48160405161055e91815260200190565b60006020828403121561191e57600080fd5b5035919050565b60006020828403121561193757600080fd5b8151801515811461194757600080fd5b9392505050565b60006020828403121561196057600080fd5b5051919050565b634e487b7160e01b600052601160045260246000fd5b600081600019048311821515161561199757611997611967565b500290565b6000826119b957634e487b7160e01b600052601260045260246000fd5b500490565b6000828210156119d0576119d0611967565b500390565b600082198211156119e8576119e8611967565b50019056fea2646970667358221220da20d8e0cc0df11ddb4d0474edabb7ab4f3e21eca716812f91065cbcb54a1d1a64736f6c634300080d0033",
  "immutableReferences": {},
  "source": "// SPDX-License-Identifier: MIT\npragma solidity ^0.8.0;\n\nimport \"./MultisigManager.sol\";\nimport \"./NFTAToken.sol\";\n\ncontract PublicSaleFund {\n    MultisigManager private multisigManager;\n    NFTAToken private nftaToken;\n    address private masterWallet;\n    address private marketingFund;\n    uint256 private presaleRate;\n    uint256 private presaleAmount;\n    uint256 private presaleWeiRaised;\n    uint256 private presaleTimestamp;\n    uint256 private icoRate;\n    uint256 private icoAmount;\n    uint256 private icoWeiRaised;\n    uint256 private icoTimestamp;\n    bool private presaleDone;\n    bool private icoDone;\n\n    event ChangedPresaleRate(uint256 rate);\n    event ChangedICORate(uint256 rate);\n    event ChangedPresaleTimestamp(uint256 timestamp);\n    event ChangedICOTimestamp(uint256 timestamp);\n    event RebalancedICOAmount(uint256 amount);\n    event PresaleClosed();\n    event ICOClosed();\n    event SalesFinalized();\n    event TokenSold(address indexed buyer, uint256 tokenAmount);\n    \n    constructor(address _multisigManager, address _nftaToken, address _masterWallet, address _marketingFund) {\n        multisigManager = MultisigManager(_multisigManager);\n        nftaToken = NFTAToken(_nftaToken);\n        masterWallet = _masterWallet;\n        marketingFund = _marketingFund;\n        presaleAmount = 12000000 * 10**18;\n        icoAmount = 12000000 * 10**18;\n    }\n    \n    fallback () external payable {}\n    \n    receive() external payable {}\n\n    //Sale modifier\n    function setPresaleRate(uint256 _presaleRate) external {\n        require(multisigManager.senderIsMaster(msg.sender));\n        require(multisigManager.checkAllPermission(\"setPresaleRate\"));\n        require(!presaleDone && (presaleTimestamp == 0 || presaleTimestamp > block.timestamp));\n        presaleRate = _presaleRate;\n        multisigManager.resetFunctionPermission(\"setPresaleRate\");\n        emit ChangedPresaleRate(_presaleRate);\n    }\n\n    function setICORate(uint256 _icoRate) external {\n        require(multisigManager.senderIsMaster(msg.sender));\n        require(multisigManager.checkAllPermission(\"setICORate\"));\n        require(!icoDone && (icoTimestamp == 0 || icoTimestamp > block.timestamp));\n        icoRate = _icoRate;\n        multisigManager.resetFunctionPermission(\"setICORate\");\n        emit ChangedICORate(_icoRate);\n    }\n\n    function setPresaleTimestamp(uint256 newTimestamp) external {\n        require(multisigManager.senderIsMaster(msg.sender));\n        require(multisigManager.checkAllPermission(\"setPresaleTimestamp\"));\n        require(nftaToken.balanceOf(address(this)) >= presaleAmount);\n        require(!presaleDone && (presaleTimestamp == 0 || presaleTimestamp > block.timestamp));\n        presaleTimestamp = newTimestamp;\n        multisigManager.resetFunctionPermission(\"setPresaleTimestamp\");\n        emit ChangedPresaleTimestamp(newTimestamp);\n    }\n\n    function setICOTimestamp(uint256 newTimestamp) external {\n        require(multisigManager.senderIsMaster(msg.sender));\n        require(multisigManager.checkAllPermission(\"setICOTimestamp\"));\n        require(nftaToken.balanceOf(address(this)) == icoAmount);\n        require(!icoDone && (icoTimestamp == 0 || icoTimestamp > block.timestamp));\n        icoTimestamp = newTimestamp;\n        multisigManager.resetFunctionPermission(\"setICOTimestamp\");\n        emit ChangedICOTimestamp(newTimestamp);\n    }\n\n    function rebalanceICOAmount() external {\n        require(multisigManager.senderIsMasterOrMember(msg.sender));\n        require(multisigManager.checkMemberPermission(\"rebalance\"));\n        require(presaleDone && !icoDone && (icoTimestamp == 0 || icoTimestamp > block.timestamp));\n        uint256 contractBalance = nftaToken.balanceOf(address(this));\n        icoAmount = contractBalance;\n        multisigManager.resetFunctionPermission(\"rebalance\");\n        emit RebalancedICOAmount(contractBalance);\n    }\n\n    //Sale closer\n    function closePresale() external {\n        require(multisigManager.senderIsMaster(msg.sender));\n        require(multisigManager.checkAllPermission(\"closePresale\"));\n        presaleDone = true;\n        multisigManager.resetFunctionPermission(\"closePresale\");\n        emit PresaleClosed();\n    }\n\n    function closeICO() external {\n        require(multisigManager.senderIsMaster(msg.sender));\n        require(multisigManager.checkAllPermission(\"closeICO\"));\n        icoDone = true;\n        multisigManager.resetFunctionPermission(\"closeICO\");\n        emit ICOClosed();\n    }\n\n    function finalizeSales() external {\n        require(multisigManager.senderIsMaster(msg.sender));\n        require(multisigManager.checkAllPermission(\"finalize\"));\n        require(presaleDone && icoDone);\n        payable(masterWallet).transfer(address(this).balance);\n        uint256 contractBalance = nftaToken.balanceOf(address(this));\n        nftaToken.transfer(marketingFund, contractBalance);\n        emit SalesFinalized();\n    }\n\n    //Sale functions\n    function buyPresale() external payable {\n        //Check general requirements\n        require(!presaleDone, \"Presale is already done\");\n        require(block.timestamp > presaleTimestamp, \"Presale has not started yet\");\n        require(presaleRate > 0, \"Presale is not initialized\");\n\n        //Require a minimum of 0.1 ether/bnb\n        require(msg.value >= 1 * 10**17);\n\n        //Calculate token amount\n        uint256 weiAmount = msg.value;\n        uint256 tokenAmount = weiAmount * presaleRate;\n        uint256 unusedWei = 0;\n        if (tokenAmount > presaleAmount) {\n            unusedWei = presaleAmount / presaleRate;\n            tokenAmount = presaleAmount;\n        }\n\n        //Update state\n        presaleWeiRaised += weiAmount - unusedWei;\n        presaleAmount -= tokenAmount;\n\n        //Transfer token and unused wei\n        nftaToken.transfer(msg.sender, tokenAmount);\n        if (unusedWei > 0) {\n            payable(msg.sender).transfer(unusedWei);\n            presaleDone = true;\n            emit PresaleClosed();\n        }\n\n        emit TokenSold(msg.sender, tokenAmount);\n    }\n\n    function buyICO() external payable {\n        //Check general requirements\n        require(presaleDone && !icoDone, \"ICO has not started or is already done\");\n        require(block.timestamp > icoTimestamp, \"ICO has not started\");\n        require(icoRate > 0, \"ICO is not initialized\");\n\n        //Require a minimum of 0.1 ether\n        require(msg.value > 1 * 10**17);\n\n        //Calculate token amount\n        uint256 weiAmount = msg.value;\n        uint256 tokenAmount = weiAmount * icoRate;\n        uint256 unusedWei = 0;\n        if (tokenAmount > icoAmount) {\n            unusedWei = icoAmount / icoRate;\n            tokenAmount = icoAmount;\n        }\n\n        //Update state\n        icoWeiRaised += weiAmount - unusedWei;\n        icoAmount -= tokenAmount;\n\n        //Transfer token and unused wei\n        nftaToken.transfer(msg.sender, tokenAmount);\n        if (unusedWei > 0) {\n            payable(msg.sender).transfer(unusedWei);\n            icoDone = true;\n            emit ICOClosed();\n        }\n\n        emit TokenSold(msg.sender, tokenAmount);\n    }\n\n    //Getter functions\n    function presaleRaised() external view returns(uint256 result) {\n        return presaleWeiRaised;\n    }\n\n    function icoRaised() external view returns(uint256 result) {\n        return icoWeiRaised;\n    }\n\n    function getPresaleRate() external view returns(uint256 result) {\n        return presaleRate;\n    }\n\n    function getPresaleTimestamp() external view returns(uint256 result) {\n        return presaleTimestamp;\n    }\n\n    function getICORate() external view returns(uint256 result) {\n        return icoRate;\n    }\n\n    function getICOTimestamp() external view returns(uint256 result) {\n        return icoTimestamp;\n    }\n\n    function getPresaleAmount() external view returns(uint256 result) {\n        return presaleAmount;\n    }\n\n    function getICOAmount() external view returns(uint256 result) {\n        return icoAmount;\n    }\n\n    function isPresaleDone() external view returns(bool result) {\n        return presaleDone;\n    }\n\n    function isICODone() external view returns(bool result) {\n        return icoDone;\n    }\n}",
  "sourcePath": "/home/zion/Projekte/nft-arena/contracts/PublicSaleFund.sol",
  "compiler": {
    "name": "solc",
    "version": "0.8.13+commit.abaa5c0e.Emscripten.clang"
  },
  "schemaVersion": "3.4.3",
  "updatedAt": "2022-04-07T15:46:41.843Z",
  "networkType": "ethereum",
  "devdoc": {
    "kind": "dev",
    "methods": {},
    "version": 1
  },
  "userdoc": {
    "kind": "user",
    "methods": {},
    "version": 1
  }
}