{
  "contractName": "Ranking",
  "abi": [
    {
      "inputs": [
        {
          "internalType": "address",
          "name": "_multisigManager",
          "type": "address"
        },
        {
          "internalType": "address",
          "name": "_soulToken",
          "type": "address"
        },
        {
          "internalType": "address",
          "name": "_playerContract",
          "type": "address"
        },
        {
          "internalType": "address",
          "name": "_routerContract",
          "type": "address"
        },
        {
          "internalType": "address",
          "name": "_weth",
          "type": "address"
        },
        {
          "internalType": "address",
          "name": "_vrfc",
          "type": "address"
        },
        {
          "internalType": "address",
          "name": "_link",
          "type": "address"
        },
        {
          "internalType": "bytes32",
          "name": "_keyhash",
          "type": "bytes32"
        },
        {
          "internalType": "uint256",
          "name": "_fee",
          "type": "uint256"
        }
      ],
      "stateMutability": "nonpayable",
      "type": "constructor"
    },
    {
      "anonymous": false,
      "inputs": [
        {
          "indexed": true,
          "internalType": "address",
          "name": "sender",
          "type": "address"
        },
        {
          "indexed": false,
          "internalType": "uint256",
          "name": "rankId",
          "type": "uint256"
        },
        {
          "indexed": false,
          "internalType": "string",
          "name": "rankName",
          "type": "string"
        }
      ],
      "name": "AddedRank",
      "type": "event"
    },
    {
      "anonymous": false,
      "inputs": [
        {
          "indexed": true,
          "internalType": "address",
          "name": "sender",
          "type": "address"
        },
        {
          "indexed": false,
          "internalType": "uint256",
          "name": "amount",
          "type": "uint256"
        }
      ],
      "name": "ChangedFeeAmount",
      "type": "event"
    },
    {
      "anonymous": false,
      "inputs": [
        {
          "indexed": true,
          "internalType": "address",
          "name": "target",
          "type": "address"
        },
        {
          "indexed": true,
          "internalType": "string",
          "name": "from",
          "type": "string"
        },
        {
          "indexed": false,
          "internalType": "uint256",
          "name": "amount",
          "type": "uint256"
        }
      ],
      "name": "Deposited",
      "type": "event"
    },
    {
      "anonymous": false,
      "inputs": [
        {
          "indexed": true,
          "internalType": "bytes32",
          "name": "playerId",
          "type": "bytes32"
        },
        {
          "indexed": false,
          "internalType": "uint256",
          "name": "newRank",
          "type": "uint256"
        },
        {
          "indexed": false,
          "internalType": "uint256",
          "name": "attempts",
          "type": "uint256"
        }
      ],
      "name": "UpgradeFailed",
      "type": "event"
    },
    {
      "anonymous": false,
      "inputs": [
        {
          "indexed": true,
          "internalType": "bytes32",
          "name": "playerId",
          "type": "bytes32"
        },
        {
          "indexed": false,
          "internalType": "uint256",
          "name": "newRank",
          "type": "uint256"
        },
        {
          "indexed": false,
          "internalType": "uint256",
          "name": "attempts",
          "type": "uint256"
        }
      ],
      "name": "UpgradeSucceeded",
      "type": "event"
    },
    {
      "inputs": [
        {
          "internalType": "bytes32",
          "name": "requestId",
          "type": "bytes32"
        },
        {
          "internalType": "uint256",
          "name": "randomness",
          "type": "uint256"
        }
      ],
      "name": "rawFulfillRandomness",
      "outputs": [],
      "stateMutability": "nonpayable",
      "type": "function"
    },
    {
      "inputs": [],
      "name": "deposit",
      "outputs": [],
      "stateMutability": "payable",
      "type": "function"
    },
    {
      "inputs": [
        {
          "internalType": "uint256",
          "name": "amount",
          "type": "uint256"
        }
      ],
      "name": "depositLink",
      "outputs": [],
      "stateMutability": "nonpayable",
      "type": "function"
    },
    {
      "inputs": [
        {
          "internalType": "bytes32",
          "name": "playerId",
          "type": "bytes32"
        },
        {
          "internalType": "uint256",
          "name": "soulAmount",
          "type": "uint256"
        }
      ],
      "name": "upgrade",
      "outputs": [
        {
          "internalType": "bytes32",
          "name": "",
          "type": "bytes32"
        }
      ],
      "stateMutability": "nonpayable",
      "type": "function"
    },
    {
      "inputs": [
        {
          "internalType": "string",
          "name": "name",
          "type": "string"
        },
        {
          "internalType": "uint256",
          "name": "rate",
          "type": "uint256"
        },
        {
          "internalType": "uint256",
          "name": "statPoints",
          "type": "uint256"
        }
      ],
      "name": "addRank",
      "outputs": [],
      "stateMutability": "nonpayable",
      "type": "function"
    },
    {
      "inputs": [
        {
          "internalType": "uint256",
          "name": "newFee",
          "type": "uint256"
        }
      ],
      "name": "changeFeeAmount",
      "outputs": [],
      "stateMutability": "nonpayable",
      "type": "function"
    },
    {
      "inputs": [],
      "name": "getHighestRank",
      "outputs": [
        {
          "internalType": "uint256",
          "name": "",
          "type": "uint256"
        }
      ],
      "stateMutability": "view",
      "type": "function"
    },
    {
      "inputs": [
        {
          "internalType": "uint256",
          "name": "rank",
          "type": "uint256"
        }
      ],
      "name": "getRankName",
      "outputs": [
        {
          "internalType": "string",
          "name": "",
          "type": "string"
        }
      ],
      "stateMutability": "view",
      "type": "function"
    },
    {
      "inputs": [],
      "name": "getRanks",
      "outputs": [
        {
          "components": [
            {
              "internalType": "string",
              "name": "name",
              "type": "string"
            },
            {
              "internalType": "uint256",
              "name": "rate",
              "type": "uint256"
            },
            {
              "internalType": "uint256",
              "name": "stats",
              "type": "uint256"
            }
          ],
          "internalType": "struct Ranking.RankInformation[]",
          "name": "",
          "type": "tuple[]"
        }
      ],
      "stateMutability": "view",
      "type": "function"
    },
    {
      "inputs": [],
      "name": "getLinkBalance",
      "outputs": [
        {
          "internalType": "uint256",
          "name": "",
          "type": "uint256"
        }
      ],
      "stateMutability": "view",
      "type": "function"
    },
    {
      "inputs": [],
      "name": "hasFeeAmount",
      "outputs": [
        {
          "internalType": "bool",
          "name": "",
          "type": "bool"
        }
      ],
      "stateMutability": "view",
      "type": "function"
    },
    {
      "inputs": [],
      "name": "getFeeAmount",
      "outputs": [
        {
          "internalType": "uint256",
          "name": "",
          "type": "uint256"
        }
      ],
      "stateMutability": "view",
      "type": "function"
    }
  ],
  "bytecode": "0x60c06040523480156200001157600080fd5b50604051620025c6380380620025c68339810160408190526200003491620000dc565b6001600160a01b0384811660a052838116608052600180546001600160a01b03199081168c8416179091556002805482168b84161790556003805482168a8416179055600480548216898416179055600680549091169187169190911790556007829055620000ac8167016345785d8a000062000185565b60085550620001b3975050505050505050565b80516001600160a01b0381168114620000d757600080fd5b919050565b60008060008060008060008060006101208a8c031215620000fc57600080fd5b620001078a620000bf565b98506200011760208b01620000bf565b97506200012760408b01620000bf565b96506200013760608b01620000bf565b95506200014760808b01620000bf565b94506200015760a08b01620000bf565b93506200016760c08b01620000bf565b925060e08a015191506101008a015190509295985092959850929598565b6000816000190483118215151615620001ae57634e487b7160e01b600052601160045260246000fd5b500290565b60805160a0516123bc6200020a600039600081816109f10152611b3a0152600081816103ff0152818161097301528181610c19015281816113480152818161145c01528181611a4c0152611b0b01526123bc6000f3fe6080604052600436106100a75760003560e01c806350c5f9751161006457806350c5f9751461018e57806394985ddd146101a3578063bf5c9822146101c3578063d0e30db0146101d8578063f02e8fc6146101e0578063f9eafa701461020057600080fd5b806304867ecc146100ac57806324d5d3c5146100d75780632dca04a6146101045780632f3765861461012957806343b027491461014b57806347d09c771461016b575b600080fd5b3480156100b857600080fd5b506100c1610220565b6040516100ce9190611d77565b60405180910390f35b3480156100e357600080fd5b506100f76100f2366004611df8565b610325565b6040516100ce9190611e11565b34801561011057600080fd5b506101196103db565b60405190151581526020016100ce565b34801561013557600080fd5b50610149610144366004611df8565b610471565b005b34801561015757600080fd5b50610149610166366004611ec4565b610690565b34801561017757600080fd5b50610180610944565b6040519081526020016100ce565b34801561019a57600080fd5b5061018061095b565b3480156101af57600080fd5b506101496101be366004611f57565b6109e6565b3480156101cf57600080fd5b50610180610a6c565b610149610b3f565b3480156101ec57600080fd5b506101806101fb366004611f57565b610dab565b34801561020c57600080fd5b5061014961021b366004611df8565b611331565b60606005805480602002602001604051908101604052809291908181526020016000905b8282101561031c578382906000526020600020906003020160405180606001604052908160008201805461027790611f79565b80601f01602080910402602001604051908101604052809291908181526020018280546102a390611f79565b80156102f05780601f106102c5576101008083540402835291602001916102f0565b820191906000526020600020905b8154815290600101906020018083116102d357829003601f168201915b505050505081526020016001820154815260200160028201548152505081526020019060010190610244565b50505050905090565b60606005828154811061033a5761033a611fb3565b9060005260206000209060030201600001805461035690611f79565b80601f016020809104026020016040519081016040528092919081815260200182805461038290611f79565b80156103cf5780601f106103a4576101008083540402835291602001916103cf565b820191906000526020600020905b8154815290600101906020018083116103b257829003601f168201915b50505050509050919050565b6008546040516370a0823160e01b8152306004820152600091906001600160a01b037f000000000000000000000000000000000000000000000000000000000000000016906370a0823190602401602060405180830381865afa158015610446573d6000803e3d6000fd5b505050506040513d601f19601f8201168201806040525081019061046a9190611fc9565b1015905090565b6001546040516366bd542360e11b81523260048201526001600160a01b039091169063cd7aa84690602401602060405180830381865afa1580156104b9573d6000803e3d6000fd5b505050506040513d601f19601f820116820180604052508101906104dd9190611fe2565b61053a5760405162461bcd60e51b8152602060048201526024808201527f596f7520617265206e6f7420617574686f72697a656420746f206368616e67656044820152632066656560e01b60648201526084015b60405180910390fd5b600154604051634a36d88560e01b81526020600482015260096024820152686368616e676546656560b81b60448201526001600160a01b0390911690634a36d88590606401602060405180830381865afa15801561059c573d6000803e3d6000fd5b505050506040513d601f19601f820116820180604052508101906105c09190611fe2565b6105dc5760405162461bcd60e51b815260040161053190612004565b600881905560015460405163538f20d960e01b81526020600482015260096024820152686368616e676546656560b81b60448201526001600160a01b039091169063538f20d990606401600060405180830381600087803b15801561064057600080fd5b505af1158015610654573d6000803e3d6000fd5b50506040518381523292507f9c25f106328c489fa519f97d5b77ff73dff69529adeb8f704383cce0da45f002915060200160405180910390a250565b6001546040516366bd542360e11b81523260048201526001600160a01b039091169063cd7aa84690602401602060405180830381865afa1580156106d8573d6000803e3d6000fd5b505050506040513d601f19601f820116820180604052508101906106fc9190611fe2565b6107585760405162461bcd60e51b815260206004820152602760248201527f596f7520617265206e6f7420617574686f72697a656420746f20616464206e65604482015266772072616e6b7360c81b6064820152608401610531565b600154604051634a36d88560e01b815260206004820152600760248201526661646452616e6b60c81b60448201526001600160a01b0390911690634a36d88590606401602060405180830381865afa1580156107b8573d6000803e3d6000fd5b505050506040513d601f19601f820116820180604052508101906107dc9190611fe2565b6107f85760405162461bcd60e51b815260040161053190612004565b6040805160608101825284815260208082018590529181018390526005805460018101825560009190915281518051929360039092027f036b6384b5eca791c62761152d0c79bb0604c104a5fb6f4eb0703f3154bb3db0019261085e9284920190611c82565b50602082015160018083019190915560409283015160029092019190915554905163538f20d960e01b81526001600160a01b039091169063538f20d9906108c39060040160208082526007908201526661646452616e6b60c81b604082015260600190565b600060405180830381600087803b1580156108dd57600080fd5b505af11580156108f1573d6000803e3d6000fd5b50506005543292507ff5da995cf5f6441fbce0603f196abaa019ddddcf84e392794dd130fb083af8c4915061092890600190612066565b8560405161093792919061207d565b60405180910390a2505050565b60055460009061095690600190612066565b905090565b6040516370a0823160e01b81523060048201526000907f00000000000000000000000000000000000000000000000000000000000000006001600160a01b0316906370a0823190602401602060405180830381865afa1580156109c2573d6000803e3d6000fd5b505050506040513d601f19601f820116820180604052508101906109569190611fc9565b336001600160a01b037f00000000000000000000000000000000000000000000000000000000000000001614610a5e5760405162461bcd60e51b815260206004820152601f60248201527f4f6e6c7920565246436f6f7264696e61746f722063616e2066756c66696c6c006044820152606401610531565b610a688282611545565b5050565b6001546040516366bd542360e11b81523260048201526000916001600160a01b03169063cd7aa84690602401602060405180830381865afa158015610ab5573d6000803e3d6000fd5b505050506040513d601f19601f82011682018060405250810190610ad99190611fe2565b610b385760405162461bcd60e51b815260206004820152602a60248201527f596f7520617265206e6f7420617574686f72697a656420746f20636865636b2060448201526919995948185b5bdd5b9d60b21b6064820152608401610531565b5060085490565b60003411610ba35760405162461bcd60e51b815260206004820152602b60248201527f596f75206861766520746f2073656e6420636f696e7320746f2070617920746860448201526a34b990333ab731ba34b7b760a91b6064820152608401610531565b6000610bb1426103e8612096565b6040805160028082526060820183529293506000929091602083019080368337505060065482519293506001600160a01b031691839150600090610bf757610bf7611fb3565b60200260200101906001600160a01b031690816001600160a01b0316815250507f000000000000000000000000000000000000000000000000000000000000000081600181518110610c4b57610c4b611fb3565b6001600160a01b03928316602091820292909201015260048054604051637ff36ab560e01b81526000939190911691637ff36ab5913491610c94918691889130918b91016120ae565b60006040518083038185885af1158015610cb2573d6000803e3d6000fd5b50505050506040513d6000823e601f3d908101601f19168201604052610cdb9190810190612118565b905080600181518110610cf057610cf0611fb3565b602002602001015160096000326001600160a01b03166001600160a01b031681526020019081526020016000206000828254610d2c9190612096565b90915550506040516331b7b4b760e11b81526004016040518091039020326001600160a01b03167ffd4bdef056842e4615d2a093647094c0b9bf67c63662d614d63fefd617e0add283600181518110610d8757610d87611fb3565b6020026020010151604051610d9e91815260200190565b60405180910390a3505050565b60025460405163aab4561f60e01b81523060048201526000916001600160a01b03169063aab4561f90602401602060405180830381865afa158015610df4573d6000803e3d6000fd5b505050506040513d601f19601f82011682018060405250810190610e189190611fe2565b610e785760405162461bcd60e51b815260206004820152602b60248201527f5468697320636f6e7472616374206973206e6f7420617070726f76656420746f60448201526a206275726e20736f756c7360a81b6064820152608401610531565b600854336000908152600960205260409020541015610ed95760405162461bcd60e51b815260206004820181905260248201527f596f7572206465706f7369742062616c616e636520697320746f6f206c6f772e6044820152606401610531565b60035460405163f0d1c8b160e01b8152600481018590526001600160a01b039091169063f0d1c8b190602401602060405180830381865afa158015610f22573d6000803e3d6000fd5b505050506040513d601f19601f82011682018060405250810190610f469190611fe2565b610f9c5760405162461bcd60e51b815260206004820152602160248201527f5468652074617267657420706c6179657220646f6573206e6f742065786973746044820152601760f91b6064820152608401610531565b6003546040516385e78f8560e01b8152600481018590526000916001600160a01b0316906385e78f8590602401600060405180830381865afa158015610fe6573d6000803e3d6000fd5b505050506040513d6000823e601f3d908101601f1916820160405261100e919081019061221f565b602081015160408083015190516331a9108f60e11b81526004810191909152919250906000906001600160a01b03831690636352211e90602401602060405180830381865afa158015611065573d6000803e3d6000fd5b505050506040513d601f19601f8201168201806040525081019061108991906122fd565b9050336001600160a01b038216146111155760405162461bcd60e51b815260206004820152604360248201527f596f7520617265206e6f7420616c6c6f7765642075706772616465207468652060448201527f72616e6b20666f72204e46542773207468617420796f7520646f206e6f74206f6064820152623bb71760e91b608482015260a401610531565b61111d610944565b8361014001511061117c5760405162461bcd60e51b8152602060048201526024808201527f596f752061726520616c726561647920617420746865206d6178696d756d207260448201526330b7359760e11b6064820152608401610531565b6002546040516370a0823160e01b815233600482015286916001600160a01b0316906370a0823190602401602060405180830381865afa1580156111c4573d6000803e3d6000fd5b505050506040513d601f19601f820116820180604052508101906111e89190611fc9565b10156112425760405162461bcd60e51b815260206004820152602360248201527f596f757220736f756c20746f6b656e2062616c616e636520697320746f6f206c60448201526237bb9760e91b6064820152608401610531565b6000851161129d5760405162461bcd60e51b815260206004820152602260248201527f596f75206861766520746f206275726e206174206c65617374206f6e6520736f6044820152611d5b60f21b6064820152608401610531565b60006112a7611a28565b600854336000908152600960205260408120805493945091926112cb908490612066565b909155505060408051606081018252338152945160208087019182528683019889526000848152600a90915291909120945185546001600160a01b0319166001600160a01b03909116178555516001850155945160029093019290925550919392505050565b6040516370a0823160e01b815232600482015281907f00000000000000000000000000000000000000000000000000000000000000006001600160a01b0316906370a0823190602401602060405180830381865afa158015611397573d6000803e3d6000fd5b505050506040513d601f19601f820116820180604052508101906113bb9190611fc9565b101561143a5760405162461bcd60e51b815260206004820152604260248201527f596f7520646f206e6f74206861766520656e6f756768204c494e4b20746f6b6560448201527f6e20746f206465706f736974207468652072657175657374656420616d6f756e6064820152613a1760f11b608482015260a401610531565b6040516323b872dd60e01b8152336004820152306024820152604481018290527f00000000000000000000000000000000000000000000000000000000000000006001600160a01b0316906323b872dd906064016020604051808303816000875af11580156114ad573d6000803e3d6000fd5b505050506040513d601f19601f820116820180604052508101906114d19190611fe2565b5032600090815260096020526040812080548392906114f1908490612096565b9091555050604051636c696e6b60e01b81526004016040519081900381208282529032907ffd4bdef056842e4615d2a093647094c0b9bf67c63662d614d63fefd617e0add29060200160405180910390a350565b6000828152600a60205260409020600201546115a35760405162461bcd60e51b815260206004820152601b60248201527f546865207265717565737420646f6573206e6f742065786973742e00000000006044820152606401610531565b6000828152600a60209081526040808320815160608101835281546001600160a01b039081168252600183015494820185905260029092015481840181905260035493516385e78f8560e01b8152919590949093849316916385e78f85916116119160040190815260200190565b600060405180830381865afa15801561162e573d6000803e3d6000fd5b505050506040513d6000823e601f3d908101601f19168201604052611656919081019061221f565b905060006005826101400151600161166e9190612096565b8154811061167e5761167e611fb3565b90600052602060002090600302016040518060600160405290816000820180546116a790611f79565b80601f01602080910402602001604051908101604052809291908181526020018280546116d390611f79565b80156117205780601f106116f557610100808354040283529160200191611720565b820191906000526020600020905b81548152906001019060200180831161170357829003601f168201915b505050505081526020016001820154815260200160028201548152505090505b82158015611752575060008560400151115b156117db57600081602001518787604001514261176f919061232e565b6040805160208101939093528201526060016040516020818303038152906040528051906020012060001c6117a49190612342565b6117af906001612096565b90506001866040018181516117c49190612066565b90525060018190036117d557600193505b50611740565b600254855160408701516001600160a01b039092169163cea07f1091906118029088612066565b6040516001600160e01b031960e085901b1681526001600160a01b0390921660048301526024820152604401600060405180830381600087803b15801561184857600080fd5b505af115801561185c573d6000803e3d6000fd5b5050505082156119bf5760035460208601516101408401516001600160a01b0390921691639b8e58a39190611892906001612096565b6040516001600160e01b031960e085901b16815260048101929092526024820152604401600060405180830381600087803b1580156118d057600080fd5b505af11580156118e4573d6000803e3d6000fd5b505060035460208801516040808601519051638e410e0160e01b81526001600160a01b039093169450638e410e01935061192992600401918252602082015260400190565b600060405180830381600087803b15801561194357600080fd5b505af1158015611957573d6000803e3d6000fd5b5050505084602001517fa93471970ff237a78c622d133706b8b7a8de3f1297b9385aa3e63f8181f69cd483610140015160016119939190612096565b60408801516119a29088612066565b6040805192835260208301919091520160405180910390a2611a1f565b84602001517fc0549dd1d187f3ef09bed717818e2fbb4793e00f37a8dec494d1915f53c0f28983610140015160016119f79190612096565b6040880151611a069088612066565b6040805192835260208301919091520160405180910390a25b50505050505050565b6008546040516370a0823160e01b8152306004820152600091906001600160a01b037f000000000000000000000000000000000000000000000000000000000000000016906370a0823190602401602060405180830381865afa158015611a93573d6000803e3d6000fd5b505050506040513d601f19601f82011682018060405250810190611ab79190611fc9565b1015611afe5760405162461bcd60e51b81526020600482015260166024820152752737ba1032b737bab3b4102624a725903a37b5b2b71760511b6044820152606401610531565b61095660075460085460007f00000000000000000000000000000000000000000000000000000000000000006001600160a01b0316634000aea07f000000000000000000000000000000000000000000000000000000000000000084866000604051602001611b77929190918252602082015260400190565b6040516020818303038152906040526040518463ffffffff1660e01b8152600401611ba493929190612356565b6020604051808303816000875af1158015611bc3573d6000803e3d6000fd5b505050506040513d601f19601f82011682018060405250810190611be79190611fe2565b5060008381526020818152604080832054815180840188905280830185905230606082015260808082018390528351808303909101815260a090910190925281519183019190912086845292909152611c41906001612096565b60008581526020818152604091829020929092558051808301879052808201849052815180820383018152606090910190915280519101205b949350505050565b828054611c8e90611f79565b90600052602060002090601f016020900481019282611cb05760008555611cf6565b82601f10611cc957805160ff1916838001178555611cf6565b82800160010185558215611cf6579182015b82811115611cf6578251825591602001919060010190611cdb565b50611d02929150611d06565b5090565b5b80821115611d025760008155600101611d07565b60005b83811015611d36578181015183820152602001611d1e565b83811115611d45576000848401525b50505050565b60008151808452611d63816020860160208601611d1b565b601f01601f19169290920160200192915050565b60006020808301818452808551808352604092508286019150828160051b87010184880160005b83811015611dea57603f19898403018552815160608151818652611dc482870182611d4b565b838b0151878c015292890151958901959095525094870194925090860190600101611d9e565b509098975050505050505050565b600060208284031215611e0a57600080fd5b5035919050565b602081526000611e246020830184611d4b565b9392505050565b634e487b7160e01b600052604160045260246000fd5b604051610160810167ffffffffffffffff81118282101715611e6557611e65611e2b565b60405290565b604051601f8201601f1916810167ffffffffffffffff81118282101715611e9457611e94611e2b565b604052919050565b600067ffffffffffffffff821115611eb657611eb6611e2b565b50601f01601f191660200190565b600080600060608486031215611ed957600080fd5b833567ffffffffffffffff811115611ef057600080fd5b8401601f81018613611f0157600080fd5b8035611f14611f0f82611e9c565b611e6b565b818152876020838501011115611f2957600080fd5b8160208401602083013760006020838301015280955050505060208401359150604084013590509250925092565b60008060408385031215611f6a57600080fd5b50508035926020909101359150565b600181811c90821680611f8d57607f821691505b602082108103611fad57634e487b7160e01b600052602260045260246000fd5b50919050565b634e487b7160e01b600052603260045260246000fd5b600060208284031215611fdb57600080fd5b5051919050565b600060208284031215611ff457600080fd5b81518015158114611e2457600080fd5b6020808252602c908201527f546869732066756e6374696f6e206973206e6f7420617574686f72697a65642060408201526b1d1bc818994818d85b1b195960a21b606082015260800190565b634e487b7160e01b600052601160045260246000fd5b60008282101561207857612078612050565b500390565b828152604060208201526000611c7a6040830184611d4b565b600082198211156120a9576120a9612050565b500190565b600060808201868352602060808185015281875180845260a086019150828901935060005b818110156120f85784516001600160a01b0316835293830193918301916001016120d3565b50506001600160a01b039690961660408501525050506060015292915050565b6000602080838503121561212b57600080fd5b825167ffffffffffffffff8082111561214357600080fd5b818501915085601f83011261215757600080fd5b81518181111561216957612169611e2b565b8060051b915061217a848301611e6b565b818152918301840191848101908884111561219457600080fd5b938501935b838510156121b257845182529385019390850190612199565b98975050505050505050565b80516001600160a01b03811681146121d557600080fd5b919050565b600082601f8301126121eb57600080fd5b81516121f9611f0f82611e9c565b81815284602083860101111561220e57600080fd5b611c7a826020830160208701611d1b565b60006020828403121561223157600080fd5b815167ffffffffffffffff8082111561224957600080fd5b90830190610160828603121561225e57600080fd5b612266611e41565b82518152612276602084016121be565b60208201526040830151604082015260608301518281111561229757600080fd5b6122a3878286016121da565b6060830152506080838101519082015260a0808401519082015260c0808401519082015260e08084015190820152610100808401519082015261012080840151908201526101409283015192810192909252509392505050565b60006020828403121561230f57600080fd5b611e24826121be565b634e487b7160e01b600052601260045260246000fd5b60008261233d5761233d612318565b500490565b60008261235157612351612318565b500690565b60018060a01b038416815282602082015260606040820152600061237d6060830184611d4b565b9594505050505056fea26469706673582212203a4d18eca70665e9ff768d1e5625903f03f905de2439a4b4b04c35579296638b64736f6c634300080d0033",
  "immutableReferences": {
    "73": [
      {
        "length": 32,
        "start": 1023
      },
      {
        "length": 32,
        "start": 2419
      },
      {
        "length": 32,
        "start": 3097
      },
      {
        "length": 32,
        "start": 4936
      },
      {
        "length": 32,
        "start": 5212
      },
      {
        "length": 32,
        "start": 6732
      },
      {
        "length": 32,
        "start": 6923
      }
    ],
    "75": [
      {
        "length": 32,
        "start": 2545
      },
      {
        "length": 32,
        "start": 6970
      }
    ]
  },
  "source": "// SPDX-License-Identifier: MIT\npragma solidity ^0.8.0;\n\nimport \"@chainlink/contracts/src/v0.8/VRFConsumerBase.sol\";\nimport \"@openzeppelin/contracts/token/ERC721/IERC721.sol\";\nimport \"./IRouter.sol\";\nimport \"./IMultisigManager.sol\";\nimport \"./SoulToken.sol\";\nimport \"./Player.sol\";\n\ncontract Ranking is VRFConsumerBase {\n    struct RankInformation {\n        string name;\n        uint256 rate;\n        uint256 stats;\n    }\n\n    struct RequestInformation {\n        address sender;\n        bytes32 playerId;\n        uint256 souls;\n    }\n\n    IMultisigManager private multisigManager;\n    SoulToken private soulToken;\n    Player private playerContract;\n    IRouter private routerContract;\n    RankInformation[] private ranks;\n    address private wethToken;\n    bytes32 private keyHash;\n    uint256 private fee;\n    mapping(address => uint256) private deposits;\n    mapping(bytes32 => RequestInformation) private requests;\n\n    event UpgradeSucceeded(bytes32 indexed playerId, uint256 newRank, uint256 attempts);\n    event UpgradeFailed(bytes32 indexed playerId, uint256 newRank, uint256 attempts);\n    event Deposited(address indexed target, string indexed from, uint256 amount);\n    event AddedRank(address indexed sender, uint256 rankId, string rankName);\n    event ChangedFeeAmount(address indexed sender, uint256 amount);\n\n    //Check network dependent parameter before deployment\n    constructor(address _multisigManager, address _soulToken, address _playerContract, address _routerContract, address _weth, address _vrfc, address _link, bytes32 _keyhash, uint256 _fee) VRFConsumerBase(_vrfc, _link) {\n        multisigManager = IMultisigManager(_multisigManager);\n        soulToken = SoulToken(_soulToken);\n        playerContract = Player(_playerContract);\n        routerContract = IRouter(_routerContract);\n        wethToken = _weth;\n        keyHash = _keyhash;\n        fee = _fee * 10 ** 17; //0.(_fee) LINK\n    }\n\n    function getRandomNumber() private returns (bytes32 requestId) {\n        require(LINK.balanceOf(address(this)) >= fee, \"Not enough LINK token.\");\n        return requestRandomness(keyHash, fee);\n    }\n\n    function fulfillRandomness(bytes32 requestId, uint256 randomness) internal override {\n        require(requests[requestId].souls > 0, \"The request does not exist.\");\n        RequestInformation memory request = requests[requestId];\n\n        //Iterate ranking up\n        uint256 totalSouls = request.souls;\n        bool upgradeSuccess = false;\n        Player.PlayerObject memory player = playerContract.getPlayer(request.playerId);\n        RankInformation memory nextRank = ranks[player.rank + 1];\n        while (!upgradeSuccess && request.souls > 0) {\n            uint256 random = (uint(keccak256(abi.encodePacked(randomness, (block.timestamp / request.souls)))) % nextRank.rate) + 1;\n            request.souls -= 1;\n            if (random == 1) {\n                upgradeSuccess = true;\n            }\n        }\n\n        //Burn souls\n        soulToken.approvedBurn(request.sender, totalSouls - request.souls);\n\n        //Upgrade players rank if succeeded\n        if (upgradeSuccess) {\n            playerContract.changeRank(request.playerId, player.rank + 1);\n            playerContract.addStatPoints(request.playerId, nextRank.stats);\n            emit UpgradeSucceeded(request.playerId, player.rank + 1, totalSouls - request.souls);\n        } else {\n            emit UpgradeFailed(request.playerId, player.rank + 1, totalSouls - request.souls);\n        }\n    }\n\n    function deposit() external payable {\n        require(msg.value > 0, \"You have to send coins to pay this function\");\n        uint deadline = block.timestamp + 1000;\n        address[] memory path = new address[](2);\n        path[0] = wethToken;\n        path[1] = address(LINK);\n        uint[] memory resultAmounts = routerContract.swapExactETHForTokens{value: msg.value}(0, path, address(this), deadline);\n        deposits[tx.origin] += resultAmounts[1];\n        emit Deposited(tx.origin, \"coin\", resultAmounts[1]);\n    }\n\n    function depositLink(uint256 amount) external {\n        require(LINK.balanceOf(tx.origin) >= amount, \"You do not have enough LINK token to deposit the requested amount.\");\n        LINK.transferFrom(msg.sender, address(this), amount);\n        deposits[tx.origin] += amount;\n        emit Deposited(tx.origin, \"link\", amount);\n    }\n\n    function upgrade(bytes32 playerId, uint256 soulAmount) external returns(bytes32) {\n        //Check requirements\n        require(soulToken.checkApprovedBurner(address(this)), \"This contract is not approved to burn souls\");\n        require(deposits[msg.sender] >= fee, \"Your deposit balance is too low.\");\n        require(playerContract.isPlayer(playerId), \"The target player does not exist.\");\n        Player.PlayerObject memory player = playerContract.getPlayer(playerId);\n        IERC721 target = IERC721(player.tokenContract);\n        address targetOwner = target.ownerOf(player.tokenId);\n        require(msg.sender == targetOwner, \"You are not allowed upgrade the rank for NFT's that you do not own.\");\n        require(player.rank < getHighestRank(), \"You are already at the maximum rank.\");\n        require(soulToken.balanceOf(msg.sender) >= soulAmount, \"Your soul token balance is too low.\");\n        require(soulAmount > 0, \"You have to burn at least one soul\");\n\n        //Get random number\n        bytes32 newRequestId = getRandomNumber();\n        deposits[msg.sender] -= fee;\n        requests[newRequestId] = RequestInformation(\n            msg.sender,\n            player.id,\n            soulAmount\n        );\n        return newRequestId;\n    }\n\n    function addRank(string memory name, uint256 rate, uint256 statPoints) external {\n        require(multisigManager.senderIsMasterOrMember(tx.origin), \"You are not authorized to add new ranks\");\n        require(multisigManager.checkAllPermission(\"addRank\"), \"This function is not authorized to be called\");\n        ranks.push(\n            RankInformation(\n                name,\n                rate,\n                statPoints\n            )\n        );\n        multisigManager.resetFunctionPermission(\"addRank\");\n        emit AddedRank(tx.origin, ranks.length - 1, name);\n    }\n\n    function changeFeeAmount(uint256 newFee) external {\n        require(multisigManager.senderIsMasterOrMember(tx.origin), \"You are not authorized to change fee\");\n        require(multisigManager.checkAllPermission(\"changeFee\"), \"This function is not authorized to be called\");\n        fee = newFee;\n        multisigManager.resetFunctionPermission(\"changeFee\");\n        emit ChangedFeeAmount(tx.origin, newFee);\n    }\n\n    function getHighestRank() public view returns(uint256) {\n        return ranks.length - 1;\n    }\n\n    function getRankName(uint256 rank) external view returns(string memory) {\n        return ranks[rank].name;\n    }\n\n    function getRanks() external view returns(RankInformation[] memory) {\n        return ranks;\n    }\n\n    function getLinkBalance() external view returns(uint256) {\n        return LINK.balanceOf(address(this));\n    }\n\n    function hasFeeAmount() external view returns(bool) {\n        return LINK.balanceOf(address(this)) >= fee;\n    }\n\n    function getFeeAmount() external view returns(uint256) {\n        require(multisigManager.senderIsMasterOrMember(tx.origin), \"You are not authorized to check fee amount\");\n        return fee;\n    }\n}",
  "sourcePath": "/home/zion/Projekte/nft-arena/contracts/Ranking.sol",
  "compiler": {
    "name": "solc",
    "version": "0.8.13+commit.abaa5c0e.Emscripten.clang"
  },
  "schemaVersion": "3.4.3",
  "updatedAt": "2022-04-07T14:06:32.658Z",
  "devdoc": {
    "kind": "dev",
    "methods": {},
    "version": 1
  },
  "userdoc": {
    "kind": "user",
    "methods": {},
    "version": 1
  }
}