{
  "contractName": "SoulToken",
  "abi": [
    {
      "inputs": [
        {
          "internalType": "address",
          "name": "_multisigManager",
          "type": "address"
        }
      ],
      "stateMutability": "nonpayable",
      "type": "constructor"
    },
    {
      "anonymous": false,
      "inputs": [
        {
          "indexed": true,
          "internalType": "address",
          "name": "owner",
          "type": "address"
        },
        {
          "indexed": true,
          "internalType": "address",
          "name": "spender",
          "type": "address"
        },
        {
          "indexed": false,
          "internalType": "uint256",
          "name": "value",
          "type": "uint256"
        }
      ],
      "name": "Approval",
      "type": "event"
    },
    {
      "anonymous": false,
      "inputs": [
        {
          "indexed": true,
          "internalType": "address",
          "name": "target",
          "type": "address"
        },
        {
          "indexed": false,
          "internalType": "uint256",
          "name": "amount",
          "type": "uint256"
        }
      ],
      "name": "Burned",
      "type": "event"
    },
    {
      "anonymous": false,
      "inputs": [
        {
          "indexed": false,
          "internalType": "address",
          "name": "target",
          "type": "address"
        }
      ],
      "name": "BurnerApproved",
      "type": "event"
    },
    {
      "anonymous": false,
      "inputs": [
        {
          "indexed": false,
          "internalType": "address",
          "name": "target",
          "type": "address"
        }
      ],
      "name": "BurnerRemoved",
      "type": "event"
    },
    {
      "anonymous": false,
      "inputs": [
        {
          "indexed": true,
          "internalType": "address",
          "name": "target",
          "type": "address"
        },
        {
          "indexed": false,
          "internalType": "uint256",
          "name": "amount",
          "type": "uint256"
        }
      ],
      "name": "Minted",
      "type": "event"
    },
    {
      "anonymous": false,
      "inputs": [
        {
          "indexed": false,
          "internalType": "address",
          "name": "target",
          "type": "address"
        }
      ],
      "name": "MinterApproved",
      "type": "event"
    },
    {
      "anonymous": false,
      "inputs": [
        {
          "indexed": false,
          "internalType": "address",
          "name": "target",
          "type": "address"
        }
      ],
      "name": "MinterRemoved",
      "type": "event"
    },
    {
      "anonymous": false,
      "inputs": [
        {
          "indexed": true,
          "internalType": "address",
          "name": "from",
          "type": "address"
        },
        {
          "indexed": true,
          "internalType": "address",
          "name": "to",
          "type": "address"
        },
        {
          "indexed": false,
          "internalType": "uint256",
          "name": "value",
          "type": "uint256"
        }
      ],
      "name": "Transfer",
      "type": "event"
    },
    {
      "inputs": [
        {
          "internalType": "address",
          "name": "owner",
          "type": "address"
        },
        {
          "internalType": "address",
          "name": "spender",
          "type": "address"
        }
      ],
      "name": "allowance",
      "outputs": [
        {
          "internalType": "uint256",
          "name": "",
          "type": "uint256"
        }
      ],
      "stateMutability": "view",
      "type": "function"
    },
    {
      "inputs": [
        {
          "internalType": "address",
          "name": "spender",
          "type": "address"
        },
        {
          "internalType": "uint256",
          "name": "amount",
          "type": "uint256"
        }
      ],
      "name": "approve",
      "outputs": [
        {
          "internalType": "bool",
          "name": "",
          "type": "bool"
        }
      ],
      "stateMutability": "nonpayable",
      "type": "function"
    },
    {
      "inputs": [
        {
          "internalType": "address",
          "name": "account",
          "type": "address"
        }
      ],
      "name": "balanceOf",
      "outputs": [
        {
          "internalType": "uint256",
          "name": "",
          "type": "uint256"
        }
      ],
      "stateMutability": "view",
      "type": "function"
    },
    {
      "inputs": [
        {
          "internalType": "address",
          "name": "spender",
          "type": "address"
        },
        {
          "internalType": "uint256",
          "name": "subtractedValue",
          "type": "uint256"
        }
      ],
      "name": "decreaseAllowance",
      "outputs": [
        {
          "internalType": "bool",
          "name": "",
          "type": "bool"
        }
      ],
      "stateMutability": "nonpayable",
      "type": "function"
    },
    {
      "inputs": [
        {
          "internalType": "address",
          "name": "spender",
          "type": "address"
        },
        {
          "internalType": "uint256",
          "name": "addedValue",
          "type": "uint256"
        }
      ],
      "name": "increaseAllowance",
      "outputs": [
        {
          "internalType": "bool",
          "name": "",
          "type": "bool"
        }
      ],
      "stateMutability": "nonpayable",
      "type": "function"
    },
    {
      "inputs": [],
      "name": "name",
      "outputs": [
        {
          "internalType": "string",
          "name": "",
          "type": "string"
        }
      ],
      "stateMutability": "view",
      "type": "function"
    },
    {
      "inputs": [],
      "name": "symbol",
      "outputs": [
        {
          "internalType": "string",
          "name": "",
          "type": "string"
        }
      ],
      "stateMutability": "view",
      "type": "function"
    },
    {
      "inputs": [],
      "name": "totalSupply",
      "outputs": [
        {
          "internalType": "uint256",
          "name": "",
          "type": "uint256"
        }
      ],
      "stateMutability": "view",
      "type": "function"
    },
    {
      "inputs": [
        {
          "internalType": "address",
          "name": "recipient",
          "type": "address"
        },
        {
          "internalType": "uint256",
          "name": "amount",
          "type": "uint256"
        }
      ],
      "name": "transfer",
      "outputs": [
        {
          "internalType": "bool",
          "name": "",
          "type": "bool"
        }
      ],
      "stateMutability": "nonpayable",
      "type": "function"
    },
    {
      "inputs": [
        {
          "internalType": "address",
          "name": "sender",
          "type": "address"
        },
        {
          "internalType": "address",
          "name": "recipient",
          "type": "address"
        },
        {
          "internalType": "uint256",
          "name": "amount",
          "type": "uint256"
        }
      ],
      "name": "transferFrom",
      "outputs": [
        {
          "internalType": "bool",
          "name": "",
          "type": "bool"
        }
      ],
      "stateMutability": "nonpayable",
      "type": "function"
    },
    {
      "inputs": [],
      "name": "decimals",
      "outputs": [
        {
          "internalType": "uint8",
          "name": "",
          "type": "uint8"
        }
      ],
      "stateMutability": "pure",
      "type": "function"
    },
    {
      "inputs": [
        {
          "internalType": "address",
          "name": "target",
          "type": "address"
        },
        {
          "internalType": "uint256",
          "name": "amount",
          "type": "uint256"
        }
      ],
      "name": "approvedMint",
      "outputs": [],
      "stateMutability": "nonpayable",
      "type": "function"
    },
    {
      "inputs": [
        {
          "internalType": "address",
          "name": "target",
          "type": "address"
        },
        {
          "internalType": "uint256",
          "name": "amount",
          "type": "uint256"
        }
      ],
      "name": "approvedBurn",
      "outputs": [],
      "stateMutability": "nonpayable",
      "type": "function"
    },
    {
      "inputs": [
        {
          "internalType": "address",
          "name": "target",
          "type": "address"
        }
      ],
      "name": "approveMinter",
      "outputs": [],
      "stateMutability": "nonpayable",
      "type": "function"
    },
    {
      "inputs": [
        {
          "internalType": "address",
          "name": "target",
          "type": "address"
        }
      ],
      "name": "removeMinter",
      "outputs": [],
      "stateMutability": "nonpayable",
      "type": "function"
    },
    {
      "inputs": [
        {
          "internalType": "address",
          "name": "target",
          "type": "address"
        }
      ],
      "name": "approveBurner",
      "outputs": [],
      "stateMutability": "nonpayable",
      "type": "function"
    },
    {
      "inputs": [
        {
          "internalType": "address",
          "name": "target",
          "type": "address"
        }
      ],
      "name": "removeBurner",
      "outputs": [],
      "stateMutability": "nonpayable",
      "type": "function"
    },
    {
      "inputs": [
        {
          "internalType": "address",
          "name": "target",
          "type": "address"
        }
      ],
      "name": "checkApprovedMinter",
      "outputs": [
        {
          "internalType": "bool",
          "name": "",
          "type": "bool"
        }
      ],
      "stateMutability": "view",
      "type": "function"
    },
    {
      "inputs": [
        {
          "internalType": "address",
          "name": "target",
          "type": "address"
        }
      ],
      "name": "checkApprovedBurner",
      "outputs": [
        {
          "internalType": "bool",
          "name": "",
          "type": "bool"
        }
      ],
      "stateMutability": "view",
      "type": "function"
    }
  ],
  "bytecode": "0x60806040523480156200001157600080fd5b506040516200199738038062001997833981016040819052620000349162000168565b604080518082018252600a81526929b7bab6102a37b5b2b760b11b60208083019182528351808501909452600484526314d3d55360e21b9084015281519192916200008291600391620000c2565b50805162000098906004906020840190620000c2565b5050600580546001600160a01b0319166001600160a01b03939093169290921790915550620001d6565b828054620000d0906200019a565b90600052602060002090601f016020900481019282620000f457600085556200013f565b82601f106200010f57805160ff19168380011785556200013f565b828001600101855582156200013f579182015b828111156200013f57825182559160200191906001019062000122565b506200014d92915062000151565b5090565b5b808211156200014d576000815560010162000152565b6000602082840312156200017b57600080fd5b81516001600160a01b03811681146200019357600080fd5b9392505050565b600181811c90821680620001af57607f821691505b602082108103620001d057634e487b7160e01b600052602260045260246000fd5b50919050565b6117b180620001e66000396000f3fe608060405234801561001057600080fd5b50600436106101215760003560e01c806339509351116100ad578063a9059cbb11610071578063a9059cbb1461026c578063aab4561f1461027f578063ba03d080146102ab578063cea07f10146102be578063dd62ed3e146102d157600080fd5b806339509351146102025780634d197a9b1461021557806370a082311461022857806395d89b4114610251578063a457c2d71461025957600080fd5b806318160ddd116100f457806318160ddd1461018f57806323b872dd146101a157806330618af5146101b45780633092afd5146101e0578063313ce567146101f357600080fd5b8063028468581461012657806306fdde031461013b578063070f572e14610159578063095ea7b31461016c575b600080fd5b610139610134366004611532565b61030a565b005b610143610558565b6040516101509190611554565b60405180910390f35b610139610167366004611532565b6105ea565b61017f61017a3660046115a9565b610836565b6040519015158152602001610150565b6002545b604051908152602001610150565b61017f6101af3660046115d3565b61084c565b61017f6101c2366004611532565b6001600160a01b031660009081526006602052604090205460ff1690565b6101396101ee366004611532565b6108f6565b60405160008152602001610150565b61017f6102103660046115a9565b610b38565b610139610223366004611532565b610b74565b610193610236366004611532565b6001600160a01b031660009081526020819052604090205490565b610143610dc0565b61017f6102673660046115a9565b610dcf565b61017f61027a3660046115a9565b610e68565b61017f61028d366004611532565b6001600160a01b031660009081526007602052604090205460ff1690565b6101396102b93660046115a9565b610e75565b6101396102cc3660046115a9565b610f3f565b6101936102df36600461160f565b6001600160a01b03918216600090815260016020908152604080832093909416825291909152205490565b6005546040516366bd542360e11b81523260048201526001600160a01b039091169063cd7aa84690602401602060405180830381865afa158015610352573d6000803e3d6000fd5b505050506040513d601f19601f820116820180604052508101906103769190611642565b6103d85760405162461bcd60e51b815260206004820152602860248201527f596f7520617265206e6f7420617574686f72697a656420746f2072656d6f7665604482015267206275726e65727360c01b60648201526084015b60405180910390fd5b600554604051634a36d88560e01b815260206004820152600c60248201526b3932b6b7bb32a13ab93732b960a11b60448201526001600160a01b0390911690634a36d88590606401602060405180830381865afa15801561043d573d6000803e3d6000fd5b505050506040513d601f19601f820116820180604052508101906104619190611642565b61047d5760405162461bcd60e51b81526004016103cf90611664565b6001600160a01b0380821660009081526007602052604090819020805460ff19169055600554905163538f20d960e01b815291169063538f20d9906104e5906004016020808252600c908201526b3932b6b7bb32a13ab93732b960a11b604082015260600190565b600060405180830381600087803b1580156104ff57600080fd5b505af1158015610513573d6000803e3d6000fd5b50506040516001600160a01b03841681527f90eabbc0c667db2a5029ed6bc0f5fe9f356d11684a4ca9fcfaec0e53f12b9c8e925060200190505b60405180910390a150565b606060038054610567906116b0565b80601f0160208091040260200160405190810160405280929190818152602001828054610593906116b0565b80156105e05780601f106105b5576101008083540402835291602001916105e0565b820191906000526020600020905b8154815290600101906020018083116105c357829003601f168201915b5050505050905090565b6005546040516366bd542360e11b81523260048201526001600160a01b039091169063cd7aa84690602401602060405180830381865afa158015610632573d6000803e3d6000fd5b505050506040513d601f19601f820116820180604052508101906106569190611642565b6106b85760405162461bcd60e51b815260206004820152602d60248201527f596f7520617265206e6f7420617574686f72697a656420746f20617070726f7660448201526c65206e6577206275726e65727360981b60648201526084016103cf565b600554604051634a36d88560e01b815260206004820152600d60248201526c30b8383937bb32a13ab93732b960991b60448201526001600160a01b0390911690634a36d88590606401602060405180830381865afa15801561071e573d6000803e3d6000fd5b505050506040513d601f19601f820116820180604052508101906107429190611642565b61075e5760405162461bcd60e51b81526004016103cf90611664565b6001600160a01b0380821660009081526007602052604090819020805460ff19166001179055600554905163538f20d960e01b815291169063538f20d9906107ca906004016020808252600d908201526c30b8383937bb32a13ab93732b960991b604082015260600190565b600060405180830381600087803b1580156107e457600080fd5b505af11580156107f8573d6000803e3d6000fd5b50506040516001600160a01b03841681527f4dfa5a428833b3aabfa899bf810b166ad98a5c6f0efc9642393c12f362f1321a9250602001905061054d565b6000610843338484610ffd565b50600192915050565b6000610859848484611122565b6001600160a01b0384166000908152600160209081526040808320338452909152902054828110156108de5760405162461bcd60e51b815260206004820152602860248201527f45524332303a207472616e7366657220616d6f756e74206578636565647320616044820152676c6c6f77616e636560c01b60648201526084016103cf565b6108eb8533858403610ffd565b506001949350505050565b6005546040516366bd542360e11b81523260048201526001600160a01b039091169063cd7aa84690602401602060405180830381865afa15801561093e573d6000803e3d6000fd5b505050506040513d601f19601f820116820180604052508101906109629190611642565b6109bf5760405162461bcd60e51b815260206004820152602860248201527f596f7520617265206e6f7420617574686f72697a656420746f2072656d6f7665604482015267206d696e7465727360c01b60648201526084016103cf565b600554604051634a36d88560e01b815260206004820152600c60248201526b3932b6b7bb32a6b4b73a32b960a11b60448201526001600160a01b0390911690634a36d88590606401602060405180830381865afa158015610a24573d6000803e3d6000fd5b505050506040513d601f19601f82011682018060405250810190610a489190611642565b610a645760405162461bcd60e51b81526004016103cf90611664565b6001600160a01b0380821660009081526006602052604090819020805460ff19169055600554905163538f20d960e01b815291169063538f20d990610acc906004016020808252600c908201526b3932b6b7bb32a6b4b73a32b960a11b604082015260600190565b600060405180830381600087803b158015610ae657600080fd5b505af1158015610afa573d6000803e3d6000fd5b50506040516001600160a01b03841681527fe94479a9f7e1952cc78f2d6baab678adc1b772d936c6583def489e524cb666929250602001905061054d565b3360008181526001602090815260408083206001600160a01b03871684529091528120549091610843918590610b6f908690611700565b610ffd565b6005546040516366bd542360e11b81523260048201526001600160a01b039091169063cd7aa84690602401602060405180830381865afa158015610bbc573d6000803e3d6000fd5b505050506040513d601f19601f82011682018060405250810190610be09190611642565b610c425760405162461bcd60e51b815260206004820152602d60248201527f596f7520617265206e6f7420617574686f72697a656420746f20617070726f7660448201526c65206e6577206d696e7465727360981b60648201526084016103cf565b600554604051634a36d88560e01b815260206004820152600d60248201526c30b8383937bb32a6b4b73a32b960991b60448201526001600160a01b0390911690634a36d88590606401602060405180830381865afa158015610ca8573d6000803e3d6000fd5b505050506040513d601f19601f82011682018060405250810190610ccc9190611642565b610ce85760405162461bcd60e51b81526004016103cf90611664565b6001600160a01b0380821660009081526006602052604090819020805460ff19166001179055600554905163538f20d960e01b815291169063538f20d990610d54906004016020808252600d908201526c30b8383937bb32a6b4b73a32b960991b604082015260600190565b600060405180830381600087803b158015610d6e57600080fd5b505af1158015610d82573d6000803e3d6000fd5b50506040516001600160a01b03841681527f19fab8fc4f22fa82f8e0e29a8828c8401adddd9bd6fc71f05848c143b84c4d4f9250602001905061054d565b606060048054610567906116b0565b3360009081526001602090815260408083206001600160a01b038616845290915281205482811015610e515760405162461bcd60e51b815260206004820152602560248201527f45524332303a2064656372656173656420616c6c6f77616e63652062656c6f77604482015264207a65726f60d81b60648201526084016103cf565b610e5e3385858403610ffd565b5060019392505050565b6000610843338484611122565b323303610ebf5760405162461bcd60e51b815260206004820152601860248201527714d95b99195c881a5cc81b9bdd08184818dbdb9d1c9858dd60421b60448201526064016103cf565b3360009081526006602052604090205460ff16610eee5760405162461bcd60e51b81526004016103cf90611718565b610ef882826112f1565b816001600160a01b03167f30385c845b448a36257a6a1716e6ad2e1bc2cbe333cde1e69fe849ad6511adfe82604051610f3391815260200190565b60405180910390a25050565b323303610f895760405162461bcd60e51b815260206004820152601860248201527714d95b99195c881a5cc81b9bdd08184818dbdb9d1c9858dd60421b60448201526064016103cf565b3360009081526007602052604090205460ff16610fb85760405162461bcd60e51b81526004016103cf90611718565b610fc282826113d0565b816001600160a01b03167f696de425f79f4a40bc6d2122ca50507f0efbeabbff86a84871b7196ab8ea8df782604051610f3391815260200190565b6001600160a01b03831661105f5760405162461bcd60e51b8152602060048201526024808201527f45524332303a20617070726f76652066726f6d20746865207a65726f206164646044820152637265737360e01b60648201526084016103cf565b6001600160a01b0382166110c05760405162461bcd60e51b815260206004820152602260248201527f45524332303a20617070726f766520746f20746865207a65726f206164647265604482015261737360f01b60648201526084016103cf565b6001600160a01b0383811660008181526001602090815260408083209487168084529482529182902085905590518481527f8c5be1e5ebec7d5bd14f71427d1e84f3dd0314c0f7b2291e5b200ac8c7c3b92591015b60405180910390a3505050565b6001600160a01b0383166111865760405162461bcd60e51b815260206004820152602560248201527f45524332303a207472616e736665722066726f6d20746865207a65726f206164604482015264647265737360d81b60648201526084016103cf565b6001600160a01b0382166111e85760405162461bcd60e51b815260206004820152602360248201527f45524332303a207472616e7366657220746f20746865207a65726f206164647260448201526265737360e81b60648201526084016103cf565b6001600160a01b038316600090815260208190526040902054818110156112605760405162461bcd60e51b815260206004820152602660248201527f45524332303a207472616e7366657220616d6f756e7420657863656564732062604482015265616c616e636560d01b60648201526084016103cf565b6001600160a01b03808516600090815260208190526040808220858503905591851681529081208054849290611297908490611700565b92505081905550826001600160a01b0316846001600160a01b03167fddf252ad1be2c89b69c2b068fc378daa952ba7f163c4a11628f55a4df523b3ef846040516112e391815260200190565b60405180910390a350505050565b6001600160a01b0382166113475760405162461bcd60e51b815260206004820152601f60248201527f45524332303a206d696e7420746f20746865207a65726f20616464726573730060448201526064016103cf565b80600260008282546113599190611700565b90915550506001600160a01b03821660009081526020819052604081208054839290611386908490611700565b90915550506040518181526001600160a01b038316906000907fddf252ad1be2c89b69c2b068fc378daa952ba7f163c4a11628f55a4df523b3ef9060200160405180910390a35050565b6001600160a01b0382166114305760405162461bcd60e51b815260206004820152602160248201527f45524332303a206275726e2066726f6d20746865207a65726f206164647265736044820152607360f81b60648201526084016103cf565b6001600160a01b038216600090815260208190526040902054818110156114a45760405162461bcd60e51b815260206004820152602260248201527f45524332303a206275726e20616d6f756e7420657863656564732062616c616e604482015261636560f01b60648201526084016103cf565b6001600160a01b03831660009081526020819052604081208383039055600280548492906114d3908490611764565b90915550506040518281526000906001600160a01b038516907fddf252ad1be2c89b69c2b068fc378daa952ba7f163c4a11628f55a4df523b3ef90602001611115565b80356001600160a01b038116811461152d57600080fd5b919050565b60006020828403121561154457600080fd5b61154d82611516565b9392505050565b600060208083528351808285015260005b8181101561158157858101830151858201604001528201611565565b81811115611593576000604083870101525b50601f01601f1916929092016040019392505050565b600080604083850312156115bc57600080fd5b6115c583611516565b946020939093013593505050565b6000806000606084860312156115e857600080fd5b6115f184611516565b92506115ff60208501611516565b9150604084013590509250925092565b6000806040838503121561162257600080fd5b61162b83611516565b915061163960208401611516565b90509250929050565b60006020828403121561165457600080fd5b8151801515811461154d57600080fd5b6020808252602c908201527f546869732066756e6374696f6e206973206e6f7420617574686f72697a65642060408201526b1d1bc818994818d85b1b195960a21b606082015260800190565b600181811c908216806116c457607f821691505b6020821081036116e457634e487b7160e01b600052602260045260246000fd5b50919050565b634e487b7160e01b600052601160045260246000fd5b60008219821115611713576117136116ea565b500190565b6020808252602c908201527f53656e646572206973206e6f7420617070726f76656420746f2063616c6c207460408201526b3434b990333ab731ba34b7b760a11b606082015260800190565b600082821015611776576117766116ea565b50039056fea26469706673582212202b167e616245ecafb6b404c71463d08ed87b7966df47490b6d0d6acddd91bbbe64736f6c634300080d0033",
  "immutableReferences": {},
  "source": "// SPDX-License-Identifier: MIT\npragma solidity ^0.8.0;\n\nimport \"@openzeppelin/contracts/token/ERC20/ERC20.sol\";\nimport \"./MultisigManager.sol\";\n\ncontract SoulToken is ERC20 {\n    MultisigManager private multisigManager;\n    mapping(address => bool) private approvedMinters;\n    mapping(address => bool) private approvedBurners;\n\n    event MinterApproved(address target);\n    event MinterRemoved(address target);\n    event BurnerApproved(address target);\n    event BurnerRemoved(address target);\n    event Minted(address indexed target, uint256 amount);\n    event Burned(address indexed target, uint256 amount);\n\n    constructor(address _multisigManager) ERC20(\"Soul Token\", \"SOUL\") {\n        multisigManager = MultisigManager(_multisigManager);\n    }\n    \n    function decimals() public pure override returns (uint8) {  \n        return 0;\n    }\n\n    function approvedMint(address target, uint256 amount) external {\n        require(msg.sender != tx.origin, \"Sender is not a contract\");\n        require(approvedMinters[msg.sender], \"Sender is not approved to call this function\");\n        _mint(target, amount);\n        emit Minted(target, amount);\n    }\n\n    function approvedBurn(address target, uint256 amount) external {\n        require(msg.sender != tx.origin, \"Sender is not a contract\");\n        require(approvedBurners[msg.sender], \"Sender is not approved to call this function\");\n        _burn(target, amount);\n        emit Burned(target, amount);\n    }\n\n    function approveMinter(address target) external {\n        require(multisigManager.senderIsMasterOrMember(tx.origin), \"You are not authorized to approve new minters\");\n        require(multisigManager.checkAllPermission(\"approveMinter\"), \"This function is not authorized to be called\");\n        approvedMinters[target] = true;\n        multisigManager.resetFunctionPermission(\"approveMinter\");\n        emit MinterApproved(target);\n    }\n\n    function removeMinter(address target) external {\n        require(multisigManager.senderIsMasterOrMember(tx.origin), \"You are not authorized to remove minters\");\n        require(multisigManager.checkAllPermission(\"removeMinter\"), \"This function is not authorized to be called\");\n        approvedMinters[target] = false;\n        multisigManager.resetFunctionPermission(\"removeMinter\");\n        emit MinterRemoved(target);\n    }\n\n    function approveBurner(address target) external {\n        require(multisigManager.senderIsMasterOrMember(tx.origin), \"You are not authorized to approve new burners\");\n        require(multisigManager.checkAllPermission(\"approveBurner\"), \"This function is not authorized to be called\");\n        approvedBurners[target] = true;\n        multisigManager.resetFunctionPermission(\"approveBurner\");\n        emit BurnerApproved(target);\n    }\n\n    function removeBurner(address target) external {\n        require(multisigManager.senderIsMasterOrMember(tx.origin), \"You are not authorized to remove burners\");\n        require(multisigManager.checkAllPermission(\"removeBurner\"), \"This function is not authorized to be called\");\n        approvedBurners[target] = false;\n        multisigManager.resetFunctionPermission(\"removeBurner\");\n        emit BurnerRemoved(target);\n    }\n\n    function checkApprovedMinter(address target) external view returns(bool) {\n        return approvedMinters[target];\n    }\n\n    function checkApprovedBurner(address target) external view returns(bool) {\n        return approvedBurners[target];\n    }\n}",
  "sourcePath": "/home/zion/Projekte/nft-arena/contracts/SoulToken.sol",
  "compiler": {
    "name": "solc",
    "version": "0.8.13+commit.abaa5c0e.Emscripten.clang"
  },
  "schemaVersion": "3.4.3",
  "updatedAt": "2022-04-07T14:06:32.668Z",
  "devdoc": {
    "kind": "dev",
    "methods": {
      "allowance(address,address)": {
        "details": "See {IERC20-allowance}."
      },
      "approve(address,uint256)": {
        "details": "See {IERC20-approve}. Requirements: - `spender` cannot be the zero address."
      },
      "balanceOf(address)": {
        "details": "See {IERC20-balanceOf}."
      },
      "decimals()": {
        "details": "Returns the number of decimals used to get its user representation. For example, if `decimals` equals `2`, a balance of `505` tokens should be displayed to a user as `5.05` (`505 / 10 ** 2`). Tokens usually opt for a value of 18, imitating the relationship between Ether and Wei. This is the value {ERC20} uses, unless this function is overridden; NOTE: This information is only used for _display_ purposes: it in no way affects any of the arithmetic of the contract, including {IERC20-balanceOf} and {IERC20-transfer}."
      },
      "decreaseAllowance(address,uint256)": {
        "details": "Atomically decreases the allowance granted to `spender` by the caller. This is an alternative to {approve} that can be used as a mitigation for problems described in {IERC20-approve}. Emits an {Approval} event indicating the updated allowance. Requirements: - `spender` cannot be the zero address. - `spender` must have allowance for the caller of at least `subtractedValue`."
      },
      "increaseAllowance(address,uint256)": {
        "details": "Atomically increases the allowance granted to `spender` by the caller. This is an alternative to {approve} that can be used as a mitigation for problems described in {IERC20-approve}. Emits an {Approval} event indicating the updated allowance. Requirements: - `spender` cannot be the zero address."
      },
      "name()": {
        "details": "Returns the name of the token."
      },
      "symbol()": {
        "details": "Returns the symbol of the token, usually a shorter version of the name."
      },
      "totalSupply()": {
        "details": "See {IERC20-totalSupply}."
      },
      "transfer(address,uint256)": {
        "details": "See {IERC20-transfer}. Requirements: - `recipient` cannot be the zero address. - the caller must have a balance of at least `amount`."
      },
      "transferFrom(address,address,uint256)": {
        "details": "See {IERC20-transferFrom}. Emits an {Approval} event indicating the updated allowance. This is not required by the EIP. See the note at the beginning of {ERC20}. Requirements: - `sender` and `recipient` cannot be the zero address. - `sender` must have a balance of at least `amount`. - the caller must have allowance for ``sender``'s tokens of at least `amount`."
      }
    },
    "version": 1
  },
  "userdoc": {
    "kind": "user",
    "methods": {},
    "version": 1
  }
}