{
  "contractName": "StakingFund",
  "abi": [
    {
      "inputs": [
        {
          "internalType": "address",
          "name": "_multisigManager",
          "type": "address"
        },
        {
          "internalType": "address",
          "name": "_nftaToken",
          "type": "address"
        }
      ],
      "stateMutability": "nonpayable",
      "type": "constructor"
    },
    {
      "anonymous": false,
      "inputs": [
        {
          "indexed": false,
          "internalType": "uint256",
          "name": "rate",
          "type": "uint256"
        }
      ],
      "name": "ChangedScaleRate",
      "type": "event"
    },
    {
      "anonymous": false,
      "inputs": [
        {
          "indexed": true,
          "internalType": "address",
          "name": "stakeholder",
          "type": "address"
        },
        {
          "indexed": false,
          "internalType": "uint256",
          "name": "secured",
          "type": "uint256"
        }
      ],
      "name": "RewardsSecured",
      "type": "event"
    },
    {
      "anonymous": false,
      "inputs": [
        {
          "indexed": true,
          "internalType": "address",
          "name": "stakeholder",
          "type": "address"
        },
        {
          "indexed": false,
          "internalType": "uint256",
          "name": "stake",
          "type": "uint256"
        }
      ],
      "name": "StakeDeposited",
      "type": "event"
    },
    {
      "anonymous": false,
      "inputs": [
        {
          "indexed": true,
          "internalType": "address",
          "name": "stakeholder",
          "type": "address"
        },
        {
          "indexed": false,
          "internalType": "uint256",
          "name": "stake",
          "type": "uint256"
        }
      ],
      "name": "StakeWithdrawn",
      "type": "event"
    },
    {
      "anonymous": false,
      "inputs": [],
      "name": "StakingInitialized",
      "type": "event"
    },
    {
      "anonymous": false,
      "inputs": [
        {
          "indexed": false,
          "internalType": "uint256",
          "name": "percentage",
          "type": "uint256"
        }
      ],
      "name": "UnlockPercentageReduced",
      "type": "event"
    },
    {
      "anonymous": false,
      "inputs": [
        {
          "indexed": false,
          "internalType": "uint256",
          "name": "amount",
          "type": "uint256"
        }
      ],
      "name": "UnlockedTokens",
      "type": "event"
    },
    {
      "inputs": [],
      "name": "initStaking",
      "outputs": [],
      "stateMutability": "nonpayable",
      "type": "function"
    },
    {
      "inputs": [
        {
          "internalType": "uint256",
          "name": "amount",
          "type": "uint256"
        }
      ],
      "name": "depositStake",
      "outputs": [],
      "stateMutability": "nonpayable",
      "type": "function"
    },
    {
      "inputs": [],
      "name": "withdrawStake",
      "outputs": [],
      "stateMutability": "nonpayable",
      "type": "function"
    },
    {
      "inputs": [],
      "name": "secureRewards",
      "outputs": [],
      "stateMutability": "nonpayable",
      "type": "function"
    },
    {
      "inputs": [
        {
          "internalType": "uint256",
          "name": "_scaleRate",
          "type": "uint256"
        }
      ],
      "name": "setScaleRate",
      "outputs": [],
      "stateMutability": "nonpayable",
      "type": "function"
    },
    {
      "inputs": [],
      "name": "isWithdrawable",
      "outputs": [
        {
          "internalType": "bool",
          "name": "result",
          "type": "bool"
        }
      ],
      "stateMutability": "view",
      "type": "function",
      "constant": true
    },
    {
      "inputs": [],
      "name": "checkTimestamp",
      "outputs": [
        {
          "internalType": "uint256",
          "name": "result",
          "type": "uint256"
        }
      ],
      "stateMutability": "view",
      "type": "function",
      "constant": true
    },
    {
      "inputs": [],
      "name": "checkStaked",
      "outputs": [
        {
          "internalType": "uint256",
          "name": "result",
          "type": "uint256"
        }
      ],
      "stateMutability": "view",
      "type": "function",
      "constant": true
    },
    {
      "inputs": [],
      "name": "checkIsStakeholder",
      "outputs": [
        {
          "internalType": "bool",
          "name": "result",
          "type": "bool"
        }
      ],
      "stateMutability": "view",
      "type": "function",
      "constant": true
    },
    {
      "inputs": [],
      "name": "checkStakingReward",
      "outputs": [
        {
          "internalType": "uint256",
          "name": "result",
          "type": "uint256"
        }
      ],
      "stateMutability": "view",
      "type": "function",
      "constant": true
    },
    {
      "inputs": [],
      "name": "checkSecuredRewards",
      "outputs": [
        {
          "internalType": "uint256",
          "name": "result",
          "type": "uint256"
        }
      ],
      "stateMutability": "view",
      "type": "function",
      "constant": true
    },
    {
      "inputs": [],
      "name": "checkTotalStaked",
      "outputs": [
        {
          "internalType": "uint256",
          "name": "result",
          "type": "uint256"
        }
      ],
      "stateMutability": "view",
      "type": "function",
      "constant": true
    },
    {
      "inputs": [],
      "name": "checkClaimedRewards",
      "outputs": [
        {
          "internalType": "uint256",
          "name": "result",
          "type": "uint256"
        }
      ],
      "stateMutability": "view",
      "type": "function",
      "constant": true
    },
    {
      "inputs": [],
      "name": "checkUnlockPercentage",
      "outputs": [
        {
          "internalType": "uint256",
          "name": "result",
          "type": "uint256"
        }
      ],
      "stateMutability": "view",
      "type": "function",
      "constant": true
    },
    {
      "inputs": [],
      "name": "checkUnlockedTokens",
      "outputs": [
        {
          "internalType": "uint256",
          "name": "result",
          "type": "uint256"
        }
      ],
      "stateMutability": "view",
      "type": "function",
      "constant": true
    },
    {
      "inputs": [],
      "name": "checkTotalStakeSupply",
      "outputs": [
        {
          "internalType": "uint256",
          "name": "result",
          "type": "uint256"
        }
      ],
      "stateMutability": "view",
      "type": "function",
      "constant": true
    },
    {
      "inputs": [],
      "name": "checkAPR",
      "outputs": [
        {
          "internalType": "uint256",
          "name": "result",
          "type": "uint256"
        }
      ],
      "stateMutability": "view",
      "type": "function",
      "constant": true
    },
    {
      "inputs": [],
      "name": "checkInitialized",
      "outputs": [
        {
          "internalType": "bool",
          "name": "result",
          "type": "bool"
        }
      ],
      "stateMutability": "view",
      "type": "function",
      "constant": true
    }
  ],
  "bytecode": "0x608060405234801561001057600080fd5b506040516115b63803806115b683398101604081905261002f91610093565b600080546001600160a01b039384166001600160a01b03199182161782556001805493909416921691909117909155601e600555600755610e10600b55612ee06002556100c6565b80516001600160a01b038116811461008e57600080fd5b919050565b600080604083850312156100a657600080fd5b6100af83610077565b91506100bd60208401610077565b90509250929050565b6114e1806100d56000396000f3fe608060405234801561001057600080fd5b50600436106101165760003560e01c8063971a6cb8116100a2578063bed9d86111610071578063bed9d861146101d5578063c06c5ab2146101dd578063cb82cc8f146101e7578063e9750eb1146101fa578063f04876f11461020257600080fd5b8063971a6cb8146101aa578063b15d4076146101b2578063b2c70db2146101ba578063b4efa66d146101cd57600080fd5b806351157329116100e9578063511573291461017357806360de7aa8146101885780636d55b9811461019057806375b623411461019a5780638398700a146101a257600080fd5b80630bf333ec1461011b5780630d4da603146101325780634335b95b146101475780634d840bcc1461016b575b600080fd5b6004545b6040519081526020015b60405180910390f35b326000908152600c602052604090205461011f565b3260009081526010602052604090205460ff165b6040519015158152602001610129565b61015b610217565b326000908152600d602052604090205461011f565b600a5461011f565b61019861026b565b005b60035461011f565b61011f61050f565b61011f61054f565b60055461011f565b6101986101c836600461136b565b61063f565b610198610826565b610198610be3565b600654151561015b565b6101986101f536600461136b565b610f4a565b60095461011f565b336000908152600f602052604090205461011f565b336000908152600d60205260408120548190610233904261139a565b3360009081526010602052604090205490915060ff1680156102565750600b5481115b1561026357600191505090565b600091505090565b3360009081526010602052604090205460ff166102c85760405162461bcd60e51b81526020600482015260166024820152752cb7ba9030b9329037379039ba30b5b2b437b63232b960511b60448201526064015b60405180910390fd5b336000908152600d60205260408120546102e2904261139a565b9050600b5481116103055760405162461bcd60e51b81526004016102bf906113b1565b6000601e6018603c806006544261031c919061139a565b610326919061140a565b610330919061140a565b61033a919061140a565b610344919061140a565b90506001600854600c83610358919061140a565b610362919061139a565b106103885761036f611221565b600160086000828254610382919061141e565b90915550505b600160075482610398919061139a565b106103be576103a561127c565b6001600760008282546103b8919061141e565b90915550505b600254336000908152600c602052604081205490916103dc9161140a565b600b546103e98186611436565b6103f3908661139a565b6103fd919061140a565b610407919061144a565b600954336000908152600f602052604090205491925090610428908361139a565b600a54610435919061141e565b1161048157336000908152600f6020526040902054610454908261139a565b600a6000828254610465919061141e565b9091555050336000908152600f602052604090208190556104c6565b336000908152600f6020526040902054600a546009546104a1919061139a565b6104ab919061141e565b600954600a55336000908152600f6020526040902081905590505b336000818152600f60209081526040918290205491519182527f9e37791a4a60c5e07fb97db31cc3b5f07eed42e29c873c8ee3a11cadb5251092910160405180910390a2505050565b6000612710600b546301e13380610526919061140a565b60025461053690620f424061140a565b610540919061144a565b61054a919061140a565b905090565b33600090815260106020526040812054819060ff161561063a57336000908152600d6020526040812054610583904261139a565b9050600b5481111561063857600254336000908152600c60205260409020546105ac919061140a565b600b546105b98184611436565b6105c3908461139a565b6105cd919061140a565b6105d7919061144a565b600954336000908152600f6020526040902054919350906105f8908461139a565b600a54610605919061141e565b111561063857336000908152600f6020526040902054600a5460095461062b919061139a565b610635919061141e565b91505b505b919050565b6000546040516366bd542360e11b81523360048201526001600160a01b039091169063cd7aa8469060240160206040518083038186803b15801561068257600080fd5b505afa158015610696573d6000803e3d6000fd5b505050506040513d601f19601f820116820180604052508101906106ba9190611469565b6106c357600080fd5b600054604051634a36d88560e01b81526020600482015260096024820152687363616c657261746560b81b60448201526001600160a01b0390911690634a36d8859060640160206040518083038186803b15801561072057600080fd5b505afa158015610734573d6000803e3d6000fd5b505050506040513d601f19601f820116820180604052508101906107589190611469565b61076157600080fd5b6000811161076e57600080fd5b600281905560005460405163538f20d960e01b81526020600482015260096024820152687363616c657261746560b81b60448201526001600160a01b039091169063538f20d990606401600060405180830381600087803b1580156107d257600080fd5b505af11580156107e6573d6000803e3d6000fd5b505050507ff700a0306a9e13cc3ebd7e3603e664820bf71400eb87721eb48c00b11612f0cf8160405161081b91815260200190565b60405180910390a150565b6000546040516366bd542360e11b81523360048201526001600160a01b039091169063cd7aa8469060240160206040518083038186803b15801561086957600080fd5b505afa15801561087d573d6000803e3d6000fd5b505050506040513d601f19601f820116820180604052508101906108a19190611469565b6109025760405162461bcd60e51b815260206004820152602c60248201527f596f752068617665206e6f207065726d697373696f6e20746f2063616c6c207460448201526b3434b990333ab731ba34b7b760a11b60648201526084016102bf565b600054604051634a36d88560e01b81526001600160a01b0390911690634a36d88590610949906004016020808252600490820152631a5b9a5d60e21b604082015260600190565b60206040518083038186803b15801561096157600080fd5b505afa158015610975573d6000803e3d6000fd5b505050506040513d601f19601f820116820180604052508101906109999190611469565b6109f15760405162461bcd60e51b8152602060048201526024808201527f546869732066756e6374696f6e2063616c6c206973206e6f7420617574686f726044820152631a5e995960e21b60648201526084016102bf565b60065415610a555760405162461bcd60e51b815260206004820152602b60248201527f546865207374616b696e6720636f6e747261637420697320616c72656164792060448201526a1a5b9a5d1a585b1a5e995960aa1b60648201526084016102bf565b6001546040516370a0823160e01b81523060048201526001600160a01b03909116906370a082319060240160206040518083038186803b158015610a9857600080fd5b505afa158015610aac573d6000803e3d6000fd5b505050506040513d601f19601f82011682018060405250810190610ad09190611492565b6004819055610b335760405162461bcd60e51b815260206004820152602960248201527f546865207374616b696e6720636f6e747261637420686173206e6f20746f6b656044820152686e2062616c616e636560b81b60648201526084016102bf565b42600655610b3f61127c565b60005460405163538f20d960e01b81526001600160a01b039091169063538f20d990610b86906004016020808252600490820152631a5b9a5d60e21b604082015260600190565b600060405180830381600087803b158015610ba057600080fd5b505af1158015610bb4573d6000803e3d6000fd5b50506040517f68e48552378bc9d472a2019aa484b9d2fe0e840d7e907f4c1811e9023e2b7113925060009150a1565b3360009081526010602052604090205460ff16610c3b5760405162461bcd60e51b81526020600482015260166024820152752cb7ba9030b9329037379039ba30b5b2b437b63232b960511b60448201526064016102bf565b336000908152600d6020526040812054610c55904261139a565b9050600b548111610c785760405162461bcd60e51b81526004016102bf906113b1565b6000601e6018603c8060065442610c8f919061139a565b610c99919061140a565b610ca3919061140a565b610cad919061140a565b610cb7919061140a565b90506001600854600c83610ccb919061140a565b610cd5919061139a565b10610cfb57610ce2611221565b600160086000828254610cf5919061141e565b90915550505b600160075482610d0b919061139a565b10610d3157610d1861127c565b600160076000828254610d2b919061141e565b90915550505b600254336000908152600c60205260408120549091610d4f9161140a565b600b54610d5c8186611436565b610d66908661139a565b610d70919061140a565b610d7a919061144a565b600954336000908152600f602052604090205491925090610d9b908361139a565b600a54610da8919061141e565b1115610ddb57336000908152600f6020526040902054600a54600954610dce919061139a565b610dd8919061141e565b90505b336000908152600c6020526040812054610df690839061141e565b336000908152600f6020526040902054909150610e13908361139a565b600a6000828254610e24919061141e565b9091555050336000908152600c60205260408120546003805491929091610e4c90849061139a565b9091555050336000818152600c60209081526040808320839055600f825280832083905560108252808320805460ff19169055600e90915290819020429055600154905163a9059cbb60e01b81526004810192909252602482018390526001600160a01b03169063a9059cbb90604401602060405180830381600087803b158015610ed657600080fd5b505af1158015610eea573d6000803e3d6000fd5b505050506040513d601f19601f82011682018060405250810190610f0e9190611469565b5060405181815233907f8108595eb6bad3acefa9da467d90cc2217686d5c5ac85460f8b7849c840645fc9060200160405180910390a250505050565b3360009081526010602052604090205460ff1615610faa5760405162461bcd60e51b815260206004820152601d60248201527f596f752061726520616c72656164792061207374616b65686f6c64657200000060448201526064016102bf565b60006006541161100d5760405162461bcd60e51b815260206004820152602860248201527f5374616b696e672046756e6420636f6e7472616374206973206e6f7420696e696044820152671d1a585b1a5e995960c21b60648201526084016102bf565b336000908152600e60205260409020546203f4809061102c904261139a565b116110b25760405162461bcd60e51b815260206004820152604a60248201527f596f75206861766520746f20776169742033206461797320616674657220796f60448201527f7572207769746864726177616c206265666f726520796f752063616e2064657060648201526937b9b4ba1030b3b0b4b760b11b608482015260a4016102bf565b670de0b6b3a764000081116111145760405162461bcd60e51b815260206004820152602260248201527f596f75206861766520746f207374616b65206174206c65617374203120546f6b60448201526132b760f11b60648201526084016102bf565b8060036000828254611126919061141e565b9091555050336000818152600c60209081526040808320859055600d8252808320429055601090915290819020805460ff191660019081179091555490516323b872dd60e01b81526004810192909252306024830152604482018390526001600160a01b0316906323b872dd90606401602060405180830381600087803b1580156111b057600080fd5b505af11580156111c4573d6000803e3d6000fd5b505050506040513d601f19601f820116820180604052508101906111e89190611469565b5060405181815233907f0a7bb2e28cc4698aac06db79cf9163bfcc20719286cf59fa7d492ceda1b8edc29060200160405180910390a250565b600a600554111561127a57600580600082825461123e919061139a565b90915550506005546040519081527f29b496bc2a56ea20e6262cec586176c36a96dbf9ec4d02ad705f620c0b0e67e89060200160405180910390a15b565b600060646103e8600454611290919061140a565b600c6005546103e86112a2919061144a565b6112ac919061140a565b6112b6919061144a565b6112c0919061140a565b9050600454816009546112d3919061141e565b1115611324577f5575dedd34ea34902b76c41a4b381315174f8c65d7d39eb66c527dd9d743441b60095460045461130a919061139a565b60405190815260200160405180910390a160045460095550565b8060096000828254611336919061141e565b90915550506040518181527f5575dedd34ea34902b76c41a4b381315174f8c65d7d39eb66c527dd9d743441b9060200161081b565b60006020828403121561137d57600080fd5b5035919050565b634e487b7160e01b600052601160045260246000fd5b6000828210156113ac576113ac611384565b500390565b60208082526023908201527f596f75206861766520746f207374616b65206174206c65617374206f6e65206860408201526237bab960e91b606082015260800190565b634e487b7160e01b600052601260045260246000fd5b600082611419576114196113f4565b500490565b6000821982111561143157611431611384565b500190565b600082611445576114456113f4565b500690565b600081600019048311821515161561146457611464611384565b500290565b60006020828403121561147b57600080fd5b8151801515811461148b57600080fd5b9392505050565b6000602082840312156114a457600080fd5b505191905056fea26469706673582212203f26863ba056172df1e5b27eede3dc34da28f49b257c3bb20c656cdda39d0f3064736f6c63430008090033",
  "immutableReferences": {},
  "source": "// SPDX-License-Identifier: MIT\npragma solidity ^0.8.0;\n\nimport \"./MultisigManager.sol\";\nimport \"./NFTAToken.sol\";\n\ncontract StakingFund {\n    MultisigManager private multisigManager;\n    NFTAToken private nftaToken;\n    uint256 private scaleRate;\n    uint256 private totalStaked;\n    uint256 private totalStakeSupply;\n    uint256 private unlockPercentage;\n    uint256 private unlockTimestamp;\n    uint256 private unlockMonth;\n    uint256 private unlockYear;\n    uint256 private unlockedTokens;\n    uint256 private claimedRewards;\n    uint256 private stakingRewardPeriod;\n    mapping(address => uint256) private stakes;\n    mapping(address => uint256) private stakingTimestamps;\n    mapping(address => uint256) private blockedTimestamps;\n    mapping(address => uint256) private securedRewards;\n    mapping(address => bool) private isStakeholder;\n\n    event StakingInitialized();\n    event StakeDeposited(address indexed stakeholder, uint256 stake);\n    event StakeWithdrawn(address indexed stakeholder, uint256 stake);\n    event UnlockPercentageReduced(uint256 percentage);\n    event UnlockedTokens(uint256 amount);\n    event RewardsSecured(address indexed stakeholder, uint256 secured);\n    event ChangedScaleRate(uint256 rate);\n    \n    constructor(address _multisigManager, address _nftaToken) {\n        multisigManager = MultisigManager(_multisigManager);\n        nftaToken = NFTAToken(_nftaToken);\n        unlockPercentage = 30;\n        unlockMonth = 0;\n        stakingRewardPeriod = 1 hours;\n        scaleRate = 12000;\n    }\n\n    function initStaking() external {\n        require(multisigManager.senderIsMasterOrMember(msg.sender), \"You have no permission to call this function\");\n        require(multisigManager.checkAllPermission(\"init\"), \"This function call is not authorized\");\n        require(unlockTimestamp == 0, \"The staking contract is already initialized\");\n        totalStakeSupply = nftaToken.balanceOf(address(this));\n        require(totalStakeSupply > 0, \"The staking contract has no token balance\");\n        unlockTimestamp = block.timestamp;\n        unlockTokens();\n        multisigManager.resetFunctionPermission(\"init\");\n        emit StakingInitialized();\n    }\n\n    function reduceUnlockPercentage() private {\n        if (unlockPercentage > 10) {\n            unlockPercentage -= 5;\n            emit UnlockPercentageReduced(unlockPercentage);\n        }\n    }\n\n    function unlockTokens() private {\n        uint256 newUnlockedTokens = (((unlockPercentage * 1000) / 12) * (totalStakeSupply / 1000)) / 100;\n        if (unlockedTokens + newUnlockedTokens > totalStakeSupply) {\n            emit UnlockedTokens(totalStakeSupply - unlockedTokens);\n            unlockedTokens = totalStakeSupply;\n        } else {\n            unlockedTokens += newUnlockedTokens;\n            emit UnlockedTokens(newUnlockedTokens);\n        }\n    }\n\n    function depositStake(uint256 amount) external {\n        //Check requirements\n        require(!isStakeholder[msg.sender], \"You are already a stakeholder\");\n        require(unlockTimestamp > 0, \"Staking Fund contract is not initialized\");\n        require(block.timestamp - blockedTimestamps[msg.sender] > 3 days, \"You have to wait 3 days after your withdrawal before you can deposit again\");\n\n        //Staking minimum equals 1 token\n        require(amount > 1*10**18, \"You have to stake at least 1 Token\");\n\n        //Update state & deposit tokens\n        totalStaked += amount;\n        stakes[msg.sender] = amount;\n        stakingTimestamps[msg.sender] = block.timestamp;\n        isStakeholder[msg.sender] = true;\n        nftaToken.transferFrom(msg.sender, address(this), amount);\n        emit StakeDeposited(msg.sender, amount);\n    }\n\n    function withdrawStake() external {\n        //Check requirements\n        require(isStakeholder[msg.sender], \"You are no stakeholder\");\n        uint256 timediff = block.timestamp - stakingTimestamps[msg.sender];\n        require(timediff > stakingRewardPeriod, \"You have to stake at least one hour\");\n\n        //Unlock new tokens if needed\n        uint256 currentStakingMonth = (block.timestamp - unlockTimestamp) / 60 / 60 / 24 / 30;\n        if ((currentStakingMonth / 12) - unlockYear >= 1) {\n            reduceUnlockPercentage();\n            unlockYear += 1;\n        }\n        if (currentStakingMonth - unlockMonth >= 1) {\n            unlockTokens();\n            unlockMonth += 1;\n        }\n\n        //Calculate rewards\n        uint256 rewards = ((timediff - (timediff % stakingRewardPeriod)) / stakingRewardPeriod) * (stakes[msg.sender] / scaleRate);\n        if (claimedRewards + (rewards - securedRewards[msg.sender]) > unlockedTokens) {\n            rewards = (unlockedTokens - claimedRewards) + securedRewards[msg.sender];\n        }\n\n        //Update state & withdraw tokens\n        uint256 amount = stakes[msg.sender] + rewards;\n        claimedRewards += (rewards - securedRewards[msg.sender]);\n        totalStaked -= stakes[msg.sender];\n        stakes[msg.sender] = 0;\n        securedRewards[msg.sender] = 0;\n        isStakeholder[msg.sender] = false;\n        blockedTimestamps[msg.sender] = block.timestamp;\n        nftaToken.transfer(msg.sender, amount);\n        emit StakeWithdrawn(msg.sender, amount);\n    }\n\n    function secureRewards() external {\n        //Check requirements\n        require(isStakeholder[msg.sender], \"You are no stakeholder\");\n        uint256 timediff = block.timestamp - stakingTimestamps[msg.sender];\n        require(timediff > stakingRewardPeriod, \"You have to stake at least one hour\");\n\n        //Unlock new tokens if needed\n        uint256 currentStakingMonth = (block.timestamp - unlockTimestamp) / 60 / 60 / 24 / 30;\n        if ((currentStakingMonth / 12) - unlockYear >= 1) {\n            reduceUnlockPercentage();\n            unlockYear += 1;\n        }\n        if (currentStakingMonth - unlockMonth >= 1) {\n            unlockTokens();\n            unlockMonth += 1;\n        }\n\n        //Secure rewards\n        uint256 rewards = ((timediff - (timediff % stakingRewardPeriod)) / stakingRewardPeriod) * (stakes[msg.sender] / scaleRate);\n        if (claimedRewards + (rewards - securedRewards[msg.sender]) <= unlockedTokens) {\n            claimedRewards += rewards - securedRewards[msg.sender];\n            securedRewards[msg.sender] = rewards;\n        } else {\n            rewards = (unlockedTokens - claimedRewards) + securedRewards[msg.sender];\n            claimedRewards = unlockedTokens;\n            securedRewards[msg.sender] = rewards;\n        }\n\n        emit RewardsSecured(msg.sender, securedRewards[msg.sender]);\n    }\n\n    function setScaleRate(uint256 _scaleRate) external {\n        require(multisigManager.senderIsMasterOrMember(msg.sender));\n        require(multisigManager.checkAllPermission(\"scalerate\"));\n        require(_scaleRate > 0);\n        scaleRate = _scaleRate;\n        multisigManager.resetFunctionPermission(\"scalerate\");\n        emit ChangedScaleRate(_scaleRate);\n    }\n\n    //External view functions\n    function isWithdrawable() external view returns(bool result) {\n        uint256 timediff = block.timestamp - stakingTimestamps[msg.sender];\n        if (isStakeholder[msg.sender] && timediff > stakingRewardPeriod) {\n            return true;\n        }\n        return false;\n    }\n\n    function checkTimestamp() external view returns(uint256 result) {\n        return stakingTimestamps[tx.origin];\n    }\n\n    function checkStaked() external view returns(uint256 result) {\n        return stakes[tx.origin];\n    }\n\n    function checkIsStakeholder() external view returns(bool result) {\n        return isStakeholder[tx.origin];\n    }\n\n    function checkStakingReward() external view returns(uint256 result) {\n        uint256 rewards = 0;\n        if (isStakeholder[msg.sender]) {\n            uint256 timediff = block.timestamp - stakingTimestamps[msg.sender];\n            if (timediff > stakingRewardPeriod) {\n                rewards = ((timediff - (timediff % stakingRewardPeriod)) / stakingRewardPeriod) * (stakes[msg.sender] / scaleRate);\n                if (claimedRewards + (rewards - securedRewards[msg.sender]) > unlockedTokens) {\n                    rewards = (unlockedTokens - claimedRewards) + securedRewards[msg.sender];\n                }\n            }\n        }\n        return rewards;\n    }\n\n    function checkSecuredRewards() external view returns(uint256 result) {\n        return securedRewards[msg.sender];\n    }\n\n    function checkTotalStaked() external view returns(uint256 result) {\n        return totalStaked;\n    }\n\n    function checkClaimedRewards() external view returns(uint256 result) {\n        return claimedRewards;\n    }\n\n    function checkUnlockPercentage() external view returns(uint256 result) {\n        return unlockPercentage;\n    }\n\n    function checkUnlockedTokens() external view returns(uint256 result) {\n        return unlockedTokens;\n    }\n\n    function checkTotalStakeSupply() external view returns(uint256 result) {\n        return totalStakeSupply;\n    }\n\n    function checkAPR() external view returns(uint256 result) {\n        return (((100 * 10000) / scaleRate) * (365 days / stakingRewardPeriod)) / 10000;\n    }\n\n    function checkInitialized() external view returns(bool result) {\n        return unlockTimestamp > 0;\n    }\n}",
  "sourcePath": "/home/zion/Projekte/nft-arena/contracts/StakingFund.sol",
  "compiler": {
    "name": "solc",
    "version": "0.8.9+commit.e5eed63a.Emscripten.clang"
  },
  "schemaVersion": "3.4.3",
  "updatedAt": "2022-04-07T15:46:41.850Z",
  "networkType": "ethereum",
  "devdoc": {
    "kind": "dev",
    "methods": {},
    "version": 1
  },
  "userdoc": {
    "kind": "user",
    "methods": {},
    "version": 1
  }
}