{
  "contractName": "TeamFund",
  "abi": [
    {
      "inputs": [
        {
          "internalType": "address",
          "name": "_multisigManager",
          "type": "address"
        },
        {
          "internalType": "address",
          "name": "_nftaToken",
          "type": "address"
        }
      ],
      "stateMutability": "nonpayable",
      "type": "constructor"
    },
    {
      "anonymous": false,
      "inputs": [
        {
          "indexed": true,
          "internalType": "address",
          "name": "sender",
          "type": "address"
        },
        {
          "indexed": false,
          "internalType": "address",
          "name": "target",
          "type": "address"
        }
      ],
      "name": "ChangedLPAddress",
      "type": "event"
    },
    {
      "anonymous": false,
      "inputs": [
        {
          "indexed": false,
          "internalType": "uint256",
          "name": "amount",
          "type": "uint256"
        }
      ],
      "name": "Withdrawn",
      "type": "event"
    },
    {
      "stateMutability": "payable",
      "type": "fallback",
      "payable": true
    },
    {
      "stateMutability": "payable",
      "type": "receive",
      "payable": true
    },
    {
      "inputs": [
        {
          "internalType": "uint256",
          "name": "amount",
          "type": "uint256"
        }
      ],
      "name": "withdraw",
      "outputs": [],
      "stateMutability": "nonpayable",
      "type": "function"
    },
    {
      "inputs": [
        {
          "internalType": "uint256",
          "name": "etherPrice",
          "type": "uint256"
        }
      ],
      "name": "initLiquidityProvider",
      "outputs": [],
      "stateMutability": "payable",
      "type": "function",
      "payable": true
    },
    {
      "inputs": [
        {
          "internalType": "address",
          "name": "_LPAddress",
          "type": "address"
        }
      ],
      "name": "setLiquidityProviderAddress",
      "outputs": [],
      "stateMutability": "nonpayable",
      "type": "function"
    },
    {
      "inputs": [],
      "name": "getUnlockingTimestamp",
      "outputs": [
        {
          "internalType": "uint256",
          "name": "result",
          "type": "uint256"
        }
      ],
      "stateMutability": "view",
      "type": "function",
      "constant": true
    },
    {
      "inputs": [],
      "name": "getWithdrawnTokens",
      "outputs": [
        {
          "internalType": "uint256",
          "name": "result",
          "type": "uint256"
        }
      ],
      "stateMutability": "view",
      "type": "function",
      "constant": true
    },
    {
      "inputs": [],
      "name": "getUnlockPerMonth",
      "outputs": [
        {
          "internalType": "uint256",
          "name": "result",
          "type": "uint256"
        }
      ],
      "stateMutability": "view",
      "type": "function",
      "constant": true
    },
    {
      "inputs": [],
      "name": "getLPAddress",
      "outputs": [
        {
          "internalType": "address",
          "name": "result",
          "type": "address"
        }
      ],
      "stateMutability": "view",
      "type": "function",
      "constant": true
    }
  ],
  "bytecode": "0x608060405234801561001057600080fd5b50604051610e0d380380610e0d83398101604081905261002f9161007c565b600080546001600160a01b039384166001600160a01b031991821617909155600180549290931691161790556100af565b80516001600160a01b038116811461007757600080fd5b919050565b6000806040838503121561008f57600080fd5b61009883610060565b91506100a660208401610060565b90509250929050565b610d4f806100be6000396000f3fe60806040526004361061006e5760003560e01c8063793261651161004b57806379326165146100ce57806385fe7dde146100e3578063996e96f014610103578063d8a7055d1461012b57005b80632e1a7d4d146100775780634a85c6f5146100975780636a472852146100bb57005b3661007557005b005b34801561008357600080fd5b50610075610092366004610be6565b610140565b3480156100a357600080fd5b506003545b6040519081526020015b60405180910390f35b6100756100c9366004610be6565b61054e565b3480156100da57600080fd5b506004546100a8565b3480156100ef57600080fd5b506100756100fe366004610c17565b6109fb565b34801561010f57600080fd5b506005546040516001600160a01b0390911681526020016100b2565b34801561013757600080fd5b506002546100a8565b6000546040516325c603b760e01b81523360048201526001600160a01b03909116906325c603b79060240160206040518083038186803b15801561018357600080fd5b505afa158015610197573d6000803e3d6000fd5b505050506040513d601f19601f820116820180604052508101906101bb9190610c3b565b6101c457600080fd5b6000600254116101d357600080fd5b6001546040516370a0823160e01b81523060048201526000916001600160a01b0316906370a082319060240160206040518083038186803b15801561021757600080fd5b505afa15801561022b573d6000803e3d6000fd5b505050506040513d601f19601f8201168201806040525081019061024f9190610c5d565b90508082111561025e57600080fd5b60006018603c80600254426102739190610c8c565b61027d9190610ca3565b6102879190610ca3565b6102919190610ca3565b905060006102a0601e83610ca3565b90506000600354600454836102b59190610cc5565b6102bf9190610c8c565b9050600081116102ce57600080fd5b808511156102db57600080fd5b84600360008282546102ed9190610ce4565b909155505060015460005460408051635f032b1760e01b815290516001600160a01b039384169363a9059cbb931691635f032b17916004808301926020929190829003018186803b15801561034157600080fd5b505afa158015610355573d6000803e3d6000fd5b505050506040513d601f19601f820116820180604052508101906103799190610cfc565b610384600289610ca3565b6040516001600160e01b031960e085901b1681526001600160a01b0390921660048301526024820152604401602060405180830381600087803b1580156103ca57600080fd5b505af11580156103de573d6000803e3d6000fd5b505050506040513d601f19601f820116820180604052508101906104029190610c3b565b50600154600054604080516356cd73c760e01b815290516001600160a01b039384169363a9059cbb9316916356cd73c7916004808301926020929190829003018186803b15801561045257600080fd5b505afa158015610466573d6000803e3d6000fd5b505050506040513d601f19601f8201168201806040525081019061048a9190610cfc565b610495600289610ca3565b6040516001600160e01b031960e085901b1681526001600160a01b0390921660048301526024820152604401602060405180830381600087803b1580156104db57600080fd5b505af11580156104ef573d6000803e3d6000fd5b505050506040513d601f19601f820116820180604052508101906105139190610c3b565b506040518581527f430648de173157e069201c943adb2d4e340e7cf5b27b1b09c9cb852f03d63b569060200160405180910390a15050505050565b600054604051638d84233160e01b81523260048201526001600160a01b0390911690638d8423319060240160206040518083038186803b15801561059157600080fd5b505afa1580156105a5573d6000803e3d6000fd5b505050506040513d601f19601f820116820180604052508101906105c99190610c3b565b6106335760405162461bcd60e51b815260206004820152603060248201527f596f7520617265206e6f7420617574686f72697a656420746f2063616c6c207460448201526f34329034b734ba10333ab731ba34b7b760811b60648201526084015b60405180910390fd5b600054604051634a36d88560e01b81526020600482015260066024820152650696e69744c560d41b60448201526001600160a01b0390911690634a36d8859060640160206040518083038186803b15801561068d57600080fd5b505afa1580156106a1573d6000803e3d6000fd5b505050506040513d601f19601f820116820180604052508101906106c59190610c3b565b6107115760405162461bcd60e51b815260206004820152601f60248201527f496e69742066756e6374696f6e206973206e6f7420617574686f72697a656400604482015260640161062a565b3332141561076d5760405162461bcd60e51b8152602060048201526024808201527f5472616e73616374696f6e2073656e646572206973206e6f74206120636f6e746044820152631c9858dd60e21b606482015260840161062a565b6005546001600160a01b03166107bd5760405162461bcd60e51b81526020600482015260156024820152741314081859191c995cdcc81a5cc81b9bdd081cd95d605a1b604482015260640161062a565b600254156108185760405162461bcd60e51b815260206004820152602260248201527f556e6c6f636b696e672074696d657374616d7020697320616c72656164792073604482015261195d60f21b606482015260840161062a565b600034610826836005610cc5565b6108309190610cc5565b6005546040519192506001600160a01b0316903480156108fc02916000818181858888f1935050505015801561086a573d6000803e3d6000fd5b5060015460055460405163a9059cbb60e01b81526001600160a01b0391821660048201526024810184905291169063a9059cbb90604401602060405180830381600087803b1580156108bb57600080fd5b505af11580156108cf573d6000803e3d6000fd5b505050506040513d601f19601f820116820180604052508101906108f39190610c3b565b50426002556001546040516370a0823160e01b8152306004820152603c916001600160a01b0316906370a082319060240160206040518083038186803b15801561093c57600080fd5b505afa158015610950573d6000803e3d6000fd5b505050506040513d601f19601f820116820180604052508101906109749190610c5d565b61097e9190610ca3565b600490815560005460405163538f20d960e01b815260209281019290925260066024830152650696e69744c560d41b60448301526001600160a01b03169063538f20d990606401600060405180830381600087803b1580156109df57600080fd5b505af11580156109f3573d6000803e3d6000fd5b505050505050565b600054604051638d84233160e01b81523360048201526001600160a01b0390911690638d8423319060240160206040518083038186803b158015610a3e57600080fd5b505afa158015610a52573d6000803e3d6000fd5b505050506040513d601f19601f82011682018060405250810190610a769190610c3b565b610a7f57600080fd5b600054604051634a36d88560e01b81526020600482015260066024820152657365744c504160d01b60448201526001600160a01b0390911690634a36d8859060640160206040518083038186803b158015610ad957600080fd5b505afa158015610aed573d6000803e3d6000fd5b505050506040513d601f19601f82011682018060405250810190610b119190610c3b565b610b1a57600080fd5b600580546001600160a01b0319166001600160a01b038381169190911790915560005460405163538f20d960e01b81526020600482015260066024820152657365744c504160d01b604482015291169063538f20d990606401600060405180830381600087803b158015610b8d57600080fd5b505af1158015610ba1573d6000803e3d6000fd5b50506040516001600160a01b03841681523392507f4e6f7361e3ff745ba50527f90b213a1dbef686c8cc817b1dbe844b7b86ab9339915060200160405180910390a250565b600060208284031215610bf857600080fd5b5035919050565b6001600160a01b0381168114610c1457600080fd5b50565b600060208284031215610c2957600080fd5b8135610c3481610bff565b9392505050565b600060208284031215610c4d57600080fd5b81518015158114610c3457600080fd5b600060208284031215610c6f57600080fd5b5051919050565b634e487b7160e01b600052601160045260246000fd5b600082821015610c9e57610c9e610c76565b500390565b600082610cc057634e487b7160e01b600052601260045260246000fd5b500490565b6000816000190483118215151615610cdf57610cdf610c76565b500290565b60008219821115610cf757610cf7610c76565b500190565b600060208284031215610d0e57600080fd5b8151610c3481610bff56fea2646970667358221220113aec8447956b2ddf25a25a279f6b839dbcb338a4f94fcff0ab57804d18d02a64736f6c63430008090033",
  "immutableReferences": {},
  "source": "// SPDX-License-Identifier: MIT\npragma solidity ^0.8.0;\n\nimport \"./MultisigManager.sol\";\nimport \"./NFTAToken.sol\";\n\ncontract TeamFund {\n    MultisigManager private multisigManager;\n    NFTAToken private nftaToken;\n    uint256 private unlockingTimestamp;\n    uint256 private withdrawnTokens;\n    uint256 private unlockPerMonth;\n    address private LPAddress;\n\n    event Withdrawn(uint256 amount);\n    event ChangedLPAddress(address indexed sender, address target);\n\n    constructor(address _multisigManager, address _nftaToken) {\n        multisigManager = MultisigManager(_multisigManager);\n        nftaToken = NFTAToken(_nftaToken);\n    }\n    \n    fallback () external payable {}\n    \n    receive() external payable {}\n\n    function withdraw(uint256 amount) external {\n        //Check requirements\n        require(multisigManager.senderIsMember(msg.sender));\n        require(unlockingTimestamp > 0);\n\n        //Check contract balance\n        uint256 contractBalance = nftaToken.balanceOf(address(this));\n        require(amount <= contractBalance);\n\n        //Calculate withdrawable token amount\n        uint256 daysGone = (block.timestamp - unlockingTimestamp) / 60 / 60 / 24;\n        uint256 monthGone = daysGone / 30;\n        uint256 withdrawable = (monthGone * unlockPerMonth) - withdrawnTokens;\n\n        //Withdraw amount\n        require(withdrawable > 0);\n        require(amount <= withdrawable);\n        withdrawnTokens += amount;\n        nftaToken.transfer(multisigManager.getMemberA(), amount/2);\n        nftaToken.transfer(multisigManager.getMemberB(), amount/2);\n        emit Withdrawn(amount);\n    }\n\n    function initLiquidityProvider(uint256 etherPrice) external payable {\n        //Check requirements\n        require(multisigManager.senderIsMaster(tx.origin), \"You are not authorized to call the init function\");\n        require(multisigManager.checkAllPermission(\"initLP\"), \"Init function is not authorized\");\n        require(msg.sender != tx.origin, \"Transaction sender is not a contract\");\n        require(LPAddress != address(0), \"LP address is not set\");\n        require(unlockingTimestamp == 0, \"Unlocking timestamp is already set\");\n\n        //Calculate tokenbits\n        uint256 tokenBits = (etherPrice * 5) * msg.value; // 5 Token per dollar = 0.20$USD\n\n        //Transfer liquidity to liquidity provider\n        payable(LPAddress).transfer(msg.value);\n        nftaToken.transfer(LPAddress, tokenBits);\n\n        //Init unlocking process & set unlock rate for 5 years\n        unlockingTimestamp = block.timestamp;\n        unlockPerMonth = nftaToken.balanceOf(address(this)) / 60;\n\n        //Reset function permission\n        multisigManager.resetFunctionPermission(\"initLP\");\n    }\n\n    function setLiquidityProviderAddress(address _LPAddress) external {\n        //Set address of the liquidity provider contract\n        require(multisigManager.senderIsMaster(msg.sender));\n        require(multisigManager.checkAllPermission(\"setLPA\"));\n        LPAddress = _LPAddress;\n        multisigManager.resetFunctionPermission(\"setLPA\");\n        emit ChangedLPAddress(msg.sender, _LPAddress);\n    }\n\n    function getUnlockingTimestamp() external view returns(uint256 result) {\n        return unlockingTimestamp;\n    }\n\n    function getWithdrawnTokens() external view returns(uint256 result) {\n        return withdrawnTokens;\n    }\n\n    function getUnlockPerMonth() external view returns(uint256 result) {\n        return unlockPerMonth;\n    }\n\n    function getLPAddress() external view returns(address result) {\n        return LPAddress;\n    }\n}",
  "sourcePath": "/home/zion/Projekte/nft-arena/contracts/TeamFund.sol",
  "compiler": {
    "name": "solc",
    "version": "0.8.9+commit.e5eed63a.Emscripten.clang"
  },
  "schemaVersion": "3.4.3",
  "updatedAt": "2022-04-07T15:46:41.819Z",
  "networkType": "ethereum",
  "devdoc": {
    "kind": "dev",
    "methods": {},
    "version": 1
  },
  "userdoc": {
    "kind": "user",
    "methods": {},
    "version": 1
  }
}